{
  "_format": "hh-sol-artifact-1",
  "contractName": "ERC721ABurnableMock",
  "sourceName": "contracts/nftERC721A/mocks/ERC721ABurnableMock.sol",
  "abi": [
    {
      "inputs": [
        {
          "internalType": "string",
          "name": "name_",
          "type": "string"
        },
        {
          "internalType": "string",
          "name": "symbol_",
          "type": "string"
        }
      ],
      "stateMutability": "nonpayable",
      "type": "constructor"
    },
    {
      "inputs": [],
      "name": "ApprovalCallerNotOwnerNorApproved",
      "type": "error"
    },
    {
      "inputs": [],
      "name": "ApprovalQueryForNonexistentToken",
      "type": "error"
    },
    {
      "inputs": [],
      "name": "ApproveToCaller",
      "type": "error"
    },
    {
      "inputs": [],
      "name": "BalanceQueryForZeroAddress",
      "type": "error"
    },
    {
      "inputs": [],
      "name": "MintERC2309QuantityExceedsLimit",
      "type": "error"
    },
    {
      "inputs": [],
      "name": "MintToZeroAddress",
      "type": "error"
    },
    {
      "inputs": [],
      "name": "MintZeroQuantity",
      "type": "error"
    },
    {
      "inputs": [],
      "name": "OwnerQueryForNonexistentToken",
      "type": "error"
    },
    {
      "inputs": [],
      "name": "OwnershipNotInitializedForExtraData",
      "type": "error"
    },
    {
      "inputs": [],
      "name": "TransferCallerNotOwnerNorApproved",
      "type": "error"
    },
    {
      "inputs": [],
      "name": "TransferFromIncorrectOwner",
      "type": "error"
    },
    {
      "inputs": [],
      "name": "TransferToNonERC721ReceiverImplementer",
      "type": "error"
    },
    {
      "inputs": [],
      "name": "TransferToZeroAddress",
      "type": "error"
    },
    {
      "inputs": [],
      "name": "URIQueryForNonexistentToken",
      "type": "error"
    },
    {
      "anonymous": false,
      "inputs": [
        {
          "indexed": true,
          "internalType": "address",
          "name": "owner",
          "type": "address"
        },
        {
          "indexed": true,
          "internalType": "address",
          "name": "approved",
          "type": "address"
        },
        {
          "indexed": true,
          "internalType": "uint256",
          "name": "tokenId",
          "type": "uint256"
        }
      ],
      "name": "Approval",
      "type": "event"
    },
    {
      "anonymous": false,
      "inputs": [
        {
          "indexed": true,
          "internalType": "address",
          "name": "owner",
          "type": "address"
        },
        {
          "indexed": true,
          "internalType": "address",
          "name": "operator",
          "type": "address"
        },
        {
          "indexed": false,
          "internalType": "bool",
          "name": "approved",
          "type": "bool"
        }
      ],
      "name": "ApprovalForAll",
      "type": "event"
    },
    {
      "anonymous": false,
      "inputs": [
        {
          "indexed": true,
          "internalType": "uint256",
          "name": "fromTokenId",
          "type": "uint256"
        },
        {
          "indexed": false,
          "internalType": "uint256",
          "name": "toTokenId",
          "type": "uint256"
        },
        {
          "indexed": true,
          "internalType": "address",
          "name": "from",
          "type": "address"
        },
        {
          "indexed": true,
          "internalType": "address",
          "name": "to",
          "type": "address"
        }
      ],
      "name": "ConsecutiveTransfer",
      "type": "event"
    },
    {
      "anonymous": false,
      "inputs": [
        {
          "indexed": true,
          "internalType": "address",
          "name": "from",
          "type": "address"
        },
        {
          "indexed": true,
          "internalType": "address",
          "name": "to",
          "type": "address"
        },
        {
          "indexed": true,
          "internalType": "uint256",
          "name": "tokenId",
          "type": "uint256"
        }
      ],
      "name": "Transfer",
      "type": "event"
    },
    {
      "inputs": [
        {
          "internalType": "address",
          "name": "to",
          "type": "address"
        },
        {
          "internalType": "uint256",
          "name": "tokenId",
          "type": "uint256"
        }
      ],
      "name": "approve",
      "outputs": [],
      "stateMutability": "nonpayable",
      "type": "function"
    },
    {
      "inputs": [
        {
          "internalType": "address",
          "name": "owner",
          "type": "address"
        }
      ],
      "name": "balanceOf",
      "outputs": [
        {
          "internalType": "uint256",
          "name": "",
          "type": "uint256"
        }
      ],
      "stateMutability": "view",
      "type": "function"
    },
    {
      "inputs": [
        {
          "internalType": "uint256",
          "name": "tokenId",
          "type": "uint256"
        }
      ],
      "name": "burn",
      "outputs": [],
      "stateMutability": "nonpayable",
      "type": "function"
    },
    {
      "inputs": [
        {
          "internalType": "uint256",
          "name": "tokenId",
          "type": "uint256"
        }
      ],
      "name": "exists",
      "outputs": [
        {
          "internalType": "bool",
          "name": "",
          "type": "bool"
        }
      ],
      "stateMutability": "view",
      "type": "function"
    },
    {
      "inputs": [
        {
          "internalType": "uint256",
          "name": "tokenId",
          "type": "uint256"
        }
      ],
      "name": "getApproved",
      "outputs": [
        {
          "internalType": "address",
          "name": "",
          "type": "address"
        }
      ],
      "stateMutability": "view",
      "type": "function"
    },
    {
      "inputs": [
        {
          "internalType": "uint256",
          "name": "index",
          "type": "uint256"
        }
      ],
      "name": "getOwnershipAt",
      "outputs": [
        {
          "components": [
            {
              "internalType": "address",
              "name": "addr",
              "type": "address"
            },
            {
              "internalType": "uint64",
              "name": "startTimestamp",
              "type": "uint64"
            },
            {
              "internalType": "bool",
              "name": "burned",
              "type": "bool"
            },
            {
              "internalType": "uint24",
              "name": "extraData",
              "type": "uint24"
            }
          ],
          "internalType": "struct IERC721A.TokenOwnership",
          "name": "",
          "type": "tuple"
        }
      ],
      "stateMutability": "view",
      "type": "function"
    },
    {
      "inputs": [
        {
          "internalType": "address",
          "name": "owner",
          "type": "address"
        },
        {
          "internalType": "address",
          "name": "operator",
          "type": "address"
        }
      ],
      "name": "isApprovedForAll",
      "outputs": [
        {
          "internalType": "bool",
          "name": "",
          "type": "bool"
        }
      ],
      "stateMutability": "view",
      "type": "function"
    },
    {
      "inputs": [],
      "name": "name",
      "outputs": [
        {
          "internalType": "string",
          "name": "",
          "type": "string"
        }
      ],
      "stateMutability": "view",
      "type": "function"
    },
    {
      "inputs": [
        {
          "internalType": "address",
          "name": "owner",
          "type": "address"
        }
      ],
      "name": "numberBurned",
      "outputs": [
        {
          "internalType": "uint256",
          "name": "",
          "type": "uint256"
        }
      ],
      "stateMutability": "view",
      "type": "function"
    },
    {
      "inputs": [
        {
          "internalType": "uint256",
          "name": "tokenId",
          "type": "uint256"
        }
      ],
      "name": "ownerOf",
      "outputs": [
        {
          "internalType": "address",
          "name": "",
          "type": "address"
        }
      ],
      "stateMutability": "view",
      "type": "function"
    },
    {
      "inputs": [
        {
          "internalType": "address",
          "name": "to",
          "type": "address"
        },
        {
          "internalType": "uint256",
          "name": "quantity",
          "type": "uint256"
        }
      ],
      "name": "safeMint",
      "outputs": [],
      "stateMutability": "nonpayable",
      "type": "function"
    },
    {
      "inputs": [
        {
          "internalType": "address",
          "name": "from",
          "type": "address"
        },
        {
          "internalType": "address",
          "name": "to",
          "type": "address"
        },
        {
          "internalType": "uint256",
          "name": "tokenId",
          "type": "uint256"
        }
      ],
      "name": "safeTransferFrom",
      "outputs": [],
      "stateMutability": "nonpayable",
      "type": "function"
    },
    {
      "inputs": [
        {
          "internalType": "address",
          "name": "from",
          "type": "address"
        },
        {
          "internalType": "address",
          "name": "to",
          "type": "address"
        },
        {
          "internalType": "uint256",
          "name": "tokenId",
          "type": "uint256"
        },
        {
          "internalType": "bytes",
          "name": "_data",
          "type": "bytes"
        }
      ],
      "name": "safeTransferFrom",
      "outputs": [],
      "stateMutability": "nonpayable",
      "type": "function"
    },
    {
      "inputs": [
        {
          "internalType": "address",
          "name": "operator",
          "type": "address"
        },
        {
          "internalType": "bool",
          "name": "approved",
          "type": "bool"
        }
      ],
      "name": "setApprovalForAll",
      "outputs": [],
      "stateMutability": "nonpayable",
      "type": "function"
    },
    {
      "inputs": [
        {
          "internalType": "bytes4",
          "name": "interfaceId",
          "type": "bytes4"
        }
      ],
      "name": "supportsInterface",
      "outputs": [
        {
          "internalType": "bool",
          "name": "",
          "type": "bool"
        }
      ],
      "stateMutability": "view",
      "type": "function"
    },
    {
      "inputs": [],
      "name": "symbol",
      "outputs": [
        {
          "internalType": "string",
          "name": "",
          "type": "string"
        }
      ],
      "stateMutability": "view",
      "type": "function"
    },
    {
      "inputs": [
        {
          "internalType": "uint256",
          "name": "tokenId",
          "type": "uint256"
        }
      ],
      "name": "tokenURI",
      "outputs": [
        {
          "internalType": "string",
          "name": "",
          "type": "string"
        }
      ],
      "stateMutability": "view",
      "type": "function"
    },
    {
      "inputs": [],
      "name": "totalBurned",
      "outputs": [
        {
          "internalType": "uint256",
          "name": "",
          "type": "uint256"
        }
      ],
      "stateMutability": "view",
      "type": "function"
    },
    {
      "inputs": [],
      "name": "totalMinted",
      "outputs": [
        {
          "internalType": "uint256",
          "name": "",
          "type": "uint256"
        }
      ],
      "stateMutability": "view",
      "type": "function"
    },
    {
      "inputs": [],
      "name": "totalSupply",
      "outputs": [
        {
          "internalType": "uint256",
          "name": "",
          "type": "uint256"
        }
      ],
      "stateMutability": "view",
      "type": "function"
    },
    {
      "inputs": [
        {
          "internalType": "address",
          "name": "from",
          "type": "address"
        },
        {
          "internalType": "address",
          "name": "to",
          "type": "address"
        },
        {
          "internalType": "uint256",
          "name": "tokenId",
          "type": "uint256"
        }
      ],
      "name": "transferFrom",
      "outputs": [],
      "stateMutability": "nonpayable",
      "type": "function"
    }
  ],
  "bytecode": "0x60806040523480156200001157600080fd5b5060405162001439380380620014398339810160408190526200003491620001e6565b8151829082906200004d90600290602085019062000073565b5080516200006390600390602084019062000073565b5060008055506200028d92505050565b828054620000819062000250565b90600052602060002090601f016020900481019282620000a55760008555620000f0565b82601f10620000c057805160ff1916838001178555620000f0565b82800160010185558215620000f0579182015b82811115620000f0578251825591602001919060010190620000d3565b50620000fe92915062000102565b5090565b5b80821115620000fe576000815560010162000103565b634e487b7160e01b600052604160045260246000fd5b600082601f8301126200014157600080fd5b81516001600160401b03808211156200015e576200015e62000119565b604051601f8301601f19908116603f0116810190828211818310171562000189576200018962000119565b81604052838152602092508683858801011115620001a657600080fd5b600091505b83821015620001ca5785820183015181830184015290820190620001ab565b83821115620001dc5760008385830101525b9695505050505050565b60008060408385031215620001fa57600080fd5b82516001600160401b03808211156200021257600080fd5b62000220868387016200012f565b935060208501519150808211156200023757600080fd5b5062000246858286016200012f565b9150509250929050565b600181811c908216806200026557607f821691505b602082108114156200028757634e487b7160e01b600052602260045260246000fd5b50919050565b61119c806200029d6000396000f3fe608060405234801561001057600080fd5b50600436106101075760003560e01c806301ffc9a71461010c57806306fdde0314610134578063081812fc14610149578063095ea7b31461017457806318160ddd1461018957806323b872dd1461019f5780632478d639146101b257806342842e0e146101c557806342966c68146101d85780634f558e79146101eb5780636352211e146101fe57806370a082311461021157806395d89b4114610224578063a14481941461022c578063a22cb4651461023f578063a2309ff814610252578063b88d4fde1461025a578063c87b56dd1461026d578063d89135cd14610280578063e985e9c514610288578063f2523633146102c4575b600080fd5b61011f61011a366004610de4565b610323565b60405190151581526020015b60405180910390f35b61013c610375565b60405161012b9190610e59565b61015c610157366004610e6c565b610407565b6040516001600160a01b03909116815260200161012b565b610187610182366004610ea1565b61044b565b005b600154600054035b60405190815260200161012b565b6101876101ad366004610ecb565b6104eb565b6101916101c0366004610f07565b610674565b6101876101d3366004610ecb565b6106a1565b6101876101e6366004610e6c565b6106c1565b61011f6101f9366004610e6c565b6106cf565b61015c61020c366004610e6c565b6106da565b61019161021f366004610f07565b6106e5565b61013c610733565b61018761023a366004610ea1565b610742565b61018761024d366004610f22565b610750565b600054610191565b610187610268366004610f74565b6107eb565b61013c61027b366004610e6c565b610835565b6101916108c7565b61011f61029636600461104f565b6001600160a01b03918216600090815260076020908152604080832093909416825291909152205460ff1690565b6102d76102d2366004610e6c565b6108d2565b60405161012b919081516001600160a01b031681526020808301516001600160401b03169082015260408083015115159082015260609182015162ffffff169181019190915260800190565b60006301ffc9a760e01b6001600160e01b03198316148061035457506380ac58cd60e01b6001600160e01b03198316145b8061036f5750635b5e139f60e01b6001600160e01b03198316145b92915050565b60606002805461038490611082565b80601f01602080910402602001604051908101604052809291908181526020018280546103b090611082565b80156103fd5780601f106103d2576101008083540402835291602001916103fd565b820191906000526020600020905b8154815290600101906020018083116103e057829003601f168201915b5050505050905090565b6000610412826108e3565b61042f576040516333d1c03960e21b815260040160405180910390fd5b506000908152600660205260409020546001600160a01b031690565b6000610456826106da565b9050336001600160a01b0382161461048f576104728133610296565b61048f576040516367d9dca160e11b815260040160405180910390fd5b60008281526006602052604080822080546001600160a01b0319166001600160a01b0387811691821790925591518593918516917f8c5be1e5ebec7d5bd14f71427d1e84f3dd0314c0f7b2291e5b200ac8c7c3b92591a4505050565b60006104f68261090a565b9050836001600160a01b0316816001600160a01b0316146105295760405162a1148160e81b815260040160405180910390fd5b600082815260066020526040902080546105558187335b6001600160a01b039081169116811491141790565b610580576105638633610296565b61058057604051632ce44b5f60e11b815260040160405180910390fd5b6001600160a01b0385166105a757604051633a954ecd60e21b815260040160405180910390fd5b80156105b257600082555b6001600160a01b038681166000908152600560205260408082208054600019019055918716815220805460010190556105ef85600160e11b61096b565b600085815260046020526040902055600160e11b831661063d576001840160008181526004602052604090205461063b57600054811461063b5760008181526004602052604090208490555b505b83856001600160a01b0316876001600160a01b031660008051602061114783398151915260405160405180910390a4505050505050565b600061036f826001600160a01b031660009081526005602052604090205460801c6001600160401b031690565b6106bc838383604051806020016040528060008152506107eb565b505050565b6106cc816001610980565b50565b600061036f826108e3565b600061036f8261090a565b60006001600160a01b03821661070e576040516323d3ad8160e21b815260040160405180910390fd5b506001600160a01b03166000908152600560205260409020546001600160401b031690565b60606003805461038490611082565b61074c8282610aab565b5050565b6001600160a01b03821633141561077a5760405163b06307db60e01b815260040160405180910390fd5b3360008181526007602090815260408083206001600160a01b03871680855290835292819020805460ff191686151590811790915590519081529192917f17307eab39ab6107e8899845ad3d59bd9653f200f220920489ca2b5937696c31910160405180910390a35050565b905090565b6107f68484846104eb565b6001600160a01b0383163b1561082f5761081284848484610ac5565b61082f576040516368d2bf6b60e11b815260040160405180910390fd5b50505050565b6060610840826108e3565b61085d57604051630a14c4b560e41b815260040160405180910390fd5b600061087460408051602081019091526000815290565b905080516000141561089557604051806020016040528060008152506108c0565b8061089f84610bbc565b6040516020016108b09291906110bd565b6040516020818303038152906040525b9392505050565b60006107e660015490565b6108da610da7565b61036f82610c0b565b600080548210801561036f575050600090815260046020526040902054600160e01b161590565b60008160005481101561095257600081815260046020526040902054600160e01b8116610950575b806108c0575060001901600081815260046020526040902054610932565b505b604051636f96cda160e11b815260040160405180910390fd5b4260a01b176001600160a01b03919091161790565b600061098b8361090a565b9050806000806109a986600090815260066020526040902080549091565b9150915084156109e9576109be818433610540565b6109e9576109cc8333610296565b6109e957604051632ce44b5f60e11b815260040160405180910390fd5b80156109f457600082555b6001600160a01b038316600090815260056020526040902080546001600160801b03019055610a2783600360e01b61096b565b600087815260046020526040902055600160e11b8416610a755760018601600081815260046020526040902054610a73576000548114610a735760008181526004602052604090208590555b505b60405186906000906001600160a01b03861690600080516020611147833981519152908390a45050600180548101905550505050565b61074c828260405180602001604052806000815250610c2b565b604051630a85bd0160e11b81526000906001600160a01b0385169063150b7a0290610afa9033908990889088906004016110ec565b602060405180830381600087803b158015610b1457600080fd5b505af1925050508015610b44575060408051601f3d908101601f19168201909252610b4191810190611129565b60015b610b9f573d808015610b72576040519150601f19603f3d011682016040523d82523d6000602084013e610b77565b606091505b508051610b97576040516368d2bf6b60e11b815260040160405180910390fd5b805181602001fd5b6001600160e01b031916630a85bd0160e11b149050949350505050565b604080516080810191829052607f0190826030600a8206018353600a90045b8015610bf957600183039250600a81066030018353600a9004610bdb565b50819003601f19909101908152919050565b610c13610da7565b60008281526004602052604090205461036f90610c98565b610c358383610cdb565b6001600160a01b0383163b156106bc576000548281035b610c5f6000868380600101945086610ac5565b610c7c576040516368d2bf6b60e11b815260040160405180910390fd5b818110610c4c578160005414610c9157600080fd5b5050505050565b610ca0610da7565b6001600160a01b03821681526001600160401b0360a083901c166020820152600160e01b82161515604082015260e89190911c606082015290565b6000546001600160a01b038316610d0457604051622e076360e81b815260040160405180910390fd5b81610d225760405163b562e8dd60e01b815260040160405180910390fd5b6001600160a01b038316600090815260056020526040902080546001600160401b018402019055610d59836001841460e11b61096b565b600082815260046020526040902055808281015b6040516001830192906001600160a01b03871690600090600080516020611147833981519152908290a4808210610d6d5760005550505050565b60408051608081018252600080825260208201819052918101829052606081019190915290565b6001600160e01b0319811681146106cc57600080fd5b600060208284031215610df657600080fd5b81356108c081610dce565b60005b83811015610e1c578181015183820152602001610e04565b8381111561082f5750506000910152565b60008151808452610e45816020860160208601610e01565b601f01601f19169290920160200192915050565b6020815260006108c06020830184610e2d565b600060208284031215610e7e57600080fd5b5035919050565b80356001600160a01b0381168114610e9c57600080fd5b919050565b60008060408385031215610eb457600080fd5b610ebd83610e85565b946020939093013593505050565b600080600060608486031215610ee057600080fd5b610ee984610e85565b9250610ef760208501610e85565b9150604084013590509250925092565b600060208284031215610f1957600080fd5b6108c082610e85565b60008060408385031215610f3557600080fd5b610f3e83610e85565b915060208301358015158114610f5357600080fd5b809150509250929050565b634e487b7160e01b600052604160045260246000fd5b60008060008060808587031215610f8a57600080fd5b610f9385610e85565b9350610fa160208601610e85565b92506040850135915060608501356001600160401b0380821115610fc457600080fd5b818701915087601f830112610fd857600080fd5b813581811115610fea57610fea610f5e565b604051601f8201601f19908116603f0116810190838211818310171561101257611012610f5e565b816040528281528a602084870101111561102b57600080fd5b82602086016020830137600060208483010152809550505050505092959194509250565b6000806040838503121561106257600080fd5b61106b83610e85565b915061107960208401610e85565b90509250929050565b600181811c9082168061109657607f821691505b602082108114156110b757634e487b7160e01b600052602260045260246000fd5b50919050565b600083516110cf818460208801610e01565b8351908301906110e3818360208801610e01565b01949350505050565b6001600160a01b038581168252841660208201526040810183905260806060820181905260009061111f90830184610e2d565b9695505050505050565b60006020828403121561113b57600080fd5b81516108c081610dce56feddf252ad1be2c89b69c2b068fc378daa952ba7f163c4a11628f55a4df523b3efa2646970667358221220442e9b97a3e7152860aad57654bb65c541de023fc0ca9652db8610bcb342664464736f6c63430008090033",
  "linkReferences": {},
  "deployedLinkReferences": {}
}