{
  "_format": "hh-sol-artifact-1",
  "contractName": "poap",
  "sourceName": "contracts/poap.sol",
  "abi": [
    {
      "inputs": [
        {
          "internalType": "address",
          "name": "_trustedForwarder",
          "type": "address"
        }
      ],
      "stateMutability": "nonpayable",
      "type": "constructor"
    },
    {
      "anonymous": false,
      "inputs": [
        {
          "indexed": true,
          "internalType": "address",
          "name": "owner",
          "type": "address"
        },
        {
          "indexed": true,
          "internalType": "address",
          "name": "approved",
          "type": "address"
        },
        {
          "indexed": true,
          "internalType": "uint256",
          "name": "tokenId",
          "type": "uint256"
        }
      ],
      "name": "Approval",
      "type": "event"
    },
    {
      "anonymous": false,
      "inputs": [
        {
          "indexed": true,
          "internalType": "address",
          "name": "owner",
          "type": "address"
        },
        {
          "indexed": true,
          "internalType": "address",
          "name": "operator",
          "type": "address"
        },
        {
          "indexed": false,
          "internalType": "bool",
          "name": "approved",
          "type": "bool"
        }
      ],
      "name": "ApprovalForAll",
      "type": "event"
    },
    {
      "anonymous": false,
      "inputs": [
        {
          "indexed": true,
          "internalType": "address",
          "name": "previousOwner",
          "type": "address"
        },
        {
          "indexed": true,
          "internalType": "address",
          "name": "newOwner",
          "type": "address"
        }
      ],
      "name": "OwnershipTransferred",
      "type": "event"
    },
    {
      "anonymous": false,
      "inputs": [
        {
          "indexed": true,
          "internalType": "address",
          "name": "from",
          "type": "address"
        },
        {
          "indexed": true,
          "internalType": "address",
          "name": "to",
          "type": "address"
        },
        {
          "indexed": true,
          "internalType": "uint256",
          "name": "tokenId",
          "type": "uint256"
        }
      ],
      "name": "Transfer",
      "type": "event"
    },
    {
      "inputs": [],
      "name": "MaxSupply",
      "outputs": [
        {
          "internalType": "uint256",
          "name": "",
          "type": "uint256"
        }
      ],
      "stateMutability": "view",
      "type": "function"
    },
    {
      "inputs": [
        {
          "internalType": "uint256",
          "name": "_Tokenid",
          "type": "uint256"
        }
      ],
      "name": "OwnerOf",
      "outputs": [
        {
          "internalType": "address",
          "name": "",
          "type": "address"
        }
      ],
      "stateMutability": "view",
      "type": "function"
    },
    {
      "inputs": [
        {
          "internalType": "address",
          "name": "",
          "type": "address"
        }
      ],
      "name": "addressMintedBalance",
      "outputs": [
        {
          "internalType": "uint256",
          "name": "",
          "type": "uint256"
        }
      ],
      "stateMutability": "view",
      "type": "function"
    },
    {
      "inputs": [
        {
          "internalType": "address",
          "name": "to",
          "type": "address"
        },
        {
          "internalType": "uint256",
          "name": "tokenId",
          "type": "uint256"
        }
      ],
      "name": "approve",
      "outputs": [],
      "stateMutability": "nonpayable",
      "type": "function"
    },
    {
      "inputs": [
        {
          "internalType": "address",
          "name": "owner",
          "type": "address"
        }
      ],
      "name": "balanceOf",
      "outputs": [
        {
          "internalType": "uint256",
          "name": "",
          "type": "uint256"
        }
      ],
      "stateMutability": "view",
      "type": "function"
    },
    {
      "inputs": [],
      "name": "baseExtension",
      "outputs": [
        {
          "internalType": "string",
          "name": "",
          "type": "string"
        }
      ],
      "stateMutability": "view",
      "type": "function"
    },
    {
      "inputs": [],
      "name": "baseURI",
      "outputs": [
        {
          "internalType": "string",
          "name": "",
          "type": "string"
        }
      ],
      "stateMutability": "view",
      "type": "function"
    },
    {
      "inputs": [
        {
          "internalType": "uint256",
          "name": "tokenId",
          "type": "uint256"
        }
      ],
      "name": "getApproved",
      "outputs": [
        {
          "internalType": "address",
          "name": "",
          "type": "address"
        }
      ],
      "stateMutability": "view",
      "type": "function"
    },
    {
      "inputs": [
        {
          "internalType": "address",
          "name": "owner",
          "type": "address"
        },
        {
          "internalType": "address",
          "name": "operator",
          "type": "address"
        }
      ],
      "name": "isApprovedForAll",
      "outputs": [
        {
          "internalType": "bool",
          "name": "",
          "type": "bool"
        }
      ],
      "stateMutability": "view",
      "type": "function"
    },
    {
      "inputs": [
        {
          "internalType": "address",
          "name": "forwarder",
          "type": "address"
        }
      ],
      "name": "isTrustedForwarder",
      "outputs": [
        {
          "internalType": "bool",
          "name": "",
          "type": "bool"
        }
      ],
      "stateMutability": "view",
      "type": "function"
    },
    {
      "inputs": [
        {
          "internalType": "uint256",
          "name": "_mintAmount",
          "type": "uint256"
        }
      ],
      "name": "mint",
      "outputs": [],
      "stateMutability": "payable",
      "type": "function"
    },
    {
      "inputs": [],
      "name": "name",
      "outputs": [
        {
          "internalType": "string",
          "name": "",
          "type": "string"
        }
      ],
      "stateMutability": "view",
      "type": "function"
    },
    {
      "inputs": [],
      "name": "owner",
      "outputs": [
        {
          "internalType": "address",
          "name": "",
          "type": "address"
        }
      ],
      "stateMutability": "view",
      "type": "function"
    },
    {
      "inputs": [
        {
          "internalType": "uint256",
          "name": "tokenId",
          "type": "uint256"
        }
      ],
      "name": "ownerOf",
      "outputs": [
        {
          "internalType": "address",
          "name": "",
          "type": "address"
        }
      ],
      "stateMutability": "view",
      "type": "function"
    },
    {
      "inputs": [],
      "name": "renounceOwnership",
      "outputs": [],
      "stateMutability": "nonpayable",
      "type": "function"
    },
    {
      "inputs": [
        {
          "internalType": "address",
          "name": "from",
          "type": "address"
        },
        {
          "internalType": "address",
          "name": "to",
          "type": "address"
        },
        {
          "internalType": "uint256",
          "name": "tokenId",
          "type": "uint256"
        }
      ],
      "name": "safeTransferFrom",
      "outputs": [],
      "stateMutability": "nonpayable",
      "type": "function"
    },
    {
      "inputs": [
        {
          "internalType": "address",
          "name": "from",
          "type": "address"
        },
        {
          "internalType": "address",
          "name": "to",
          "type": "address"
        },
        {
          "internalType": "uint256",
          "name": "tokenId",
          "type": "uint256"
        },
        {
          "internalType": "bytes",
          "name": "data",
          "type": "bytes"
        }
      ],
      "name": "safeTransferFrom",
      "outputs": [],
      "stateMutability": "nonpayable",
      "type": "function"
    },
    {
      "inputs": [
        {
          "internalType": "address",
          "name": "operator",
          "type": "address"
        },
        {
          "internalType": "bool",
          "name": "approved",
          "type": "bool"
        }
      ],
      "name": "setApprovalForAll",
      "outputs": [],
      "stateMutability": "nonpayable",
      "type": "function"
    },
    {
      "inputs": [
        {
          "internalType": "string",
          "name": "_newBaseExtension",
          "type": "string"
        }
      ],
      "name": "setBaseExtension",
      "outputs": [],
      "stateMutability": "nonpayable",
      "type": "function"
    },
    {
      "inputs": [
        {
          "internalType": "string",
          "name": "_newBaseURI",
          "type": "string"
        }
      ],
      "name": "setBaseURI",
      "outputs": [],
      "stateMutability": "nonpayable",
      "type": "function"
    },
    {
      "inputs": [
        {
          "internalType": "bytes4",
          "name": "interfaceId",
          "type": "bytes4"
        }
      ],
      "name": "supportsInterface",
      "outputs": [
        {
          "internalType": "bool",
          "name": "",
          "type": "bool"
        }
      ],
      "stateMutability": "view",
      "type": "function"
    },
    {
      "inputs": [],
      "name": "symbol",
      "outputs": [
        {
          "internalType": "string",
          "name": "",
          "type": "string"
        }
      ],
      "stateMutability": "view",
      "type": "function"
    },
    {
      "inputs": [
        {
          "internalType": "uint256",
          "name": "index",
          "type": "uint256"
        }
      ],
      "name": "tokenByIndex",
      "outputs": [
        {
          "internalType": "uint256",
          "name": "",
          "type": "uint256"
        }
      ],
      "stateMutability": "view",
      "type": "function"
    },
    {
      "inputs": [
        {
          "internalType": "address",
          "name": "owner",
          "type": "address"
        },
        {
          "internalType": "uint256",
          "name": "index",
          "type": "uint256"
        }
      ],
      "name": "tokenOfOwnerByIndex",
      "outputs": [
        {
          "internalType": "uint256",
          "name": "",
          "type": "uint256"
        }
      ],
      "stateMutability": "view",
      "type": "function"
    },
    {
      "inputs": [
        {
          "internalType": "uint256",
          "name": "tokenId",
          "type": "uint256"
        }
      ],
      "name": "tokenURI",
      "outputs": [
        {
          "internalType": "string",
          "name": "",
          "type": "string"
        }
      ],
      "stateMutability": "view",
      "type": "function"
    },
    {
      "inputs": [],
      "name": "totalSupply",
      "outputs": [
        {
          "internalType": "uint256",
          "name": "",
          "type": "uint256"
        }
      ],
      "stateMutability": "view",
      "type": "function"
    },
    {
      "inputs": [
        {
          "internalType": "address",
          "name": "from",
          "type": "address"
        },
        {
          "internalType": "address",
          "name": "to",
          "type": "address"
        },
        {
          "internalType": "uint256",
          "name": "tokenId",
          "type": "uint256"
        }
      ],
      "name": "transferFrom",
      "outputs": [],
      "stateMutability": "nonpayable",
      "type": "function"
    },
    {
      "inputs": [
        {
          "internalType": "address",
          "name": "newOwner",
          "type": "address"
        }
      ],
      "name": "transferOwnership",
      "outputs": [],
      "stateMutability": "nonpayable",
      "type": "function"
    },
    {
      "inputs": [
        {
          "internalType": "address",
          "name": "_owner",
          "type": "address"
        }
      ],
      "name": "walletOfOwner",
      "outputs": [
        {
          "internalType": "uint256[]",
          "name": "",
          "type": "uint256[]"
        }
      ],
      "stateMutability": "view",
      "type": "function"
    },
    {
      "inputs": [],
      "name": "withdraw",
      "outputs": [],
      "stateMutability": "payable",
      "type": "function"
    }
  ],
  "bytecode": "0x60e0604052600560a081905264173539b7b760d91b60c09081526200002891600d9190620001aa565b50600e805460ff191690553480156200004057600080fd5b50604051620020d5380380620020d5833981016040819052620000639162000250565b604080518082018252601281527102834b63630b4902632b0b937102bb2b119960751b6020808301918252835180850190945260038452624c573360e81b908401526001600160a01b0384166080528151919291620000c591600091620001aa565b508051620000db906001906020840190620001aa565b505050620000f8620000f2620000ff60201b60201c565b6200011b565b50620002bf565b6000620001166200016d60201b62000dc81760201c565b905090565b600a80546001600160a01b038381166001600160a01b0319831681179093556040519116919082907f8be0079c531659141344cd1fd0a4f28419497f9722a3daafe3b4186f6b6457e090600090a35050565b6080516000906001600160a01b031633141562000191575060131936013560601c90565b62000116620001a660201b62000dea1760201c565b3390565b828054620001b89062000282565b90600052602060002090601f016020900481019282620001dc576000855562000227565b82601f10620001f757805160ff191683800117855562000227565b8280016001018555821562000227579182015b82811115620002275782518255916020019190600101906200020a565b506200023592915062000239565b5090565b5b808211156200023557600081556001016200023a565b6000602082840312156200026357600080fd5b81516001600160a01b03811681146200027b57600080fd5b9392505050565b600181811c908216806200029757607f821691505b60208210811415620002b957634e487b7160e01b600052602260045260246000fd5b50919050565b608051611dfa620002db6000396000610a140152611dfa6000f3fe60806040526004361061015d5760003560e01c806301ffc9a71461016257806306fdde0314610197578063081812fc146101b9578063095ea7b3146101f157806318160ddd1461021357806318cae2691461023257806323b872dd1461025f5780632f745c591461027f5780633ccfd60b1461029f57806342842e0e146102a7578063438b6300146102c75780634f6ccce7146102f457806355f804b314610314578063572b6c05146103345780636352211e146103545780636c0360eb1461037457806370a0823114610389578063715018a6146103a95780638da5cb5b146103be57806395d89b41146103d3578063a0712d68146103e8578063a22cb465146103fb578063b36c12841461041b578063b88d4fde14610430578063c668286214610450578063c87b56dd14610465578063cf9b62d914610485578063da3ef23f146104a5578063e985e9c5146104c5578063f2fde38b146104e5575b600080fd5b34801561016e57600080fd5b5061018261017d3660046118cb565b610505565b60405190151581526020015b60405180910390f35b3480156101a357600080fd5b506101ac610516565b60405161018e9190611935565b3480156101c557600080fd5b506101d96101d4366004611948565b6105a8565b6040516001600160a01b03909116815260200161018e565b3480156101fd57600080fd5b5061021161020c36600461197d565b6105cf565b005b34801561021f57600080fd5b506008545b60405190815260200161018e565b34801561023e57600080fd5b5061022461024d3660046119a7565b600f6020526000908152604090205481565b34801561026b57600080fd5b5061021161027a3660046119c2565b6106fc565b34801561028b57600080fd5b5061022461029a36600461197d565b61078d565b610211610823565b3480156102b357600080fd5b506102116102c23660046119c2565b610895565b3480156102d357600080fd5b506102e76102e23660046119a7565b6108bf565b60405161018e91906119fe565b34801561030057600080fd5b5061022461030f366004611948565b610960565b34801561032057600080fd5b5061021161032f366004611acd565b6109f3565b34801561034057600080fd5b5061018261034f3660046119a7565b610a12565b34801561036057600080fd5b506101d961036f366004611948565b610a44565b34801561038057600080fd5b506101ac610a79565b34801561039557600080fd5b506102246103a43660046119a7565b610b07565b3480156103b557600080fd5b50610211610b8d565b3480156103ca57600080fd5b506101d9610ba1565b3480156103df57600080fd5b506101ac610bb0565b6102116103f6366004611948565b610bbf565b34801561040757600080fd5b50610211610416366004611b15565b610bc9565b34801561042757600080fd5b50610224610bdb565b34801561043c57600080fd5b5061021161044b366004611b51565b610beb565b34801561045c57600080fd5b506101ac610c71565b34801561047157600080fd5b506101ac610480366004611948565b610c7e565b34801561049157600080fd5b506101d96104a0366004611948565b610cfe565b3480156104b157600080fd5b506102116104c0366004611acd565b610d09565b3480156104d157600080fd5b506101826104e0366004611bcc565b610d24565b3480156104f157600080fd5b506102116105003660046119a7565b610d52565b600061051082610dee565b92915050565b60606000805461052590611bff565b80601f016020809104026020016040519081016040528092919081815260200182805461055190611bff565b801561059e5780601f106105735761010080835404028352916020019161059e565b820191906000526020600020905b81548152906001019060200180831161058157829003601f168201915b5050505050905090565b60006105b382610e13565b506000908152600460205260409020546001600160a01b031690565b60006105da82610a44565b9050806001600160a01b0316836001600160a01b0316141561064d5760405162461bcd60e51b815260206004820152602160248201527f4552433732313a20617070726f76616c20746f2063757272656e74206f776e656044820152603960f91b60648201526084015b60405180910390fd5b806001600160a01b031661065f610e38565b6001600160a01b0316148061067b575061067b816104e0610e38565b6106ed5760405162461bcd60e51b815260206004820152603e60248201527f4552433732313a20617070726f76652063616c6c6572206973206e6f7420746f60448201527f6b656e206f776e6572206e6f7220617070726f76656420666f7220616c6c00006064820152608401610644565b6106f78383610e42565b505050565b600e5460ff1661070b57600080fd5b61071c610716610e38565b82610eb0565b6107825760405162461bcd60e51b815260206004820152603160248201527f4552433732313a207472616e736665722063616c6c6572206973206e6f74206f6044820152701ddb995c881b9bdc88185c1c1c9bdd9959607a1b6064820152608401610644565b6106f7838383610f0f565b600061079883610b07565b82106107fa5760405162461bcd60e51b815260206004820152602b60248201527f455243373231456e756d657261626c653a206f776e657220696e646578206f7560448201526a74206f6620626f756e647360a81b6064820152608401610644565b506001600160a01b03919091166000908152600660209081526040808320938352929052205490565b61082b6110a4565b6000610835610ba1565b6001600160a01b03164760405160006040518083038185875af1925050503d806000811461087f576040519150601f19603f3d011682016040523d82523d6000602084013e610884565b606091505b505090508061089257600080fd5b50565b600e5460ff166108a457600080fd5b6106f783838360405180602001604052806000815250610beb565b606060006108cc83610b07565b90506000816001600160401b038111156108e8576108e8611a42565b604051908082528060200260200182016040528015610911578160200160208202803683370190505b50905060005b8281101561095857610929858261078d565b82828151811061093b5761093b611c3a565b60209081029190910101528061095081611c66565b915050610917565b509392505050565b600061096b60085490565b82106109ce5760405162461bcd60e51b815260206004820152602c60248201527f455243373231456e756d657261626c653a20676c6f62616c20696e646578206f60448201526b7574206f6620626f756e647360a01b6064820152608401610644565b600882815481106109e1576109e1611c3a565b90600052602060002001549050919050565b6109fb6110a4565b8051610a0e90600c90602084019061181c565b5050565b7f00000000000000000000000000000000000000000000000000000000000000006001600160a01b0390811691161490565b6000818152600260205260408120546001600160a01b0316806105105760405162461bcd60e51b815260040161064490611c81565b600c8054610a8690611bff565b80601f0160208091040260200160405190810160405280929190818152602001828054610ab290611bff565b8015610aff5780601f10610ad457610100808354040283529160200191610aff565b820191906000526020600020905b815481529060010190602001808311610ae257829003601f168201915b505050505081565b60006001600160a01b038216610b715760405162461bcd60e51b815260206004820152602960248201527f4552433732313a2061646472657373207a65726f206973206e6f7420612076616044820152683634b21037bbb732b960b91b6064820152608401610644565b506001600160a01b031660009081526003602052604090205490565b610b956110a4565b610b9f6000611113565b565b600a546001600160a01b031690565b60606001805461052590611bff565b6108923382611165565b610a0e610bd4610e38565b83836111c2565b6000610be660085490565b905090565b610bfc610bf6610e38565b83610eb0565b610c5f5760405162461bcd60e51b815260206004820152602e60248201527f4552433732313a2063616c6c6572206973206e6f7420746f6b656e206f776e6560448201526d1c881b9bdc88185c1c1c9bdd995960921b6064820152608401610644565b610c6b8484848461128d565b50505050565b600d8054610a8690611bff565b6060610c89826112c0565b610ced5760405162461bcd60e51b815260206004820152602f60248201527f4552433732314d657461646174613a2055524920717565727920666f72206e6f60448201526e3732bc34b9ba32b73a103a37b5b2b760891b6064820152608401610644565b6000610cf76112dd565b9392505050565b600061051082610a44565b610d116110a4565b8051610a0e90600d90602084019061181c565b6001600160a01b03918216600090815260056020908152604080832093909416825291909152205460ff1690565b610d5a6110a4565b6001600160a01b038116610dbf5760405162461bcd60e51b815260206004820152602660248201527f4f776e61626c653a206e6577206f776e657220697320746865207a65726f206160448201526564647265737360d01b6064820152608401610644565b61089281611113565b6000610dd333610a12565b15610de5575060131936013560601c90565b503390565b3390565b60006001600160e01b0319821663780e9d6360e01b14806105105750610510826112ec565b610e1c816112c0565b6108925760405162461bcd60e51b815260040161064490611c81565b6000610be6610dc8565b600081815260046020526040902080546001600160a01b0319166001600160a01b0384169081179091558190610e7782610a44565b6001600160a01b03167f8c5be1e5ebec7d5bd14f71427d1e84f3dd0314c0f7b2291e5b200ac8c7c3b92560405160405180910390a45050565b600080610ebc83610a44565b9050806001600160a01b0316846001600160a01b03161480610ee35750610ee38185610d24565b80610f075750836001600160a01b0316610efc846105a8565b6001600160a01b0316145b949350505050565b826001600160a01b0316610f2282610a44565b6001600160a01b031614610f865760405162461bcd60e51b815260206004820152602560248201527f4552433732313a207472616e736665722066726f6d20696e636f72726563742060448201526437bbb732b960d91b6064820152608401610644565b6001600160a01b038216610fe85760405162461bcd60e51b8152602060048201526024808201527f4552433732313a207472616e7366657220746f20746865207a65726f206164646044820152637265737360e01b6064820152608401610644565b610ff383838361133c565b610ffe600082610e42565b6001600160a01b0383166000908152600360205260408120805460019290611027908490611cb3565b90915550506001600160a01b0382166000908152600360205260408120805460019290611055908490611cca565b909155505060008181526002602052604080822080546001600160a01b0319166001600160a01b038681169182179092559151849391871691600080516020611da583398151915291a4505050565b6110ac610e38565b6001600160a01b03166110bd610ba1565b6001600160a01b031614610b9f5760405162461bcd60e51b815260206004820181905260248201527f4f776e61626c653a2063616c6c6572206973206e6f7420746865206f776e65726044820152606401610644565b600a80546001600160a01b038381166001600160a01b0319831681179093556040519116919082907f8be0079c531659141344cd1fd0a4f28419497f9722a3daafe3b4186f6b6457e090600090a35050565b60005b818110156106f757336000908152600f6020526040812080549161118b83611c66565b919050555061119e600b80546001019055565b6111b0836111ab600b5490565b611347565b806111ba81611c66565b915050611168565b816001600160a01b0316836001600160a01b031614156112205760405162461bcd60e51b815260206004820152601960248201527822a9219b99189d1030b8383937bb32903a379031b0b63632b960391b6044820152606401610644565b6001600160a01b03838116600081815260056020908152604080832094871680845294825291829020805460ff191686151590811790915591519182527f17307eab39ab6107e8899845ad3d59bd9653f200f220920489ca2b5937696c31910160405180910390a3505050565b611298848484610f0f565b6112a484848484611361565b610c6b5760405162461bcd60e51b815260040161064490611ce2565b6000908152600260205260409020546001600160a01b0316151590565b6060600c805461052590611bff565b60006001600160e01b031982166380ac58cd60e01b148061131d57506001600160e01b03198216635b5e139f60e01b145b8061051057506301ffc9a760e01b6001600160e01b0319831614610510565b6106f7838383611475565b610a0e82826040518060200160405280600081525061152d565b60006001600160a01b0384163b1561146a57836001600160a01b031663150b7a0261138a610e38565b8786866040518563ffffffff1660e01b81526004016113ac9493929190611d34565b602060405180830381600087803b1580156113c657600080fd5b505af19250505080156113f6575060408051601f3d908101601f191682019092526113f391810190611d71565b60015b611450573d808015611424576040519150601f19603f3d011682016040523d82523d6000602084013e611429565b606091505b5080516114485760405162461bcd60e51b815260040161064490611ce2565b805181602001fd5b6001600160e01b031916630a85bd0160e11b149050610f07565b506001949350505050565b6001600160a01b0383166114d0576114cb81600880546000838152600960205260408120829055600182018355919091527ff3f7a9fe364faab93b216da50a3214154f22a0a2b415b23a84c8169e8b636ee30155565b6114f3565b816001600160a01b0316836001600160a01b0316146114f3576114f38382611560565b6001600160a01b03821661150a576106f7816115fd565b826001600160a01b0316826001600160a01b0316146106f7576106f782826116ac565b61153783836116f0565b6115446000848484611361565b6106f75760405162461bcd60e51b815260040161064490611ce2565b6000600161156d84610b07565b6115779190611cb3565b6000838152600760205260409020549091508082146115ca576001600160a01b03841660009081526006602090815260408083208584528252808320548484528184208190558352600790915290208190555b5060009182526007602090815260408084208490556001600160a01b039094168352600681528383209183525290812055565b60085460009061160f90600190611cb3565b6000838152600960205260408120546008805493945090928490811061163757611637611c3a565b90600052602060002001549050806008838154811061165857611658611c3a565b600091825260208083209091019290925582815260099091526040808220849055858252812055600880548061169057611690611d8e565b6001900381819060005260206000200160009055905550505050565b60006116b783610b07565b6001600160a01b039093166000908152600660209081526040808320868452825280832085905593825260079052919091209190915550565b6001600160a01b0382166117465760405162461bcd60e51b815260206004820181905260248201527f4552433732313a206d696e7420746f20746865207a65726f20616464726573736044820152606401610644565b61174f816112c0565b1561179b5760405162461bcd60e51b815260206004820152601c60248201527b115490cdcc8c4e881d1bdad95b88185b1c9958591e481b5a5b9d195960221b6044820152606401610644565b6117a76000838361133c565b6001600160a01b03821660009081526003602052604081208054600192906117d0908490611cca565b909155505060008181526002602052604080822080546001600160a01b0319166001600160a01b0386169081179091559051839290600080516020611da5833981519152908290a45050565b82805461182890611bff565b90600052602060002090601f01602090048101928261184a5760008555611890565b82601f1061186357805160ff1916838001178555611890565b82800160010185558215611890579182015b82811115611890578251825591602001919060010190611875565b5061189c9291506118a0565b5090565b5b8082111561189c57600081556001016118a1565b6001600160e01b03198116811461089257600080fd5b6000602082840312156118dd57600080fd5b8135610cf7816118b5565b6000815180845260005b8181101561190e576020818501810151868301820152016118f2565b81811115611920576000602083870101525b50601f01601f19169290920160200192915050565b602081526000610cf760208301846118e8565b60006020828403121561195a57600080fd5b5035919050565b80356001600160a01b038116811461197857600080fd5b919050565b6000806040838503121561199057600080fd5b61199983611961565b946020939093013593505050565b6000602082840312156119b957600080fd5b610cf782611961565b6000806000606084860312156119d757600080fd5b6119e084611961565b92506119ee60208501611961565b9150604084013590509250925092565b6020808252825182820181905260009190848201906040850190845b81811015611a3657835183529284019291840191600101611a1a565b50909695505050505050565b634e487b7160e01b600052604160045260246000fd5b60006001600160401b0380841115611a7257611a72611a42565b604051601f8501601f19908116603f01168101908282118183101715611a9a57611a9a611a42565b81604052809350858152868686011115611ab357600080fd5b858560208301376000602087830101525050509392505050565b600060208284031215611adf57600080fd5b81356001600160401b03811115611af557600080fd5b8201601f81018413611b0657600080fd5b610f0784823560208401611a58565b60008060408385031215611b2857600080fd5b611b3183611961565b915060208301358015158114611b4657600080fd5b809150509250929050565b60008060008060808587031215611b6757600080fd5b611b7085611961565b9350611b7e60208601611961565b92506040850135915060608501356001600160401b03811115611ba057600080fd5b8501601f81018713611bb157600080fd5b611bc087823560208401611a58565b91505092959194509250565b60008060408385031215611bdf57600080fd5b611be883611961565b9150611bf660208401611961565b90509250929050565b600181811c90821680611c1357607f821691505b60208210811415611c3457634e487b7160e01b600052602260045260246000fd5b50919050565b634e487b7160e01b600052603260045260246000fd5b634e487b7160e01b600052601160045260246000fd5b6000600019821415611c7a57611c7a611c50565b5060010190565b602080825260189082015277115490cdcc8c4e881a5b9d985b1a59081d1bdad95b88125160421b604082015260600190565b600082821015611cc557611cc5611c50565b500390565b60008219821115611cdd57611cdd611c50565b500190565b60208082526032908201527f4552433732313a207472616e7366657220746f206e6f6e20455243373231526560408201527131b2b4bb32b91034b6b83632b6b2b73a32b960711b606082015260800190565b6001600160a01b0385811682528416602082015260408101839052608060608201819052600090611d67908301846118e8565b9695505050505050565b600060208284031215611d8357600080fd5b8151610cf7816118b5565b634e487b7160e01b600052603160045260246000fdfeddf252ad1be2c89b69c2b068fc378daa952ba7f163c4a11628f55a4df523b3efa2646970667358221220248a807abeaff07945548150de54a3cbb74bb3d719500f8983037b699523be8b64736f6c63430008090033",
  "linkReferences": {},
  "deployedLinkReferences": {}
}