{
  "_format": "hh-sol-artifact-1",
  "contractName": "ERC721AWithERC2309Mock",
  "sourceName": "contracts/nftERC721A/mocks/ERC721AWithERC2309Mock.sol",
  "abi": [
    {
      "inputs": [
        {
          "internalType": "string",
          "name": "name_",
          "type": "string"
        },
        {
          "internalType": "string",
          "name": "symbol_",
          "type": "string"
        },
        {
          "internalType": "address",
          "name": "to",
          "type": "address"
        },
        {
          "internalType": "uint256",
          "name": "quantity",
          "type": "uint256"
        },
        {
          "internalType": "bool",
          "name": "mintInConstructor",
          "type": "bool"
        }
      ],
      "stateMutability": "nonpayable",
      "type": "constructor"
    },
    {
      "inputs": [],
      "name": "ApprovalCallerNotOwnerNorApproved",
      "type": "error"
    },
    {
      "inputs": [],
      "name": "ApprovalQueryForNonexistentToken",
      "type": "error"
    },
    {
      "inputs": [],
      "name": "ApproveToCaller",
      "type": "error"
    },
    {
      "inputs": [],
      "name": "BalanceQueryForZeroAddress",
      "type": "error"
    },
    {
      "inputs": [],
      "name": "MintERC2309QuantityExceedsLimit",
      "type": "error"
    },
    {
      "inputs": [],
      "name": "MintToZeroAddress",
      "type": "error"
    },
    {
      "inputs": [],
      "name": "MintZeroQuantity",
      "type": "error"
    },
    {
      "inputs": [],
      "name": "OwnerQueryForNonexistentToken",
      "type": "error"
    },
    {
      "inputs": [],
      "name": "OwnershipNotInitializedForExtraData",
      "type": "error"
    },
    {
      "inputs": [],
      "name": "TransferCallerNotOwnerNorApproved",
      "type": "error"
    },
    {
      "inputs": [],
      "name": "TransferFromIncorrectOwner",
      "type": "error"
    },
    {
      "inputs": [],
      "name": "TransferToNonERC721ReceiverImplementer",
      "type": "error"
    },
    {
      "inputs": [],
      "name": "TransferToZeroAddress",
      "type": "error"
    },
    {
      "inputs": [],
      "name": "URIQueryForNonexistentToken",
      "type": "error"
    },
    {
      "anonymous": false,
      "inputs": [
        {
          "indexed": true,
          "internalType": "address",
          "name": "owner",
          "type": "address"
        },
        {
          "indexed": true,
          "internalType": "address",
          "name": "approved",
          "type": "address"
        },
        {
          "indexed": true,
          "internalType": "uint256",
          "name": "tokenId",
          "type": "uint256"
        }
      ],
      "name": "Approval",
      "type": "event"
    },
    {
      "anonymous": false,
      "inputs": [
        {
          "indexed": true,
          "internalType": "address",
          "name": "owner",
          "type": "address"
        },
        {
          "indexed": true,
          "internalType": "address",
          "name": "operator",
          "type": "address"
        },
        {
          "indexed": false,
          "internalType": "bool",
          "name": "approved",
          "type": "bool"
        }
      ],
      "name": "ApprovalForAll",
      "type": "event"
    },
    {
      "anonymous": false,
      "inputs": [
        {
          "indexed": true,
          "internalType": "uint256",
          "name": "fromTokenId",
          "type": "uint256"
        },
        {
          "indexed": false,
          "internalType": "uint256",
          "name": "toTokenId",
          "type": "uint256"
        },
        {
          "indexed": true,
          "internalType": "address",
          "name": "from",
          "type": "address"
        },
        {
          "indexed": true,
          "internalType": "address",
          "name": "to",
          "type": "address"
        }
      ],
      "name": "ConsecutiveTransfer",
      "type": "event"
    },
    {
      "anonymous": false,
      "inputs": [
        {
          "indexed": true,
          "internalType": "address",
          "name": "from",
          "type": "address"
        },
        {
          "indexed": true,
          "internalType": "address",
          "name": "to",
          "type": "address"
        },
        {
          "indexed": true,
          "internalType": "uint256",
          "name": "tokenId",
          "type": "uint256"
        }
      ],
      "name": "Transfer",
      "type": "event"
    },
    {
      "inputs": [
        {
          "internalType": "address",
          "name": "to",
          "type": "address"
        },
        {
          "internalType": "uint256",
          "name": "tokenId",
          "type": "uint256"
        }
      ],
      "name": "approve",
      "outputs": [],
      "stateMutability": "nonpayable",
      "type": "function"
    },
    {
      "inputs": [
        {
          "internalType": "address",
          "name": "owner",
          "type": "address"
        }
      ],
      "name": "balanceOf",
      "outputs": [
        {
          "internalType": "uint256",
          "name": "",
          "type": "uint256"
        }
      ],
      "stateMutability": "view",
      "type": "function"
    },
    {
      "inputs": [
        {
          "internalType": "uint256",
          "name": "tokenId",
          "type": "uint256"
        }
      ],
      "name": "getApproved",
      "outputs": [
        {
          "internalType": "address",
          "name": "",
          "type": "address"
        }
      ],
      "stateMutability": "view",
      "type": "function"
    },
    {
      "inputs": [
        {
          "internalType": "address",
          "name": "owner",
          "type": "address"
        },
        {
          "internalType": "address",
          "name": "operator",
          "type": "address"
        }
      ],
      "name": "isApprovedForAll",
      "outputs": [
        {
          "internalType": "bool",
          "name": "",
          "type": "bool"
        }
      ],
      "stateMutability": "view",
      "type": "function"
    },
    {
      "inputs": [
        {
          "internalType": "address",
          "name": "to",
          "type": "address"
        }
      ],
      "name": "mintOneERC2309",
      "outputs": [],
      "stateMutability": "nonpayable",
      "type": "function"
    },
    {
      "inputs": [
        {
          "internalType": "address",
          "name": "to",
          "type": "address"
        }
      ],
      "name": "mintTenERC2309",
      "outputs": [],
      "stateMutability": "nonpayable",
      "type": "function"
    },
    {
      "inputs": [],
      "name": "name",
      "outputs": [
        {
          "internalType": "string",
          "name": "",
          "type": "string"
        }
      ],
      "stateMutability": "view",
      "type": "function"
    },
    {
      "inputs": [
        {
          "internalType": "uint256",
          "name": "tokenId",
          "type": "uint256"
        }
      ],
      "name": "ownerOf",
      "outputs": [
        {
          "internalType": "address",
          "name": "",
          "type": "address"
        }
      ],
      "stateMutability": "view",
      "type": "function"
    },
    {
      "inputs": [
        {
          "internalType": "address",
          "name": "from",
          "type": "address"
        },
        {
          "internalType": "address",
          "name": "to",
          "type": "address"
        },
        {
          "internalType": "uint256",
          "name": "tokenId",
          "type": "uint256"
        }
      ],
      "name": "safeTransferFrom",
      "outputs": [],
      "stateMutability": "nonpayable",
      "type": "function"
    },
    {
      "inputs": [
        {
          "internalType": "address",
          "name": "from",
          "type": "address"
        },
        {
          "internalType": "address",
          "name": "to",
          "type": "address"
        },
        {
          "internalType": "uint256",
          "name": "tokenId",
          "type": "uint256"
        },
        {
          "internalType": "bytes",
          "name": "_data",
          "type": "bytes"
        }
      ],
      "name": "safeTransferFrom",
      "outputs": [],
      "stateMutability": "nonpayable",
      "type": "function"
    },
    {
      "inputs": [
        {
          "internalType": "address",
          "name": "operator",
          "type": "address"
        },
        {
          "internalType": "bool",
          "name": "approved",
          "type": "bool"
        }
      ],
      "name": "setApprovalForAll",
      "outputs": [],
      "stateMutability": "nonpayable",
      "type": "function"
    },
    {
      "inputs": [
        {
          "internalType": "bytes4",
          "name": "interfaceId",
          "type": "bytes4"
        }
      ],
      "name": "supportsInterface",
      "outputs": [
        {
          "internalType": "bool",
          "name": "",
          "type": "bool"
        }
      ],
      "stateMutability": "view",
      "type": "function"
    },
    {
      "inputs": [],
      "name": "symbol",
      "outputs": [
        {
          "internalType": "string",
          "name": "",
          "type": "string"
        }
      ],
      "stateMutability": "view",
      "type": "function"
    },
    {
      "inputs": [
        {
          "internalType": "uint256",
          "name": "tokenId",
          "type": "uint256"
        }
      ],
      "name": "tokenURI",
      "outputs": [
        {
          "internalType": "string",
          "name": "",
          "type": "string"
        }
      ],
      "stateMutability": "view",
      "type": "function"
    },
    {
      "inputs": [],
      "name": "totalSupply",
      "outputs": [
        {
          "internalType": "uint256",
          "name": "",
          "type": "uint256"
        }
      ],
      "stateMutability": "view",
      "type": "function"
    },
    {
      "inputs": [
        {
          "internalType": "address",
          "name": "from",
          "type": "address"
        },
        {
          "internalType": "address",
          "name": "to",
          "type": "address"
        },
        {
          "internalType": "uint256",
          "name": "tokenId",
          "type": "uint256"
        }
      ],
      "name": "transferFrom",
      "outputs": [],
      "stateMutability": "nonpayable",
      "type": "function"
    }
  ],
  "bytecode": "0x60806040523480156200001157600080fd5b506040516200123e3803806200123e8339810160408190526200003491620002ec565b8451859085906200004d90600290602085019062000179565b5080516200006390600390602084019062000179565b5060008055505080156200007d576200007d838362000088565b5050505050620003da565b6000546001600160a01b038316620000b257604051622e076360e81b815260040160405180910390fd5b81620000d15760405163b562e8dd60e01b815260040160405180910390fd5b611388821115620000f557604051633db1f9af60e01b815260040160405180910390fd5b6001600160a01b03831660008181526005602090815260408083208054680100000000000000018802019055848352600482528083206001871460e11b4260a01b17851790558051600019868801018152905185927fdeaa91b6123d068f5821d0fb0678463d1a8a6079fe8af5de3ce5e896dcf9133d928290030190a40160005550565b82805462000187906200039d565b90600052602060002090601f016020900481019282620001ab5760008555620001f6565b82601f10620001c657805160ff1916838001178555620001f6565b82800160010185558215620001f6579182015b82811115620001f6578251825591602001919060010190620001d9565b506200020492915062000208565b5090565b5b8082111562000204576000815560010162000209565b634e487b7160e01b600052604160045260246000fd5b600082601f8301126200024757600080fd5b81516001600160401b03808211156200026457620002646200021f565b604051601f8301601f19908116603f011681019082821181831017156200028f576200028f6200021f565b81604052838152602092508683858801011115620002ac57600080fd5b600091505b83821015620002d05785820183015181830184015290820190620002b1565b83821115620002e25760008385830101525b9695505050505050565b600080600080600060a086880312156200030557600080fd5b85516001600160401b03808211156200031d57600080fd5b6200032b89838a0162000235565b965060208801519150808211156200034257600080fd5b50620003518882890162000235565b604088015190955090506001600160a01b03811681146200037157600080fd5b60608701516080880151919450925080151581146200038f57600080fd5b809150509295509295909350565b600181811c90821680620003b257607f821691505b60208210811415620003d457634e487b7160e01b600052602260045260246000fd5b50919050565b610e5480620003ea6000396000f3fe608060405234801561001057600080fd5b50600436106100d05760003560e01c806301ffc9a7146100d557806306fdde03146100fd578063081812fc14610112578063095ea7b31461013d57806318160ddd1461015257806323b872dd1461016857806342842e0e1461017b5780636352211e1461018e57806370a08231146101a157806394cfadd7146101b457806395d89b41146101c7578063a22cb465146101cf578063ad46468f146101e2578063b88d4fde146101f5578063c87b56dd14610208578063e985e9c51461021b575b600080fd5b6100e86100e3366004610abc565b610257565b60405190151581526020015b60405180910390f35b6101056102a9565b6040516100f49190610b31565b610125610120366004610b44565b61033b565b6040516001600160a01b0390911681526020016100f4565b61015061014b366004610b79565b61037f565b005b600154600054035b6040519081526020016100f4565b610150610176366004610ba3565b61041f565b610150610189366004610ba3565b6105b0565b61012561019c366004610b44565b6105d0565b61015a6101af366004610bdf565b6105db565b6101506101c2366004610bdf565b610629565b610105610637565b6101506101dd366004610bfa565b610646565b6101506101f0366004610bdf565b6106dc565b610150610203366004610c4c565b6106e7565b610105610216366004610b44565b610731565b6100e8610229366004610d27565b6001600160a01b03918216600090815260076020908152604080832093909416825291909152205460ff1690565b60006301ffc9a760e01b6001600160e01b03198316148061028857506380ac58cd60e01b6001600160e01b03198316145b806102a35750635b5e139f60e01b6001600160e01b03198316145b92915050565b6060600280546102b890610d5a565b80601f01602080910402602001604051908101604052809291908181526020018280546102e490610d5a565b80156103315780601f1061030657610100808354040283529160200191610331565b820191906000526020600020905b81548152906001019060200180831161031457829003601f168201915b5050505050905090565b6000610346826107c3565b610363576040516333d1c03960e21b815260040160405180910390fd5b506000908152600660205260409020546001600160a01b031690565b600061038a826105d0565b9050336001600160a01b038216146103c3576103a68133610229565b6103c3576040516367d9dca160e11b815260040160405180910390fd5b60008281526006602052604080822080546001600160a01b0319166001600160a01b0387811691821790925591518593918516917f8c5be1e5ebec7d5bd14f71427d1e84f3dd0314c0f7b2291e5b200ac8c7c3b92591a4505050565b600061042a826107ea565b9050836001600160a01b0316816001600160a01b03161461045d5760405162a1148160e81b815260040160405180910390fd5b60008281526006602052604090208054338082146001600160a01b038816909114176104aa5761048d8633610229565b6104aa57604051632ce44b5f60e11b815260040160405180910390fd5b6001600160a01b0385166104d157604051633a954ecd60e21b815260040160405180910390fd5b80156104dc57600082555b6001600160a01b0386811660009081526005602052604080822080546000190190559187168152208054600101905561051985600160e11b61084b565b600085815260046020526040902055600160e11b831661056757600184016000818152600460205260409020546105655760005481146105655760008181526004602052604090208490555b505b83856001600160a01b0316876001600160a01b03167fddf252ad1be2c89b69c2b068fc378daa952ba7f163c4a11628f55a4df523b3ef60405160405180910390a4505050505050565b6105cb838383604051806020016040528060008152506106e7565b505050565b60006102a3826107ea565b60006001600160a01b038216610604576040516323d3ad8160e21b815260040160405180910390fd5b506001600160a01b03166000908152600560205260409020546001600160401b031690565b610634816001610860565b50565b6060600380546102b890610d5a565b6001600160a01b0382163314156106705760405163b06307db60e01b815260040160405180910390fd5b3360008181526007602090815260408083206001600160a01b03871680855290835292819020805460ff191686151590811790915590519081529192917f17307eab39ab6107e8899845ad3d59bd9653f200f220920489ca2b5937696c31910160405180910390a35050565b61063481600a610860565b6106f284848461041f565b6001600160a01b0383163b1561072b5761070e84848484610960565b61072b576040516368d2bf6b60e11b815260040160405180910390fd5b50505050565b606061073c826107c3565b61075957604051630a14c4b560e41b815260040160405180910390fd5b600061077060408051602081019091526000815290565b905080516000141561079157604051806020016040528060008152506107bc565b8061079b84610a57565b6040516020016107ac929190610d95565b6040516020818303038152906040525b9392505050565b60008054821080156102a3575050600090815260046020526040902054600160e01b161590565b60008160005481101561083257600081815260046020526040902054600160e01b8116610830575b806107bc575060001901600081815260046020526040902054610812565b505b604051636f96cda160e11b815260040160405180910390fd5b4260a01b176001600160a01b03919091161790565b6000546001600160a01b03831661088957604051622e076360e81b815260040160405180910390fd5b816108a75760405163b562e8dd60e01b815260040160405180910390fd5b6113888211156108ca57604051633db1f9af60e01b815260040160405180910390fd5b6001600160a01b038316600090815260056020526040902080546001600160401b018402019055610901836001841460e11b61084b565b60008281526004602090815260408083209390935591518484016000190181526001600160a01b0386169284917fdeaa91b6123d068f5821d0fb0678463d1a8a6079fe8af5de3ce5e896dcf9133d910160405180910390a40160005550565b604051630a85bd0160e11b81526000906001600160a01b0385169063150b7a0290610995903390899088908890600401610dc4565b602060405180830381600087803b1580156109af57600080fd5b505af19250505080156109df575060408051601f3d908101601f191682019092526109dc91810190610e01565b60015b610a3a573d808015610a0d576040519150601f19603f3d011682016040523d82523d6000602084013e610a12565b606091505b508051610a32576040516368d2bf6b60e11b815260040160405180910390fd5b805181602001fd5b6001600160e01b031916630a85bd0160e11b149050949350505050565b604080516080810191829052607f0190826030600a8206018353600a90045b8015610a9457600183039250600a81066030018353600a9004610a76565b50819003601f19909101908152919050565b6001600160e01b03198116811461063457600080fd5b600060208284031215610ace57600080fd5b81356107bc81610aa6565b60005b83811015610af4578181015183820152602001610adc565b8381111561072b5750506000910152565b60008151808452610b1d816020860160208601610ad9565b601f01601f19169290920160200192915050565b6020815260006107bc6020830184610b05565b600060208284031215610b5657600080fd5b5035919050565b80356001600160a01b0381168114610b7457600080fd5b919050565b60008060408385031215610b8c57600080fd5b610b9583610b5d565b946020939093013593505050565b600080600060608486031215610bb857600080fd5b610bc184610b5d565b9250610bcf60208501610b5d565b9150604084013590509250925092565b600060208284031215610bf157600080fd5b6107bc82610b5d565b60008060408385031215610c0d57600080fd5b610c1683610b5d565b915060208301358015158114610c2b57600080fd5b809150509250929050565b634e487b7160e01b600052604160045260246000fd5b60008060008060808587031215610c6257600080fd5b610c6b85610b5d565b9350610c7960208601610b5d565b92506040850135915060608501356001600160401b0380821115610c9c57600080fd5b818701915087601f830112610cb057600080fd5b813581811115610cc257610cc2610c36565b604051601f8201601f19908116603f01168101908382118183101715610cea57610cea610c36565b816040528281528a6020848701011115610d0357600080fd5b82602086016020830137600060208483010152809550505050505092959194509250565b60008060408385031215610d3a57600080fd5b610d4383610b5d565b9150610d5160208401610b5d565b90509250929050565b600181811c90821680610d6e57607f821691505b60208210811415610d8f57634e487b7160e01b600052602260045260246000fd5b50919050565b60008351610da7818460208801610ad9565b835190830190610dbb818360208801610ad9565b01949350505050565b6001600160a01b0385811682528416602082015260408101839052608060608201819052600090610df790830184610b05565b9695505050505050565b600060208284031215610e1357600080fd5b81516107bc81610aa656fea2646970667358221220ea7ed2c35222b08dfda419662c65e222d354440251b3158a885287b198edf29064736f6c63430008090033",
  "linkReferences": {},
  "deployedLinkReferences": {}
}