{
  "_format": "hh-sol-artifact-1",
  "contractName": "ERC721ATransferCounterMock",
  "sourceName": "contracts/nftERC721A/mocks/ERC721ATransferCounterMock.sol",
  "abi": [
    {
      "inputs": [
        {
          "internalType": "string",
          "name": "name_",
          "type": "string"
        },
        {
          "internalType": "string",
          "name": "symbol_",
          "type": "string"
        }
      ],
      "stateMutability": "nonpayable",
      "type": "constructor"
    },
    {
      "inputs": [],
      "name": "ApprovalCallerNotOwnerNorApproved",
      "type": "error"
    },
    {
      "inputs": [],
      "name": "ApprovalQueryForNonexistentToken",
      "type": "error"
    },
    {
      "inputs": [],
      "name": "ApproveToCaller",
      "type": "error"
    },
    {
      "inputs": [],
      "name": "BalanceQueryForZeroAddress",
      "type": "error"
    },
    {
      "inputs": [],
      "name": "MintERC2309QuantityExceedsLimit",
      "type": "error"
    },
    {
      "inputs": [],
      "name": "MintToZeroAddress",
      "type": "error"
    },
    {
      "inputs": [],
      "name": "MintZeroQuantity",
      "type": "error"
    },
    {
      "inputs": [],
      "name": "OwnerQueryForNonexistentToken",
      "type": "error"
    },
    {
      "inputs": [],
      "name": "OwnershipNotInitializedForExtraData",
      "type": "error"
    },
    {
      "inputs": [],
      "name": "TransferCallerNotOwnerNorApproved",
      "type": "error"
    },
    {
      "inputs": [],
      "name": "TransferFromIncorrectOwner",
      "type": "error"
    },
    {
      "inputs": [],
      "name": "TransferToNonERC721ReceiverImplementer",
      "type": "error"
    },
    {
      "inputs": [],
      "name": "TransferToZeroAddress",
      "type": "error"
    },
    {
      "inputs": [],
      "name": "URIQueryForNonexistentToken",
      "type": "error"
    },
    {
      "anonymous": false,
      "inputs": [
        {
          "indexed": true,
          "internalType": "address",
          "name": "owner",
          "type": "address"
        },
        {
          "indexed": true,
          "internalType": "address",
          "name": "approved",
          "type": "address"
        },
        {
          "indexed": true,
          "internalType": "uint256",
          "name": "tokenId",
          "type": "uint256"
        }
      ],
      "name": "Approval",
      "type": "event"
    },
    {
      "anonymous": false,
      "inputs": [
        {
          "indexed": true,
          "internalType": "address",
          "name": "owner",
          "type": "address"
        },
        {
          "indexed": true,
          "internalType": "address",
          "name": "operator",
          "type": "address"
        },
        {
          "indexed": false,
          "internalType": "bool",
          "name": "approved",
          "type": "bool"
        }
      ],
      "name": "ApprovalForAll",
      "type": "event"
    },
    {
      "anonymous": false,
      "inputs": [
        {
          "indexed": true,
          "internalType": "uint256",
          "name": "fromTokenId",
          "type": "uint256"
        },
        {
          "indexed": false,
          "internalType": "uint256",
          "name": "toTokenId",
          "type": "uint256"
        },
        {
          "indexed": true,
          "internalType": "address",
          "name": "from",
          "type": "address"
        },
        {
          "indexed": true,
          "internalType": "address",
          "name": "to",
          "type": "address"
        }
      ],
      "name": "ConsecutiveTransfer",
      "type": "event"
    },
    {
      "anonymous": false,
      "inputs": [
        {
          "indexed": true,
          "internalType": "address",
          "name": "from",
          "type": "address"
        },
        {
          "indexed": true,
          "internalType": "address",
          "name": "to",
          "type": "address"
        },
        {
          "indexed": true,
          "internalType": "uint256",
          "name": "tokenId",
          "type": "uint256"
        }
      ],
      "name": "Transfer",
      "type": "event"
    },
    {
      "inputs": [
        {
          "internalType": "address",
          "name": "to",
          "type": "address"
        },
        {
          "internalType": "uint256",
          "name": "tokenId",
          "type": "uint256"
        }
      ],
      "name": "approve",
      "outputs": [],
      "stateMutability": "nonpayable",
      "type": "function"
    },
    {
      "inputs": [
        {
          "internalType": "address",
          "name": "owner",
          "type": "address"
        }
      ],
      "name": "balanceOf",
      "outputs": [
        {
          "internalType": "uint256",
          "name": "",
          "type": "uint256"
        }
      ],
      "stateMutability": "view",
      "type": "function"
    },
    {
      "inputs": [],
      "name": "baseURI",
      "outputs": [
        {
          "internalType": "string",
          "name": "",
          "type": "string"
        }
      ],
      "stateMutability": "view",
      "type": "function"
    },
    {
      "inputs": [
        {
          "internalType": "uint256",
          "name": "tokenId",
          "type": "uint256"
        }
      ],
      "name": "burn",
      "outputs": [],
      "stateMutability": "nonpayable",
      "type": "function"
    },
    {
      "inputs": [
        {
          "internalType": "uint256",
          "name": "tokenId",
          "type": "uint256"
        },
        {
          "internalType": "bool",
          "name": "approvalCheck",
          "type": "bool"
        }
      ],
      "name": "burn",
      "outputs": [],
      "stateMutability": "nonpayable",
      "type": "function"
    },
    {
      "inputs": [
        {
          "internalType": "uint256",
          "name": "tokenId",
          "type": "uint256"
        }
      ],
      "name": "exists",
      "outputs": [
        {
          "internalType": "bool",
          "name": "",
          "type": "bool"
        }
      ],
      "stateMutability": "view",
      "type": "function"
    },
    {
      "inputs": [
        {
          "internalType": "uint256",
          "name": "tokenId",
          "type": "uint256"
        }
      ],
      "name": "getApproved",
      "outputs": [
        {
          "internalType": "address",
          "name": "",
          "type": "address"
        }
      ],
      "stateMutability": "view",
      "type": "function"
    },
    {
      "inputs": [
        {
          "internalType": "address",
          "name": "owner",
          "type": "address"
        }
      ],
      "name": "getAux",
      "outputs": [
        {
          "internalType": "uint64",
          "name": "",
          "type": "uint64"
        }
      ],
      "stateMutability": "view",
      "type": "function"
    },
    {
      "inputs": [
        {
          "internalType": "uint256",
          "name": "index",
          "type": "uint256"
        }
      ],
      "name": "getOwnershipAt",
      "outputs": [
        {
          "components": [
            {
              "internalType": "address",
              "name": "addr",
              "type": "address"
            },
            {
              "internalType": "uint64",
              "name": "startTimestamp",
              "type": "uint64"
            },
            {
              "internalType": "bool",
              "name": "burned",
              "type": "bool"
            },
            {
              "internalType": "uint24",
              "name": "extraData",
              "type": "uint24"
            }
          ],
          "internalType": "struct IERC721A.TokenOwnership",
          "name": "",
          "type": "tuple"
        }
      ],
      "stateMutability": "view",
      "type": "function"
    },
    {
      "inputs": [
        {
          "internalType": "uint256",
          "name": "index",
          "type": "uint256"
        }
      ],
      "name": "getOwnershipOf",
      "outputs": [
        {
          "components": [
            {
              "internalType": "address",
              "name": "addr",
              "type": "address"
            },
            {
              "internalType": "uint64",
              "name": "startTimestamp",
              "type": "uint64"
            },
            {
              "internalType": "bool",
              "name": "burned",
              "type": "bool"
            },
            {
              "internalType": "uint24",
              "name": "extraData",
              "type": "uint24"
            }
          ],
          "internalType": "struct IERC721A.TokenOwnership",
          "name": "",
          "type": "tuple"
        }
      ],
      "stateMutability": "view",
      "type": "function"
    },
    {
      "inputs": [
        {
          "internalType": "uint256",
          "name": "index",
          "type": "uint256"
        }
      ],
      "name": "initializeOwnershipAt",
      "outputs": [],
      "stateMutability": "nonpayable",
      "type": "function"
    },
    {
      "inputs": [
        {
          "internalType": "address",
          "name": "owner",
          "type": "address"
        },
        {
          "internalType": "address",
          "name": "operator",
          "type": "address"
        }
      ],
      "name": "isApprovedForAll",
      "outputs": [
        {
          "internalType": "bool",
          "name": "",
          "type": "bool"
        }
      ],
      "stateMutability": "view",
      "type": "function"
    },
    {
      "inputs": [
        {
          "internalType": "address",
          "name": "to",
          "type": "address"
        },
        {
          "internalType": "uint256",
          "name": "quantity",
          "type": "uint256"
        }
      ],
      "name": "mint",
      "outputs": [],
      "stateMutability": "nonpayable",
      "type": "function"
    },
    {
      "inputs": [],
      "name": "name",
      "outputs": [
        {
          "internalType": "string",
          "name": "",
          "type": "string"
        }
      ],
      "stateMutability": "view",
      "type": "function"
    },
    {
      "inputs": [],
      "name": "nextTokenId",
      "outputs": [
        {
          "internalType": "uint256",
          "name": "",
          "type": "uint256"
        }
      ],
      "stateMutability": "view",
      "type": "function"
    },
    {
      "inputs": [
        {
          "internalType": "address",
          "name": "owner",
          "type": "address"
        }
      ],
      "name": "numberMinted",
      "outputs": [
        {
          "internalType": "uint256",
          "name": "",
          "type": "uint256"
        }
      ],
      "stateMutability": "view",
      "type": "function"
    },
    {
      "inputs": [
        {
          "internalType": "uint256",
          "name": "tokenId",
          "type": "uint256"
        }
      ],
      "name": "ownerOf",
      "outputs": [
        {
          "internalType": "address",
          "name": "",
          "type": "address"
        }
      ],
      "stateMutability": "view",
      "type": "function"
    },
    {
      "inputs": [
        {
          "internalType": "address",
          "name": "to",
          "type": "address"
        },
        {
          "internalType": "uint256",
          "name": "quantity",
          "type": "uint256"
        },
        {
          "internalType": "bytes",
          "name": "_data",
          "type": "bytes"
        }
      ],
      "name": "safeMint",
      "outputs": [],
      "stateMutability": "nonpayable",
      "type": "function"
    },
    {
      "inputs": [
        {
          "internalType": "address",
          "name": "to",
          "type": "address"
        },
        {
          "internalType": "uint256",
          "name": "quantity",
          "type": "uint256"
        }
      ],
      "name": "safeMint",
      "outputs": [],
      "stateMutability": "nonpayable",
      "type": "function"
    },
    {
      "inputs": [
        {
          "internalType": "address",
          "name": "from",
          "type": "address"
        },
        {
          "internalType": "address",
          "name": "to",
          "type": "address"
        },
        {
          "internalType": "uint256",
          "name": "tokenId",
          "type": "uint256"
        }
      ],
      "name": "safeTransferFrom",
      "outputs": [],
      "stateMutability": "nonpayable",
      "type": "function"
    },
    {
      "inputs": [
        {
          "internalType": "address",
          "name": "from",
          "type": "address"
        },
        {
          "internalType": "address",
          "name": "to",
          "type": "address"
        },
        {
          "internalType": "uint256",
          "name": "tokenId",
          "type": "uint256"
        },
        {
          "internalType": "bytes",
          "name": "_data",
          "type": "bytes"
        }
      ],
      "name": "safeTransferFrom",
      "outputs": [],
      "stateMutability": "nonpayable",
      "type": "function"
    },
    {
      "inputs": [
        {
          "internalType": "address",
          "name": "operator",
          "type": "address"
        },
        {
          "internalType": "bool",
          "name": "approved",
          "type": "bool"
        }
      ],
      "name": "setApprovalForAll",
      "outputs": [],
      "stateMutability": "nonpayable",
      "type": "function"
    },
    {
      "inputs": [
        {
          "internalType": "address",
          "name": "owner",
          "type": "address"
        },
        {
          "internalType": "uint64",
          "name": "aux",
          "type": "uint64"
        }
      ],
      "name": "setAux",
      "outputs": [],
      "stateMutability": "nonpayable",
      "type": "function"
    },
    {
      "inputs": [
        {
          "internalType": "uint256",
          "name": "index",
          "type": "uint256"
        },
        {
          "internalType": "uint24",
          "name": "extraData",
          "type": "uint24"
        }
      ],
      "name": "setExtraDataAt",
      "outputs": [],
      "stateMutability": "nonpayable",
      "type": "function"
    },
    {
      "inputs": [
        {
          "internalType": "bytes4",
          "name": "interfaceId",
          "type": "bytes4"
        }
      ],
      "name": "supportsInterface",
      "outputs": [
        {
          "internalType": "bool",
          "name": "",
          "type": "bool"
        }
      ],
      "stateMutability": "view",
      "type": "function"
    },
    {
      "inputs": [],
      "name": "symbol",
      "outputs": [
        {
          "internalType": "string",
          "name": "",
          "type": "string"
        }
      ],
      "stateMutability": "view",
      "type": "function"
    },
    {
      "inputs": [
        {
          "internalType": "uint256",
          "name": "x",
          "type": "uint256"
        }
      ],
      "name": "toString",
      "outputs": [
        {
          "internalType": "string",
          "name": "",
          "type": "string"
        }
      ],
      "stateMutability": "pure",
      "type": "function"
    },
    {
      "inputs": [
        {
          "internalType": "uint256",
          "name": "tokenId",
          "type": "uint256"
        }
      ],
      "name": "tokenURI",
      "outputs": [
        {
          "internalType": "string",
          "name": "",
          "type": "string"
        }
      ],
      "stateMutability": "view",
      "type": "function"
    },
    {
      "inputs": [],
      "name": "totalBurned",
      "outputs": [
        {
          "internalType": "uint256",
          "name": "",
          "type": "uint256"
        }
      ],
      "stateMutability": "view",
      "type": "function"
    },
    {
      "inputs": [],
      "name": "totalMinted",
      "outputs": [
        {
          "internalType": "uint256",
          "name": "",
          "type": "uint256"
        }
      ],
      "stateMutability": "view",
      "type": "function"
    },
    {
      "inputs": [],
      "name": "totalSupply",
      "outputs": [
        {
          "internalType": "uint256",
          "name": "",
          "type": "uint256"
        }
      ],
      "stateMutability": "view",
      "type": "function"
    },
    {
      "inputs": [
        {
          "internalType": "address",
          "name": "from",
          "type": "address"
        },
        {
          "internalType": "address",
          "name": "to",
          "type": "address"
        },
        {
          "internalType": "uint256",
          "name": "tokenId",
          "type": "uint256"
        }
      ],
      "name": "transferFrom",
      "outputs": [],
      "stateMutability": "nonpayable",
      "type": "function"
    }
  ],
  "bytecode": "0x60806040523480156200001157600080fd5b506040516200188c3803806200188c8339810160408190526200003491620001eb565b8181818181600290805190602001906200005092919062000078565b5080516200006690600390602084019062000078565b50600080555062000292945050505050565b828054620000869062000255565b90600052602060002090601f016020900481019282620000aa5760008555620000f5565b82601f10620000c557805160ff1916838001178555620000f5565b82800160010185558215620000f5579182015b82811115620000f5578251825591602001919060010190620000d8565b506200010392915062000107565b5090565b5b8082111562000103576000815560010162000108565b634e487b7160e01b600052604160045260246000fd5b600082601f8301126200014657600080fd5b81516001600160401b03808211156200016357620001636200011e565b604051601f8301601f19908116603f011681019082821181831017156200018e576200018e6200011e565b81604052838152602092508683858801011115620001ab57600080fd5b600091505b83821015620001cf5785820183015181830184015290820190620001b0565b83821115620001e15760008385830101525b9695505050505050565b60008060408385031215620001ff57600080fd5b82516001600160401b03808211156200021757600080fd5b620002258683870162000134565b935060208501519150808211156200023c57600080fd5b506200024b8582860162000134565b9150509250929050565b600181811c908216806200026a57607f821691505b602082108114156200028c57634e487b7160e01b600052602260045260246000fd5b50919050565b6115ea80620002a26000396000f3fe608060405234801561001057600080fd5b50600436106101805760003560e01c806301ffc9a71461018557806306fdde03146101ad578063081812fc146101c2578063095ea7b3146101ed5780630a70b5661461020257806318160ddd1461021557806323b872dd1461022b57806340c10f191461023e57806342842e0e1461025157806342966c6814610264578063453ab141146102775780634f558e79146102b657806352d8a4d1146102c957806353b1233d146103285780636352211e1461033b5780636900a3ae1461034e5780636c0360eb1461036157806370a082311461036957806375794a3c1461037c5780638832e6e31461038457806395d89b41146103975780639fac68cb1461039f578063a1448194146103b2578063a22cb465146103c5578063a2309ff81461037c578063b88d4fde146103d8578063bf0b175e146103eb578063c87b56dd14610416578063d89135cd14610429578063dc33e68114610431578063e985e9c514610444578063f252363314610480575b600080fd5b610198610193366004611107565b610493565b60405190151581526020015b60405180910390f35b6101b56104e5565b6040516101a4919061117c565b6101d56101d036600461118f565b610577565b6040516001600160a01b0390911681526020016101a4565b6102006101fb3660046111c4565b6105bb565b005b6102006102103660046111ee565b61065b565b600154600054035b6040519081526020016101a4565b610200610239366004611226565b610669565b61020061024c3660046111c4565b6107fe565b61020061025f366004611226565b610808565b61020061027236600461118f565b610828565b610200610285366004611262565b6001600160a01b0382166000908152600560205260409020805460c083901b6001600160c01b039091161790555050565b6101986102c436600461118f565b610834565b6102dc6102d736600461118f565b61083f565b6040516101a4919081516001600160a01b031681526020808301516001600160401b03169082015260408083015115159082015260609182015162ffffff169181019190915260800190565b61020061033636600461118f565b610850565b6101d561034936600461118f565b610859565b6101b561035c36600461118f565b610864565b6101b561086f565b61021d61037736600461129a565b61088b565b60005461021d565b610200610392366004611357565b6108d9565b6101b56108e4565b6102006103ad3660046113bd565b6108f3565b6102006103c03660046111c4565b6108fd565b6102006103d33660046113e9565b610907565b6102006103e6366004611413565b61099d565b6103fe6103f936600461129a565b6109e7565b6040516001600160401b0390911681526020016101a4565b6101b561042436600461118f565b610a08565b61021d610a9a565b61021d61043f36600461129a565b610aa5565b61019861045236600461147a565b6001600160a01b03918216600090815260076020908152604080832093909416825291909152205460ff1690565b6102dc61048e36600461118f565b610acf565b60006301ffc9a760e01b6001600160e01b0319831614806104c457506380ac58cd60e01b6001600160e01b03198316145b806104df5750635b5e139f60e01b6001600160e01b03198316145b92915050565b6060600280546104f4906114a4565b80601f0160208091040260200160405190810160405280929190818152602001828054610520906114a4565b801561056d5780601f106105425761010080835404028352916020019161056d565b820191906000526020600020905b81548152906001019060200180831161055057829003601f168201915b5050505050905090565b600061058282610ae0565b61059f576040516333d1c03960e21b815260040160405180910390fd5b506000908152600660205260409020546001600160a01b031690565b60006105c682610859565b9050336001600160a01b038216146105ff576105e28133610452565b6105ff576040516367d9dca160e11b815260040160405180910390fd5b60008281526006602052604080822080546001600160a01b0319166001600160a01b0387811691821790925591518593918516917f8c5be1e5ebec7d5bd14f71427d1e84f3dd0314c0f7b2291e5b200ac8c7c3b92591a4505050565b6106658282610b07565b5050565b600061067482610b59565b9050836001600160a01b0316816001600160a01b0316146106a75760405162a1148160e81b815260040160405180910390fd5b600082815260066020526040902080546106d38187335b6001600160a01b039081169116811491141790565b6106fe576106e18633610452565b6106fe57604051632ce44b5f60e11b815260040160405180910390fd5b6001600160a01b03851661072557604051633a954ecd60e21b815260040160405180910390fd5b801561073057600082555b6001600160a01b038087166000908152600560205260408082208054600019019055918716815220805460010190556107798561076e888287610bba565b600160e11b17610bdd565b600085815260046020526040902055600160e11b83166107c757600184016000818152600460205260409020546107c55760005481146107c55760008181526004602052604090208490555b505b83856001600160a01b0316876001600160a01b031660008051602061159583398151915260405160405180910390a4505050505050565b6106658282610bf2565b6108238383836040518060200160405280600081525061099d565b505050565b61083181610ccc565b50565b60006104df82610ae0565b6108476110ca565b6104df82610cd7565b61083181610cf0565b60006104df82610b59565b60606104df82610d1e565b606061088660408051602081019091526000815290565b905090565b60006001600160a01b0382166108b4576040516323d3ad8160e21b815260040160405180910390fd5b506001600160a01b03166000908152600560205260409020546001600160401b031690565b610823838383610d6d565b6060600380546104f4906114a4565b6106658282610dda565b6106658282610f14565b6001600160a01b0382163314156109315760405163b06307db60e01b815260040160405180910390fd5b3360008181526007602090815260408083206001600160a01b03871680855290835292819020805460ff191686151590811790915590519081529192917f17307eab39ab6107e8899845ad3d59bd9653f200f220920489ca2b5937696c31910160405180910390a35050565b6109a8848484610669565b6001600160a01b0383163b156109e1576109c484848484610f2e565b6109e1576040516368d2bf6b60e11b815260040160405180910390fd5b50505050565b6001600160a01b03811660009081526005602052604081205460c01c6104df565b6060610a1382610ae0565b610a3057604051630a14c4b560e41b815260040160405180910390fd5b6000610a4760408051602081019091526000815290565b9050805160001415610a685760405180602001604052806000815250610a93565b80610a7284610d1e565b604051602001610a839291906114df565b6040516020818303038152906040525b9392505050565b600061088660015490565b6001600160a01b038116600090815260056020526040808220546001600160401b03911c166104df565b610ad76110ca565b6104df82611025565b60008054821080156104df575050600090815260046020526040902054600160e01b161590565b60008281526004602052604090205480610b335760405162d5815360e01b815260040160405180910390fd5b6000928352600460205260409092206001600160e81b039290921660e89190911b179055565b600081600054811015610ba157600081815260046020526040902054600160e01b8116610b9f575b80610a93575060001901600081815260046020526040902054610b81565b505b604051636f96cda160e11b815260040160405180910390fd5b600060e882811c90610bcd868684611045565b62ffffff16901b95945050505050565b4260a01b176001600160a01b03919091161790565b6000546001600160a01b038316610c1b57604051622e076360e81b815260040160405180910390fd5b81610c395760405163b562e8dd60e01b815260040160405180910390fd5b6001600160a01b038316600090815260056020526040812080546001600160401b018502019055610c7e908490610c71908281610bba565b6001851460e11b17610bdd565b600082815260046020526040902055808281015b6040516001830192906001600160a01b03871690600090600080516020611595833981519152908290a4808210610c925760005550505050565b610831816000610dda565b610cdf6110ca565b6104df610ceb83610b59565b611087565b60008181526004602052604090205461083157610d0c81610b59565b60008281526004602052604090205550565b604080516080810191829052607f0190826030600a8206018353600a90045b8015610d5b57600183039250600a81066030018353600a9004610d3d565b50819003601f19909101908152919050565b610d778383610bf2565b6001600160a01b0383163b15610823576000548281035b610da16000868380600101945086610f2e565b610dbe576040516368d2bf6b60e11b815260040160405180910390fd5b818110610d8e578160005414610dd357600080fd5b5050505050565b6000610de583610b59565b905080600080610e0386600090815260066020526040902080549091565b915091508415610e4357610e188184336106be565b610e4357610e268333610452565b610e4357604051632ce44b5f60e11b815260040160405180910390fd5b8015610e4e57600082555b6001600160a01b038316600090815260056020526040812080546001600160801b03019055610e90908490610e8590829088610bba565b600360e01b17610bdd565b600087815260046020526040902055600160e11b8416610ede5760018601600081815260046020526040902054610edc576000548114610edc5760008181526004602052604090208590555b505b60405186906000906001600160a01b03861690600080516020611595833981519152908390a45050600180548101905550505050565b610665828260405180602001604052806000815250610d6d565b604051630a85bd0160e11b81526000906001600160a01b0385169063150b7a0290610f6390339089908890889060040161150e565b602060405180830381600087803b158015610f7d57600080fd5b505af1925050508015610fad575060408051601f3d908101601f19168201909252610faa9181019061154b565b60015b611008573d808015610fdb576040519150601f19603f3d011682016040523d82523d6000602084013e610fe0565b606091505b508051611000576040516368d2bf6b60e11b815260040160405180910390fd5b805181602001fd5b6001600160e01b031916630a85bd0160e11b149050949350505050565b61102d6110ca565b6000828152600460205260409020546104df90611087565b60006001600160a01b03841661105d5750602a610a93565b6001600160a01b0383166110745750610539610a93565b61107f826001611568565b949350505050565b61108f6110ca565b6001600160a01b03821681526001600160401b0360a083901c166020820152600160e01b82161515604082015260e89190911c606082015290565b60408051608081018252600080825260208201819052918101829052606081019190915290565b6001600160e01b03198116811461083157600080fd5b60006020828403121561111957600080fd5b8135610a93816110f1565b60005b8381101561113f578181015183820152602001611127565b838111156109e15750506000910152565b60008151808452611168816020860160208601611124565b601f01601f19169290920160200192915050565b602081526000610a936020830184611150565b6000602082840312156111a157600080fd5b5035919050565b80356001600160a01b03811681146111bf57600080fd5b919050565b600080604083850312156111d757600080fd5b6111e0836111a8565b946020939093013593505050565b6000806040838503121561120157600080fd5b82359150602083013562ffffff8116811461121b57600080fd5b809150509250929050565b60008060006060848603121561123b57600080fd5b611244846111a8565b9250611252602085016111a8565b9150604084013590509250925092565b6000806040838503121561127557600080fd5b61127e836111a8565b915060208301356001600160401b038116811461121b57600080fd5b6000602082840312156112ac57600080fd5b610a93826111a8565b634e487b7160e01b600052604160045260246000fd5b600082601f8301126112dc57600080fd5b81356001600160401b03808211156112f6576112f66112b5565b604051601f8301601f19908116603f0116810190828211818310171561131e5761131e6112b5565b8160405283815286602085880101111561133757600080fd5b836020870160208301376000602085830101528094505050505092915050565b60008060006060848603121561136c57600080fd5b611375846111a8565b92506020840135915060408401356001600160401b0381111561139757600080fd5b6113a3868287016112cb565b9150509250925092565b803580151581146111bf57600080fd5b600080604083850312156113d057600080fd5b823591506113e0602084016113ad565b90509250929050565b600080604083850312156113fc57600080fd5b611405836111a8565b91506113e0602084016113ad565b6000806000806080858703121561142957600080fd5b611432856111a8565b9350611440602086016111a8565b92506040850135915060608501356001600160401b0381111561146257600080fd5b61146e878288016112cb565b91505092959194509250565b6000806040838503121561148d57600080fd5b611496836111a8565b91506113e0602084016111a8565b600181811c908216806114b857607f821691505b602082108114156114d957634e487b7160e01b600052602260045260246000fd5b50919050565b600083516114f1818460208801611124565b835190830190611505818360208801611124565b01949350505050565b6001600160a01b038581168252841660208201526040810183905260806060820181905260009061154190830184611150565b9695505050505050565b60006020828403121561155d57600080fd5b8151610a93816110f1565b600062ffffff80831681851680830382111561150557634e487b7160e01b600052601160045260246000fdfeddf252ad1be2c89b69c2b068fc378daa952ba7f163c4a11628f55a4df523b3efa2646970667358221220449cda3ed0fed86a28786821771fbf97e3d5ad135ff74141f1e468b37f1a947464736f6c63430008090033",
  "linkReferences": {},
  "deployedLinkReferences": {}
}