{
  "_format": "hh-sol-artifact-1",
  "contractName": "ERC721AMock",
  "sourceName": "contracts/nftERC721A/mocks/ERC721AMock.sol",
  "abi": [
    {
      "inputs": [
        {
          "internalType": "string",
          "name": "name_",
          "type": "string"
        },
        {
          "internalType": "string",
          "name": "symbol_",
          "type": "string"
        }
      ],
      "stateMutability": "nonpayable",
      "type": "constructor"
    },
    {
      "inputs": [],
      "name": "ApprovalCallerNotOwnerNorApproved",
      "type": "error"
    },
    {
      "inputs": [],
      "name": "ApprovalQueryForNonexistentToken",
      "type": "error"
    },
    {
      "inputs": [],
      "name": "ApproveToCaller",
      "type": "error"
    },
    {
      "inputs": [],
      "name": "BalanceQueryForZeroAddress",
      "type": "error"
    },
    {
      "inputs": [],
      "name": "MintERC2309QuantityExceedsLimit",
      "type": "error"
    },
    {
      "inputs": [],
      "name": "MintToZeroAddress",
      "type": "error"
    },
    {
      "inputs": [],
      "name": "MintZeroQuantity",
      "type": "error"
    },
    {
      "inputs": [],
      "name": "OwnerQueryForNonexistentToken",
      "type": "error"
    },
    {
      "inputs": [],
      "name": "OwnershipNotInitializedForExtraData",
      "type": "error"
    },
    {
      "inputs": [],
      "name": "TransferCallerNotOwnerNorApproved",
      "type": "error"
    },
    {
      "inputs": [],
      "name": "TransferFromIncorrectOwner",
      "type": "error"
    },
    {
      "inputs": [],
      "name": "TransferToNonERC721ReceiverImplementer",
      "type": "error"
    },
    {
      "inputs": [],
      "name": "TransferToZeroAddress",
      "type": "error"
    },
    {
      "inputs": [],
      "name": "URIQueryForNonexistentToken",
      "type": "error"
    },
    {
      "anonymous": false,
      "inputs": [
        {
          "indexed": true,
          "internalType": "address",
          "name": "owner",
          "type": "address"
        },
        {
          "indexed": true,
          "internalType": "address",
          "name": "approved",
          "type": "address"
        },
        {
          "indexed": true,
          "internalType": "uint256",
          "name": "tokenId",
          "type": "uint256"
        }
      ],
      "name": "Approval",
      "type": "event"
    },
    {
      "anonymous": false,
      "inputs": [
        {
          "indexed": true,
          "internalType": "address",
          "name": "owner",
          "type": "address"
        },
        {
          "indexed": true,
          "internalType": "address",
          "name": "operator",
          "type": "address"
        },
        {
          "indexed": false,
          "internalType": "bool",
          "name": "approved",
          "type": "bool"
        }
      ],
      "name": "ApprovalForAll",
      "type": "event"
    },
    {
      "anonymous": false,
      "inputs": [
        {
          "indexed": true,
          "internalType": "uint256",
          "name": "fromTokenId",
          "type": "uint256"
        },
        {
          "indexed": false,
          "internalType": "uint256",
          "name": "toTokenId",
          "type": "uint256"
        },
        {
          "indexed": true,
          "internalType": "address",
          "name": "from",
          "type": "address"
        },
        {
          "indexed": true,
          "internalType": "address",
          "name": "to",
          "type": "address"
        }
      ],
      "name": "ConsecutiveTransfer",
      "type": "event"
    },
    {
      "anonymous": false,
      "inputs": [
        {
          "indexed": true,
          "internalType": "address",
          "name": "from",
          "type": "address"
        },
        {
          "indexed": true,
          "internalType": "address",
          "name": "to",
          "type": "address"
        },
        {
          "indexed": true,
          "internalType": "uint256",
          "name": "tokenId",
          "type": "uint256"
        }
      ],
      "name": "Transfer",
      "type": "event"
    },
    {
      "inputs": [
        {
          "internalType": "address",
          "name": "to",
          "type": "address"
        },
        {
          "internalType": "uint256",
          "name": "tokenId",
          "type": "uint256"
        }
      ],
      "name": "approve",
      "outputs": [],
      "stateMutability": "nonpayable",
      "type": "function"
    },
    {
      "inputs": [
        {
          "internalType": "address",
          "name": "owner",
          "type": "address"
        }
      ],
      "name": "balanceOf",
      "outputs": [
        {
          "internalType": "uint256",
          "name": "",
          "type": "uint256"
        }
      ],
      "stateMutability": "view",
      "type": "function"
    },
    {
      "inputs": [],
      "name": "baseURI",
      "outputs": [
        {
          "internalType": "string",
          "name": "",
          "type": "string"
        }
      ],
      "stateMutability": "view",
      "type": "function"
    },
    {
      "inputs": [
        {
          "internalType": "uint256",
          "name": "tokenId",
          "type": "uint256"
        }
      ],
      "name": "burn",
      "outputs": [],
      "stateMutability": "nonpayable",
      "type": "function"
    },
    {
      "inputs": [
        {
          "internalType": "uint256",
          "name": "tokenId",
          "type": "uint256"
        },
        {
          "internalType": "bool",
          "name": "approvalCheck",
          "type": "bool"
        }
      ],
      "name": "burn",
      "outputs": [],
      "stateMutability": "nonpayable",
      "type": "function"
    },
    {
      "inputs": [
        {
          "internalType": "uint256",
          "name": "tokenId",
          "type": "uint256"
        }
      ],
      "name": "exists",
      "outputs": [
        {
          "internalType": "bool",
          "name": "",
          "type": "bool"
        }
      ],
      "stateMutability": "view",
      "type": "function"
    },
    {
      "inputs": [
        {
          "internalType": "uint256",
          "name": "tokenId",
          "type": "uint256"
        }
      ],
      "name": "getApproved",
      "outputs": [
        {
          "internalType": "address",
          "name": "",
          "type": "address"
        }
      ],
      "stateMutability": "view",
      "type": "function"
    },
    {
      "inputs": [
        {
          "internalType": "address",
          "name": "owner",
          "type": "address"
        }
      ],
      "name": "getAux",
      "outputs": [
        {
          "internalType": "uint64",
          "name": "",
          "type": "uint64"
        }
      ],
      "stateMutability": "view",
      "type": "function"
    },
    {
      "inputs": [
        {
          "internalType": "uint256",
          "name": "index",
          "type": "uint256"
        }
      ],
      "name": "getOwnershipAt",
      "outputs": [
        {
          "components": [
            {
              "internalType": "address",
              "name": "addr",
              "type": "address"
            },
            {
              "internalType": "uint64",
              "name": "startTimestamp",
              "type": "uint64"
            },
            {
              "internalType": "bool",
              "name": "burned",
              "type": "bool"
            },
            {
              "internalType": "uint24",
              "name": "extraData",
              "type": "uint24"
            }
          ],
          "internalType": "struct IERC721A.TokenOwnership",
          "name": "",
          "type": "tuple"
        }
      ],
      "stateMutability": "view",
      "type": "function"
    },
    {
      "inputs": [
        {
          "internalType": "uint256",
          "name": "index",
          "type": "uint256"
        }
      ],
      "name": "getOwnershipOf",
      "outputs": [
        {
          "components": [
            {
              "internalType": "address",
              "name": "addr",
              "type": "address"
            },
            {
              "internalType": "uint64",
              "name": "startTimestamp",
              "type": "uint64"
            },
            {
              "internalType": "bool",
              "name": "burned",
              "type": "bool"
            },
            {
              "internalType": "uint24",
              "name": "extraData",
              "type": "uint24"
            }
          ],
          "internalType": "struct IERC721A.TokenOwnership",
          "name": "",
          "type": "tuple"
        }
      ],
      "stateMutability": "view",
      "type": "function"
    },
    {
      "inputs": [
        {
          "internalType": "uint256",
          "name": "index",
          "type": "uint256"
        }
      ],
      "name": "initializeOwnershipAt",
      "outputs": [],
      "stateMutability": "nonpayable",
      "type": "function"
    },
    {
      "inputs": [
        {
          "internalType": "address",
          "name": "owner",
          "type": "address"
        },
        {
          "internalType": "address",
          "name": "operator",
          "type": "address"
        }
      ],
      "name": "isApprovedForAll",
      "outputs": [
        {
          "internalType": "bool",
          "name": "",
          "type": "bool"
        }
      ],
      "stateMutability": "view",
      "type": "function"
    },
    {
      "inputs": [
        {
          "internalType": "address",
          "name": "to",
          "type": "address"
        },
        {
          "internalType": "uint256",
          "name": "quantity",
          "type": "uint256"
        }
      ],
      "name": "mint",
      "outputs": [],
      "stateMutability": "nonpayable",
      "type": "function"
    },
    {
      "inputs": [],
      "name": "name",
      "outputs": [
        {
          "internalType": "string",
          "name": "",
          "type": "string"
        }
      ],
      "stateMutability": "view",
      "type": "function"
    },
    {
      "inputs": [],
      "name": "nextTokenId",
      "outputs": [
        {
          "internalType": "uint256",
          "name": "",
          "type": "uint256"
        }
      ],
      "stateMutability": "view",
      "type": "function"
    },
    {
      "inputs": [
        {
          "internalType": "address",
          "name": "owner",
          "type": "address"
        }
      ],
      "name": "numberMinted",
      "outputs": [
        {
          "internalType": "uint256",
          "name": "",
          "type": "uint256"
        }
      ],
      "stateMutability": "view",
      "type": "function"
    },
    {
      "inputs": [
        {
          "internalType": "uint256",
          "name": "tokenId",
          "type": "uint256"
        }
      ],
      "name": "ownerOf",
      "outputs": [
        {
          "internalType": "address",
          "name": "",
          "type": "address"
        }
      ],
      "stateMutability": "view",
      "type": "function"
    },
    {
      "inputs": [
        {
          "internalType": "address",
          "name": "to",
          "type": "address"
        },
        {
          "internalType": "uint256",
          "name": "quantity",
          "type": "uint256"
        },
        {
          "internalType": "bytes",
          "name": "_data",
          "type": "bytes"
        }
      ],
      "name": "safeMint",
      "outputs": [],
      "stateMutability": "nonpayable",
      "type": "function"
    },
    {
      "inputs": [
        {
          "internalType": "address",
          "name": "to",
          "type": "address"
        },
        {
          "internalType": "uint256",
          "name": "quantity",
          "type": "uint256"
        }
      ],
      "name": "safeMint",
      "outputs": [],
      "stateMutability": "nonpayable",
      "type": "function"
    },
    {
      "inputs": [
        {
          "internalType": "address",
          "name": "from",
          "type": "address"
        },
        {
          "internalType": "address",
          "name": "to",
          "type": "address"
        },
        {
          "internalType": "uint256",
          "name": "tokenId",
          "type": "uint256"
        }
      ],
      "name": "safeTransferFrom",
      "outputs": [],
      "stateMutability": "nonpayable",
      "type": "function"
    },
    {
      "inputs": [
        {
          "internalType": "address",
          "name": "from",
          "type": "address"
        },
        {
          "internalType": "address",
          "name": "to",
          "type": "address"
        },
        {
          "internalType": "uint256",
          "name": "tokenId",
          "type": "uint256"
        },
        {
          "internalType": "bytes",
          "name": "_data",
          "type": "bytes"
        }
      ],
      "name": "safeTransferFrom",
      "outputs": [],
      "stateMutability": "nonpayable",
      "type": "function"
    },
    {
      "inputs": [
        {
          "internalType": "address",
          "name": "operator",
          "type": "address"
        },
        {
          "internalType": "bool",
          "name": "approved",
          "type": "bool"
        }
      ],
      "name": "setApprovalForAll",
      "outputs": [],
      "stateMutability": "nonpayable",
      "type": "function"
    },
    {
      "inputs": [
        {
          "internalType": "address",
          "name": "owner",
          "type": "address"
        },
        {
          "internalType": "uint64",
          "name": "aux",
          "type": "uint64"
        }
      ],
      "name": "setAux",
      "outputs": [],
      "stateMutability": "nonpayable",
      "type": "function"
    },
    {
      "inputs": [
        {
          "internalType": "bytes4",
          "name": "interfaceId",
          "type": "bytes4"
        }
      ],
      "name": "supportsInterface",
      "outputs": [
        {
          "internalType": "bool",
          "name": "",
          "type": "bool"
        }
      ],
      "stateMutability": "view",
      "type": "function"
    },
    {
      "inputs": [],
      "name": "symbol",
      "outputs": [
        {
          "internalType": "string",
          "name": "",
          "type": "string"
        }
      ],
      "stateMutability": "view",
      "type": "function"
    },
    {
      "inputs": [
        {
          "internalType": "uint256",
          "name": "x",
          "type": "uint256"
        }
      ],
      "name": "toString",
      "outputs": [
        {
          "internalType": "string",
          "name": "",
          "type": "string"
        }
      ],
      "stateMutability": "pure",
      "type": "function"
    },
    {
      "inputs": [
        {
          "internalType": "uint256",
          "name": "tokenId",
          "type": "uint256"
        }
      ],
      "name": "tokenURI",
      "outputs": [
        {
          "internalType": "string",
          "name": "",
          "type": "string"
        }
      ],
      "stateMutability": "view",
      "type": "function"
    },
    {
      "inputs": [],
      "name": "totalBurned",
      "outputs": [
        {
          "internalType": "uint256",
          "name": "",
          "type": "uint256"
        }
      ],
      "stateMutability": "view",
      "type": "function"
    },
    {
      "inputs": [],
      "name": "totalMinted",
      "outputs": [
        {
          "internalType": "uint256",
          "name": "",
          "type": "uint256"
        }
      ],
      "stateMutability": "view",
      "type": "function"
    },
    {
      "inputs": [],
      "name": "totalSupply",
      "outputs": [
        {
          "internalType": "uint256",
          "name": "",
          "type": "uint256"
        }
      ],
      "stateMutability": "view",
      "type": "function"
    },
    {
      "inputs": [
        {
          "internalType": "address",
          "name": "from",
          "type": "address"
        },
        {
          "internalType": "address",
          "name": "to",
          "type": "address"
        },
        {
          "internalType": "uint256",
          "name": "tokenId",
          "type": "uint256"
        }
      ],
      "name": "transferFrom",
      "outputs": [],
      "stateMutability": "nonpayable",
      "type": "function"
    }
  ],
  "bytecode": "0x60806040523480156200001157600080fd5b5060405162001722380380620017228339810160408190526200003491620001e6565b8151829082906200004d90600290602085019062000073565b5080516200006390600390602084019062000073565b5060008055506200028d92505050565b828054620000819062000250565b90600052602060002090601f016020900481019282620000a55760008555620000f0565b82601f10620000c057805160ff1916838001178555620000f0565b82800160010185558215620000f0579182015b82811115620000f0578251825591602001919060010190620000d3565b50620000fe92915062000102565b5090565b5b80821115620000fe576000815560010162000103565b634e487b7160e01b600052604160045260246000fd5b600082601f8301126200014157600080fd5b81516001600160401b03808211156200015e576200015e62000119565b604051601f8301601f19908116603f0116810190828211818310171562000189576200018962000119565b81604052838152602092508683858801011115620001a657600080fd5b600091505b83821015620001ca5785820183015181830184015290820190620001ab565b83821115620001dc5760008385830101525b9695505050505050565b60008060408385031215620001fa57600080fd5b82516001600160401b03808211156200021257600080fd5b62000220868387016200012f565b935060208501519150808211156200023757600080fd5b5062000246858286016200012f565b9150509250929050565b600181811c908216806200026557607f821691505b602082108114156200028757634e487b7160e01b600052602260045260246000fd5b50919050565b611485806200029d6000396000f3fe608060405234801561001057600080fd5b50600436106101755760003560e01c806301ffc9a71461017a57806306fdde03146101a2578063081812fc146101b7578063095ea7b3146101e257806318160ddd146101f757806323b872dd1461020d57806340c10f191461022057806342842e0e1461023357806342966c6814610246578063453ab141146102595780634f558e791461029857806352d8a4d1146102ab57806353b1233d1461030a5780636352211e1461031d5780636900a3ae146103305780636c0360eb1461034357806370a082311461034b57806375794a3c1461035e5780638832e6e31461036657806395d89b41146103795780639fac68cb14610381578063a144819414610394578063a22cb465146103a7578063a2309ff81461035e578063b88d4fde146103ba578063bf0b175e146103cd578063c87b56dd146103f8578063d89135cd1461040b578063dc33e68114610413578063e985e9c514610426578063f252363314610462575b600080fd5b61018d610188366004610ffb565b610475565b60405190151581526020015b60405180910390f35b6101aa6104c7565b6040516101999190611070565b6101ca6101c5366004611083565b610559565b6040516001600160a01b039091168152602001610199565b6101f56101f03660046110b8565b61059d565b005b600154600054035b604051908152602001610199565b6101f561021b3660046110e2565b61063d565b6101f561022e3660046110b8565b6107c6565b6101f56102413660046110e2565b6107d4565b6101f5610254366004611083565b6107f4565b6101f561026736600461111e565b6001600160a01b0382166000908152600560205260409020805460c083901b6001600160c01b039091161790555050565b61018d6102a6366004611083565b610800565b6102be6102b9366004611083565b61080b565b604051610199919081516001600160a01b031681526020808301516001600160401b03169082015260408083015115159082015260609182015162ffffff169181019190915260800190565b6101f5610318366004611083565b61081c565b6101ca61032b366004611083565b610825565b6101aa61033e366004611083565b610830565b6101aa61083b565b6101ff610359366004611161565b610857565b6000546101ff565b6101f561037436600461121e565b6108a5565b6101aa6108b0565b6101f561038f366004611284565b6108bf565b6101f56103a23660046110b8565b6108c9565b6101f56103b53660046112b0565b6108d3565b6101f56103c83660046112da565b610969565b6103e06103db366004611161565b6109b3565b6040516001600160401b039091168152602001610199565b6101aa610406366004611083565b6109d4565b6101ff610a66565b6101ff610421366004611161565b610a71565b61018d610434366004611341565b6001600160a01b03918216600090815260076020908152604080832093909416825291909152205460ff1690565b6102be610470366004611083565b610a9b565b60006301ffc9a760e01b6001600160e01b0319831614806104a657506380ac58cd60e01b6001600160e01b03198316145b806104c15750635b5e139f60e01b6001600160e01b03198316145b92915050565b6060600280546104d69061136b565b80601f01602080910402602001604051908101604052809291908181526020018280546105029061136b565b801561054f5780601f106105245761010080835404028352916020019161054f565b820191906000526020600020905b81548152906001019060200180831161053257829003601f168201915b5050505050905090565b600061056482610aac565b610581576040516333d1c03960e21b815260040160405180910390fd5b506000908152600660205260409020546001600160a01b031690565b60006105a882610825565b9050336001600160a01b038216146105e1576105c48133610434565b6105e1576040516367d9dca160e11b815260040160405180910390fd5b60008281526006602052604080822080546001600160a01b0319166001600160a01b0387811691821790925591518593918516917f8c5be1e5ebec7d5bd14f71427d1e84f3dd0314c0f7b2291e5b200ac8c7c3b92591a4505050565b600061064882610ad3565b9050836001600160a01b0316816001600160a01b03161461067b5760405162a1148160e81b815260040160405180910390fd5b600082815260066020526040902080546106a78187335b6001600160a01b039081169116811491141790565b6106d2576106b58633610434565b6106d257604051632ce44b5f60e11b815260040160405180910390fd5b6001600160a01b0385166106f957604051633a954ecd60e21b815260040160405180910390fd5b801561070457600082555b6001600160a01b0386811660009081526005602052604080822080546000190190559187168152208054600101905561074185600160e11b610b34565b600085815260046020526040902055600160e11b831661078f576001840160008181526004602052604090205461078d57600054811461078d5760008181526004602052604090208490555b505b83856001600160a01b0316876001600160a01b031660008051602061143083398151915260405160405180910390a4505050505050565b6107d08282610b49565b5050565b6107ef83838360405180602001604052806000815250610969565b505050565b6107fd81610c15565b50565b60006104c182610aac565b610813610fbe565b6104c182610c20565b6107fd81610c39565b60006104c182610ad3565b60606104c182610c67565b606061085260408051602081019091526000815290565b905090565b60006001600160a01b038216610880576040516323d3ad8160e21b815260040160405180910390fd5b506001600160a01b03166000908152600560205260409020546001600160401b031690565b6107ef838383610cb6565b6060600380546104d69061136b565b6107d08282610d23565b6107d08282610e4e565b6001600160a01b0382163314156108fd5760405163b06307db60e01b815260040160405180910390fd5b3360008181526007602090815260408083206001600160a01b03871680855290835292819020805460ff191686151590811790915590519081529192917f17307eab39ab6107e8899845ad3d59bd9653f200f220920489ca2b5937696c31910160405180910390a35050565b61097484848461063d565b6001600160a01b0383163b156109ad5761099084848484610e68565b6109ad576040516368d2bf6b60e11b815260040160405180910390fd5b50505050565b6001600160a01b03811660009081526005602052604081205460c01c6104c1565b60606109df82610aac565b6109fc57604051630a14c4b560e41b815260040160405180910390fd5b6000610a1360408051602081019091526000815290565b9050805160001415610a345760405180602001604052806000815250610a5f565b80610a3e84610c67565b604051602001610a4f9291906113a6565b6040516020818303038152906040525b9392505050565b600061085260015490565b6001600160a01b038116600090815260056020526040808220546001600160401b03911c166104c1565b610aa3610fbe565b6104c182610f5f565b60008054821080156104c1575050600090815260046020526040902054600160e01b161590565b600081600054811015610b1b57600081815260046020526040902054600160e01b8116610b19575b80610a5f575060001901600081815260046020526040902054610afb565b505b604051636f96cda160e11b815260040160405180910390fd5b4260a01b176001600160a01b03919091161790565b6000546001600160a01b038316610b7257604051622e076360e81b815260040160405180910390fd5b81610b905760405163b562e8dd60e01b815260040160405180910390fd5b6001600160a01b038316600090815260056020526040902080546001600160401b018402019055610bc7836001841460e11b610b34565b600082815260046020526040902055808281015b6040516001830192906001600160a01b03871690600090600080516020611430833981519152908290a4808210610bdb5760005550505050565b6107fd816000610d23565b610c28610fbe565b6104c1610c3483610ad3565b610f7b565b6000818152600460205260409020546107fd57610c5581610ad3565b60008281526004602052604090205550565b604080516080810191829052607f0190826030600a8206018353600a90045b8015610ca457600183039250600a81066030018353600a9004610c86565b50819003601f19909101908152919050565b610cc08383610b49565b6001600160a01b0383163b156107ef576000548281035b610cea6000868380600101945086610e68565b610d07576040516368d2bf6b60e11b815260040160405180910390fd5b818110610cd7578160005414610d1c57600080fd5b5050505050565b6000610d2e83610ad3565b905080600080610d4c86600090815260066020526040902080549091565b915091508415610d8c57610d61818433610692565b610d8c57610d6f8333610434565b610d8c57604051632ce44b5f60e11b815260040160405180910390fd5b8015610d9757600082555b6001600160a01b038316600090815260056020526040902080546001600160801b03019055610dca83600360e01b610b34565b600087815260046020526040902055600160e11b8416610e185760018601600081815260046020526040902054610e16576000548114610e165760008181526004602052604090208590555b505b60405186906000906001600160a01b03861690600080516020611430833981519152908390a45050600180548101905550505050565b6107d0828260405180602001604052806000815250610cb6565b604051630a85bd0160e11b81526000906001600160a01b0385169063150b7a0290610e9d9033908990889088906004016113d5565b602060405180830381600087803b158015610eb757600080fd5b505af1925050508015610ee7575060408051601f3d908101601f19168201909252610ee491810190611412565b60015b610f42573d808015610f15576040519150601f19603f3d011682016040523d82523d6000602084013e610f1a565b606091505b508051610f3a576040516368d2bf6b60e11b815260040160405180910390fd5b805181602001fd5b6001600160e01b031916630a85bd0160e11b149050949350505050565b610f67610fbe565b6000828152600460205260409020546104c1905b610f83610fbe565b6001600160a01b03821681526001600160401b0360a083901c166020820152600160e01b82161515604082015260e89190911c606082015290565b60408051608081018252600080825260208201819052918101829052606081019190915290565b6001600160e01b0319811681146107fd57600080fd5b60006020828403121561100d57600080fd5b8135610a5f81610fe5565b60005b8381101561103357818101518382015260200161101b565b838111156109ad5750506000910152565b6000815180845261105c816020860160208601611018565b601f01601f19169290920160200192915050565b602081526000610a5f6020830184611044565b60006020828403121561109557600080fd5b5035919050565b80356001600160a01b03811681146110b357600080fd5b919050565b600080604083850312156110cb57600080fd5b6110d48361109c565b946020939093013593505050565b6000806000606084860312156110f757600080fd5b6111008461109c565b925061110e6020850161109c565b9150604084013590509250925092565b6000806040838503121561113157600080fd5b61113a8361109c565b915060208301356001600160401b038116811461115657600080fd5b809150509250929050565b60006020828403121561117357600080fd5b610a5f8261109c565b634e487b7160e01b600052604160045260246000fd5b600082601f8301126111a357600080fd5b81356001600160401b03808211156111bd576111bd61117c565b604051601f8301601f19908116603f011681019082821181831017156111e5576111e561117c565b816040528381528660208588010111156111fe57600080fd5b836020870160208301376000602085830101528094505050505092915050565b60008060006060848603121561123357600080fd5b61123c8461109c565b92506020840135915060408401356001600160401b0381111561125e57600080fd5b61126a86828701611192565b9150509250925092565b803580151581146110b357600080fd5b6000806040838503121561129757600080fd5b823591506112a760208401611274565b90509250929050565b600080604083850312156112c357600080fd5b6112cc8361109c565b91506112a760208401611274565b600080600080608085870312156112f057600080fd5b6112f98561109c565b93506113076020860161109c565b92506040850135915060608501356001600160401b0381111561132957600080fd5b61133587828801611192565b91505092959194509250565b6000806040838503121561135457600080fd5b61135d8361109c565b91506112a76020840161109c565b600181811c9082168061137f57607f821691505b602082108114156113a057634e487b7160e01b600052602260045260246000fd5b50919050565b600083516113b8818460208801611018565b8351908301906113cc818360208801611018565b01949350505050565b6001600160a01b038581168252841660208201526040810183905260806060820181905260009061140890830184611044565b9695505050505050565b60006020828403121561142457600080fd5b8151610a5f81610fe556feddf252ad1be2c89b69c2b068fc378daa952ba7f163c4a11628f55a4df523b3efa264697066735822122057e2e628cb950e9d33899353c5b7057782658673278c4764ab46e64dcbd66c6d64736f6c63430008090033",
  "linkReferences": {},
  "deployedLinkReferences": {}
}