{
  "_format": "hh-sol-artifact-1",
  "contractName": "ERC721AQueryableMock",
  "sourceName": "contracts/nftERC721A/mocks/ERC721AQueryableMock.sol",
  "abi": [
    {
      "inputs": [
        {
          "internalType": "string",
          "name": "name_",
          "type": "string"
        },
        {
          "internalType": "string",
          "name": "symbol_",
          "type": "string"
        }
      ],
      "stateMutability": "nonpayable",
      "type": "constructor"
    },
    {
      "inputs": [],
      "name": "ApprovalCallerNotOwnerNorApproved",
      "type": "error"
    },
    {
      "inputs": [],
      "name": "ApprovalQueryForNonexistentToken",
      "type": "error"
    },
    {
      "inputs": [],
      "name": "ApproveToCaller",
      "type": "error"
    },
    {
      "inputs": [],
      "name": "BalanceQueryForZeroAddress",
      "type": "error"
    },
    {
      "inputs": [],
      "name": "InvalidQueryRange",
      "type": "error"
    },
    {
      "inputs": [],
      "name": "MintERC2309QuantityExceedsLimit",
      "type": "error"
    },
    {
      "inputs": [],
      "name": "MintToZeroAddress",
      "type": "error"
    },
    {
      "inputs": [],
      "name": "MintZeroQuantity",
      "type": "error"
    },
    {
      "inputs": [],
      "name": "OwnerQueryForNonexistentToken",
      "type": "error"
    },
    {
      "inputs": [],
      "name": "OwnershipNotInitializedForExtraData",
      "type": "error"
    },
    {
      "inputs": [],
      "name": "TransferCallerNotOwnerNorApproved",
      "type": "error"
    },
    {
      "inputs": [],
      "name": "TransferFromIncorrectOwner",
      "type": "error"
    },
    {
      "inputs": [],
      "name": "TransferToNonERC721ReceiverImplementer",
      "type": "error"
    },
    {
      "inputs": [],
      "name": "TransferToZeroAddress",
      "type": "error"
    },
    {
      "inputs": [],
      "name": "URIQueryForNonexistentToken",
      "type": "error"
    },
    {
      "anonymous": false,
      "inputs": [
        {
          "indexed": true,
          "internalType": "address",
          "name": "owner",
          "type": "address"
        },
        {
          "indexed": true,
          "internalType": "address",
          "name": "approved",
          "type": "address"
        },
        {
          "indexed": true,
          "internalType": "uint256",
          "name": "tokenId",
          "type": "uint256"
        }
      ],
      "name": "Approval",
      "type": "event"
    },
    {
      "anonymous": false,
      "inputs": [
        {
          "indexed": true,
          "internalType": "address",
          "name": "owner",
          "type": "address"
        },
        {
          "indexed": true,
          "internalType": "address",
          "name": "operator",
          "type": "address"
        },
        {
          "indexed": false,
          "internalType": "bool",
          "name": "approved",
          "type": "bool"
        }
      ],
      "name": "ApprovalForAll",
      "type": "event"
    },
    {
      "anonymous": false,
      "inputs": [
        {
          "indexed": true,
          "internalType": "uint256",
          "name": "fromTokenId",
          "type": "uint256"
        },
        {
          "indexed": false,
          "internalType": "uint256",
          "name": "toTokenId",
          "type": "uint256"
        },
        {
          "indexed": true,
          "internalType": "address",
          "name": "from",
          "type": "address"
        },
        {
          "indexed": true,
          "internalType": "address",
          "name": "to",
          "type": "address"
        }
      ],
      "name": "ConsecutiveTransfer",
      "type": "event"
    },
    {
      "anonymous": false,
      "inputs": [
        {
          "indexed": true,
          "internalType": "address",
          "name": "from",
          "type": "address"
        },
        {
          "indexed": true,
          "internalType": "address",
          "name": "to",
          "type": "address"
        },
        {
          "indexed": true,
          "internalType": "uint256",
          "name": "tokenId",
          "type": "uint256"
        }
      ],
      "name": "Transfer",
      "type": "event"
    },
    {
      "inputs": [
        {
          "internalType": "address",
          "name": "to",
          "type": "address"
        },
        {
          "internalType": "uint256",
          "name": "tokenId",
          "type": "uint256"
        }
      ],
      "name": "approve",
      "outputs": [],
      "stateMutability": "nonpayable",
      "type": "function"
    },
    {
      "inputs": [
        {
          "internalType": "address",
          "name": "owner",
          "type": "address"
        }
      ],
      "name": "balanceOf",
      "outputs": [
        {
          "internalType": "uint256",
          "name": "",
          "type": "uint256"
        }
      ],
      "stateMutability": "view",
      "type": "function"
    },
    {
      "inputs": [
        {
          "internalType": "uint256",
          "name": "tokenId",
          "type": "uint256"
        }
      ],
      "name": "burn",
      "outputs": [],
      "stateMutability": "nonpayable",
      "type": "function"
    },
    {
      "inputs": [
        {
          "internalType": "uint256",
          "name": "tokenId",
          "type": "uint256"
        }
      ],
      "name": "explicitOwnershipOf",
      "outputs": [
        {
          "components": [
            {
              "internalType": "address",
              "name": "addr",
              "type": "address"
            },
            {
              "internalType": "uint64",
              "name": "startTimestamp",
              "type": "uint64"
            },
            {
              "internalType": "bool",
              "name": "burned",
              "type": "bool"
            },
            {
              "internalType": "uint24",
              "name": "extraData",
              "type": "uint24"
            }
          ],
          "internalType": "struct IERC721A.TokenOwnership",
          "name": "",
          "type": "tuple"
        }
      ],
      "stateMutability": "view",
      "type": "function"
    },
    {
      "inputs": [
        {
          "internalType": "uint256[]",
          "name": "tokenIds",
          "type": "uint256[]"
        }
      ],
      "name": "explicitOwnershipsOf",
      "outputs": [
        {
          "components": [
            {
              "internalType": "address",
              "name": "addr",
              "type": "address"
            },
            {
              "internalType": "uint64",
              "name": "startTimestamp",
              "type": "uint64"
            },
            {
              "internalType": "bool",
              "name": "burned",
              "type": "bool"
            },
            {
              "internalType": "uint24",
              "name": "extraData",
              "type": "uint24"
            }
          ],
          "internalType": "struct IERC721A.TokenOwnership[]",
          "name": "",
          "type": "tuple[]"
        }
      ],
      "stateMutability": "view",
      "type": "function"
    },
    {
      "inputs": [
        {
          "internalType": "uint256",
          "name": "tokenId",
          "type": "uint256"
        }
      ],
      "name": "getApproved",
      "outputs": [
        {
          "internalType": "address",
          "name": "",
          "type": "address"
        }
      ],
      "stateMutability": "view",
      "type": "function"
    },
    {
      "inputs": [
        {
          "internalType": "address",
          "name": "owner",
          "type": "address"
        },
        {
          "internalType": "address",
          "name": "operator",
          "type": "address"
        }
      ],
      "name": "isApprovedForAll",
      "outputs": [
        {
          "internalType": "bool",
          "name": "",
          "type": "bool"
        }
      ],
      "stateMutability": "view",
      "type": "function"
    },
    {
      "inputs": [],
      "name": "name",
      "outputs": [
        {
          "internalType": "string",
          "name": "",
          "type": "string"
        }
      ],
      "stateMutability": "view",
      "type": "function"
    },
    {
      "inputs": [
        {
          "internalType": "uint256",
          "name": "tokenId",
          "type": "uint256"
        }
      ],
      "name": "ownerOf",
      "outputs": [
        {
          "internalType": "address",
          "name": "",
          "type": "address"
        }
      ],
      "stateMutability": "view",
      "type": "function"
    },
    {
      "inputs": [
        {
          "internalType": "address",
          "name": "to",
          "type": "address"
        },
        {
          "internalType": "uint256",
          "name": "quantity",
          "type": "uint256"
        }
      ],
      "name": "safeMint",
      "outputs": [],
      "stateMutability": "nonpayable",
      "type": "function"
    },
    {
      "inputs": [
        {
          "internalType": "address",
          "name": "from",
          "type": "address"
        },
        {
          "internalType": "address",
          "name": "to",
          "type": "address"
        },
        {
          "internalType": "uint256",
          "name": "tokenId",
          "type": "uint256"
        }
      ],
      "name": "safeTransferFrom",
      "outputs": [],
      "stateMutability": "nonpayable",
      "type": "function"
    },
    {
      "inputs": [
        {
          "internalType": "address",
          "name": "from",
          "type": "address"
        },
        {
          "internalType": "address",
          "name": "to",
          "type": "address"
        },
        {
          "internalType": "uint256",
          "name": "tokenId",
          "type": "uint256"
        },
        {
          "internalType": "bytes",
          "name": "_data",
          "type": "bytes"
        }
      ],
      "name": "safeTransferFrom",
      "outputs": [],
      "stateMutability": "nonpayable",
      "type": "function"
    },
    {
      "inputs": [
        {
          "internalType": "address",
          "name": "operator",
          "type": "address"
        },
        {
          "internalType": "bool",
          "name": "approved",
          "type": "bool"
        }
      ],
      "name": "setApprovalForAll",
      "outputs": [],
      "stateMutability": "nonpayable",
      "type": "function"
    },
    {
      "inputs": [
        {
          "internalType": "bytes4",
          "name": "interfaceId",
          "type": "bytes4"
        }
      ],
      "name": "supportsInterface",
      "outputs": [
        {
          "internalType": "bool",
          "name": "",
          "type": "bool"
        }
      ],
      "stateMutability": "view",
      "type": "function"
    },
    {
      "inputs": [],
      "name": "symbol",
      "outputs": [
        {
          "internalType": "string",
          "name": "",
          "type": "string"
        }
      ],
      "stateMutability": "view",
      "type": "function"
    },
    {
      "inputs": [
        {
          "internalType": "uint256",
          "name": "tokenId",
          "type": "uint256"
        }
      ],
      "name": "tokenURI",
      "outputs": [
        {
          "internalType": "string",
          "name": "",
          "type": "string"
        }
      ],
      "stateMutability": "view",
      "type": "function"
    },
    {
      "inputs": [
        {
          "internalType": "address",
          "name": "owner",
          "type": "address"
        }
      ],
      "name": "tokensOfOwner",
      "outputs": [
        {
          "internalType": "uint256[]",
          "name": "",
          "type": "uint256[]"
        }
      ],
      "stateMutability": "view",
      "type": "function"
    },
    {
      "inputs": [
        {
          "internalType": "address",
          "name": "owner",
          "type": "address"
        },
        {
          "internalType": "uint256",
          "name": "start",
          "type": "uint256"
        },
        {
          "internalType": "uint256",
          "name": "stop",
          "type": "uint256"
        }
      ],
      "name": "tokensOfOwnerIn",
      "outputs": [
        {
          "internalType": "uint256[]",
          "name": "",
          "type": "uint256[]"
        }
      ],
      "stateMutability": "view",
      "type": "function"
    },
    {
      "inputs": [],
      "name": "totalSupply",
      "outputs": [
        {
          "internalType": "uint256",
          "name": "",
          "type": "uint256"
        }
      ],
      "stateMutability": "view",
      "type": "function"
    },
    {
      "inputs": [
        {
          "internalType": "address",
          "name": "from",
          "type": "address"
        },
        {
          "internalType": "address",
          "name": "to",
          "type": "address"
        },
        {
          "internalType": "uint256",
          "name": "tokenId",
          "type": "uint256"
        }
      ],
      "name": "transferFrom",
      "outputs": [],
      "stateMutability": "nonpayable",
      "type": "function"
    }
  ],
  "bytecode": "0x60806040523480156200001157600080fd5b50604051620018f7380380620018f78339810160408190526200003491620001e6565b8151829082906200004d90600290602085019062000073565b5080516200006390600390602084019062000073565b5060008055506200028d92505050565b828054620000819062000250565b90600052602060002090601f016020900481019282620000a55760008555620000f0565b82601f10620000c057805160ff1916838001178555620000f0565b82800160010185558215620000f0579182015b82811115620000f0578251825591602001919060010190620000d3565b50620000fe92915062000102565b5090565b5b80821115620000fe576000815560010162000103565b634e487b7160e01b600052604160045260246000fd5b600082601f8301126200014157600080fd5b81516001600160401b03808211156200015e576200015e62000119565b604051601f8301601f19908116603f0116810190828211818310171562000189576200018962000119565b81604052838152602092508683858801011115620001a657600080fd5b600091505b83821015620001ca5785820183015181830184015290820190620001ab565b83821115620001dc5760008385830101525b9695505050505050565b60008060408385031215620001fa57600080fd5b82516001600160401b03808211156200021257600080fd5b62000220868387016200012f565b935060208501519150808211156200023757600080fd5b5062000246858286016200012f565b9150509250929050565b600181811c908216806200026557607f821691505b602082108114156200028757634e487b7160e01b600052602260045260246000fd5b50919050565b61165a806200029d6000396000f3fe608060405234801561001057600080fd5b50600436106100fc5760003560e01c806301ffc9a71461010157806306fdde0314610129578063081812fc1461013e578063095ea7b31461016957806318160ddd1461017e57806323b872dd1461019457806342842e0e146101a757806342966c68146101ba5780635bbb2177146101cd5780636352211e146101ed57806370a08231146102005780638462151c1461021357806395d89b411461023357806399a2557a1461023b578063a14481941461024e578063a22cb46514610261578063b88d4fde14610274578063c23dc68f14610287578063c87b56dd146102a7578063e985e9c5146102ba575b600080fd5b61011461010f3660046110dc565b6102cd565b60405190151581526020015b60405180910390f35b61013161031f565b6040516101209190611151565b61015161014c366004611164565b6103b1565b6040516001600160a01b039091168152602001610120565b61017c610177366004611199565b6103f5565b005b600154600054035b604051908152602001610120565b61017c6101a23660046111c3565b610495565b61017c6101b53660046111c3565b61061e565b61017c6101c8366004611164565b61063e565b6101e06101db366004611245565b61064c565b6040516101209190611326565b6101516101fb366004611164565b610700565b61018661020e366004611368565b61070b565b610226610221366004611368565b610759565b6040516101209190611383565b610131610846565b6102266102493660046113bb565b610855565b61017c61025c366004611199565b6109d2565b61017c61026f3660046113ee565b6109e0565b61017c61028236600461142a565b610a76565b61029a610295366004611164565b610ac0565b60405161012091906114e9565b6101316102b5366004611164565b610b03565b6101146102c83660046114f7565b610b94565b60006301ffc9a760e01b6001600160e01b0319831614806102fe57506380ac58cd60e01b6001600160e01b03198316145b806103195750635b5e139f60e01b6001600160e01b03198316145b92915050565b60606002805461032e9061152a565b80601f016020809104026020016040519081016040528092919081815260200182805461035a9061152a565b80156103a75780601f1061037c576101008083540402835291602001916103a7565b820191906000526020600020905b81548152906001019060200180831161038a57829003601f168201915b5050505050905090565b60006103bc82610bc2565b6103d9576040516333d1c03960e21b815260040160405180910390fd5b506000908152600660205260409020546001600160a01b031690565b600061040082610700565b9050336001600160a01b038216146104395761041c8133610b94565b610439576040516367d9dca160e11b815260040160405180910390fd5b60008281526006602052604080822080546001600160a01b0319166001600160a01b0387811691821790925591518593918516917f8c5be1e5ebec7d5bd14f71427d1e84f3dd0314c0f7b2291e5b200ac8c7c3b92591a4505050565b60006104a082610be9565b9050836001600160a01b0316816001600160a01b0316146104d35760405162a1148160e81b815260040160405180910390fd5b600082815260066020526040902080546104ff8187335b6001600160a01b039081169116811491141790565b61052a5761050d8633610b94565b61052a57604051632ce44b5f60e11b815260040160405180910390fd5b6001600160a01b03851661055157604051633a954ecd60e21b815260040160405180910390fd5b801561055c57600082555b6001600160a01b0386811660009081526005602052604080822080546000190190559187168152208054600101905561059985600160e11b610c4a565b600085815260046020526040902055600160e11b83166105e757600184016000818152600460205260409020546105e55760005481146105e55760008181526004602052604090208490555b505b83856001600160a01b0316876001600160a01b031660008051602061160583398151915260405160405180910390a4505050505050565b61063983838360405180602001604052806000815250610a76565b505050565b610649816001610c5f565b50565b80516060906000816001600160401b0381111561066b5761066b6111ff565b6040519080825280602002602001820160405280156106a457816020015b61069161109f565b8152602001906001900390816106895790505b50905060005b8281146106f8576106d38582815181106106c6576106c6611565565b6020026020010151610ac0565b8282815181106106e5576106e5611565565b60209081029190910101526001016106aa565b509392505050565b600061031982610be9565b60006001600160a01b038216610734576040516323d3ad8160e21b815260040160405180910390fd5b506001600160a01b03166000908152600560205260409020546001600160401b031690565b606060008060006107698561070b565b90506000816001600160401b03811115610785576107856111ff565b6040519080825280602002602001820160405280156107ae578160200160208202803683370190505b5090506107b961109f565b60005b83861461083a576107cc81610d8a565b91508160400151156107dd57610832565b81516001600160a01b0316156107f257815194505b876001600160a01b0316856001600160a01b03161415610832578083878060010198508151811061082557610825611565565b6020026020010181815250505b6001016107bc565b50909695505050505050565b60606003805461032e9061152a565b606081831061087757604051631960ccad60e11b815260040160405180910390fd5b60008061088360005490565b905080841115610891578093505b600061089c8761070b565b9050848610156108bb57858503818110156108b5578091505b506108bf565b5060005b6000816001600160401b038111156108d9576108d96111ff565b604051908082528060200260200182016040528015610902578160200160208202803683370190505b509050816109155793506109cb92505050565b600061092088610ac0565b905060008160400151610931575080515b885b8881141580156109435750848714155b156109bf5761095181610d8a565b9250826040015115610962576109b7565b82516001600160a01b03161561097757825191505b8a6001600160a01b0316826001600160a01b031614156109b757808488806001019950815181106109aa576109aa611565565b6020026020010181815250505b600101610933565b50505092835250909150505b9392505050565b6109dc8282610daa565b5050565b6001600160a01b038216331415610a0a5760405163b06307db60e01b815260040160405180910390fd5b3360008181526007602090815260408083206001600160a01b03871680855290835292819020805460ff191686151590811790915590519081529192917f17307eab39ab6107e8899845ad3d59bd9653f200f220920489ca2b5937696c31910160405180910390a35050565b610a81848484610495565b6001600160a01b0383163b15610aba57610a9d84848484610dc4565b610aba576040516368d2bf6b60e11b815260040160405180910390fd5b50505050565b610ac861109f565b610ad061109f565b6000548310610adf5792915050565b610ae883610d8a565b9050806040015115610afa5792915050565b6109cb83610ebb565b6060610b0e82610bc2565b610b2b57604051630a14c4b560e41b815260040160405180910390fd5b6000610b4260408051602081019091526000815290565b9050805160001415610b6357604051806020016040528060008152506109cb565b80610b6d84610ed4565b604051602001610b7e92919061157b565b6040516020818303038152906040529392505050565b6001600160a01b03918216600090815260076020908152604080832093909416825291909152205460ff1690565b6000805482108015610319575050600090815260046020526040902054600160e01b161590565b600081600054811015610c3157600081815260046020526040902054600160e01b8116610c2f575b806109cb575060001901600081815260046020526040902054610c11565b505b604051636f96cda160e11b815260040160405180910390fd5b4260a01b176001600160a01b03919091161790565b6000610c6a83610be9565b905080600080610c8886600090815260066020526040902080549091565b915091508415610cc857610c9d8184336104ea565b610cc857610cab8333610b94565b610cc857604051632ce44b5f60e11b815260040160405180910390fd5b8015610cd357600082555b6001600160a01b038316600090815260056020526040902080546001600160801b03019055610d0683600360e01b610c4a565b600087815260046020526040902055600160e11b8416610d545760018601600081815260046020526040902054610d52576000548114610d525760008181526004602052604090208590555b505b60405186906000906001600160a01b03861690600080516020611605833981519152908390a45050600180548101905550505050565b610d9261109f565b60008281526004602052604090205461031990610f23565b6109dc828260405180602001604052806000815250610f66565b604051630a85bd0160e11b81526000906001600160a01b0385169063150b7a0290610df99033908990889088906004016115aa565b602060405180830381600087803b158015610e1357600080fd5b505af1925050508015610e43575060408051601f3d908101601f19168201909252610e40918101906115e7565b60015b610e9e573d808015610e71576040519150601f19603f3d011682016040523d82523d6000602084013e610e76565b606091505b508051610e96576040516368d2bf6b60e11b815260040160405180910390fd5b805181602001fd5b6001600160e01b031916630a85bd0160e11b149050949350505050565b610ec361109f565b610319610ecf83610be9565b610f23565b604080516080810191829052607f0190826030600a8206018353600a90045b8015610f1157600183039250600a81066030018353600a9004610ef3565b50819003601f19909101908152919050565b610f2b61109f565b6001600160a01b03821681526001600160401b0360a083901c166020820152600160e01b82161515604082015260e89190911c606082015290565b610f708383610fd3565b6001600160a01b0383163b15610639576000548281035b610f9a6000868380600101945086610dc4565b610fb7576040516368d2bf6b60e11b815260040160405180910390fd5b818110610f87578160005414610fcc57600080fd5b5050505050565b6000546001600160a01b038316610ffc57604051622e076360e81b815260040160405180910390fd5b8161101a5760405163b562e8dd60e01b815260040160405180910390fd5b6001600160a01b038316600090815260056020526040902080546001600160401b018402019055611051836001841460e11b610c4a565b600082815260046020526040902055808281015b6040516001830192906001600160a01b03871690600090600080516020611605833981519152908290a48082106110655760005550505050565b60408051608081018252600080825260208201819052918101829052606081019190915290565b6001600160e01b03198116811461064957600080fd5b6000602082840312156110ee57600080fd5b81356109cb816110c6565b60005b838110156111145781810151838201526020016110fc565b83811115610aba5750506000910152565b6000815180845261113d8160208601602086016110f9565b601f01601f19169290920160200192915050565b6020815260006109cb6020830184611125565b60006020828403121561117657600080fd5b5035919050565b80356001600160a01b038116811461119457600080fd5b919050565b600080604083850312156111ac57600080fd5b6111b58361117d565b946020939093013593505050565b6000806000606084860312156111d857600080fd5b6111e18461117d565b92506111ef6020850161117d565b9150604084013590509250925092565b634e487b7160e01b600052604160045260246000fd5b604051601f8201601f191681016001600160401b038111828210171561123d5761123d6111ff565b604052919050565b6000602080838503121561125857600080fd5b82356001600160401b038082111561126f57600080fd5b818501915085601f83011261128357600080fd5b813581811115611295576112956111ff565b8060051b91506112a6848301611215565b81815291830184019184810190888411156112c057600080fd5b938501935b838510156112de578435825293850193908501906112c5565b98975050505050505050565b80516001600160a01b031682526020808201516001600160401b03169083015260408082015115159083015260609081015162ffffff16910152565b6020808252825182820181905260009190848201906040850190845b8181101561083a576113558385516112ea565b9284019260809290920191600101611342565b60006020828403121561137a57600080fd5b6109cb8261117d565b6020808252825182820181905260009190848201906040850190845b8181101561083a5783518352928401929184019160010161139f565b6000806000606084860312156113d057600080fd5b6113d98461117d565b95602085013595506040909401359392505050565b6000806040838503121561140157600080fd5b61140a8361117d565b91506020830135801515811461141f57600080fd5b809150509250929050565b6000806000806080858703121561144057600080fd5b6114498561117d565b9350602061145881870161117d565b93506040860135925060608601356001600160401b038082111561147b57600080fd5b818801915088601f83011261148f57600080fd5b8135818111156114a1576114a16111ff565b6114b3601f8201601f19168501611215565b915080825289848285010111156114c957600080fd5b808484018584013760008482840101525080935050505092959194509250565b6080810161031982846112ea565b6000806040838503121561150a57600080fd5b6115138361117d565b91506115216020840161117d565b90509250929050565b600181811c9082168061153e57607f821691505b6020821081141561155f57634e487b7160e01b600052602260045260246000fd5b50919050565b634e487b7160e01b600052603260045260246000fd5b6000835161158d8184602088016110f9565b8351908301906115a18183602088016110f9565b01949350505050565b6001600160a01b03858116825284166020820152604081018390526080606082018190526000906115dd90830184611125565b9695505050505050565b6000602082840312156115f957600080fd5b81516109cb816110c656feddf252ad1be2c89b69c2b068fc378daa952ba7f163c4a11628f55a4df523b3efa26469706673582212201f41061639d0cede280b76a85fe7928e0d56f31681ba4857f20cbea79f59af8064736f6c63430008090033",
  "linkReferences": {},
  "deployedLinkReferences": {}
}