{
  "_format": "hh-sol-artifact-1",
  "contractName": "ERC721ABurnableStartTokenIdMock",
  "sourceName": "contracts/nftERC721A/mocks/ERC721ABurnableStartTokenIdMock.sol",
  "abi": [
    {
      "inputs": [
        {
          "internalType": "string",
          "name": "name_",
          "type": "string"
        },
        {
          "internalType": "string",
          "name": "symbol_",
          "type": "string"
        },
        {
          "internalType": "uint256",
          "name": "startTokenId_",
          "type": "uint256"
        }
      ],
      "stateMutability": "nonpayable",
      "type": "constructor"
    },
    {
      "inputs": [],
      "name": "ApprovalCallerNotOwnerNorApproved",
      "type": "error"
    },
    {
      "inputs": [],
      "name": "ApprovalQueryForNonexistentToken",
      "type": "error"
    },
    {
      "inputs": [],
      "name": "ApproveToCaller",
      "type": "error"
    },
    {
      "inputs": [],
      "name": "BalanceQueryForZeroAddress",
      "type": "error"
    },
    {
      "inputs": [],
      "name": "MintERC2309QuantityExceedsLimit",
      "type": "error"
    },
    {
      "inputs": [],
      "name": "MintToZeroAddress",
      "type": "error"
    },
    {
      "inputs": [],
      "name": "MintZeroQuantity",
      "type": "error"
    },
    {
      "inputs": [],
      "name": "OwnerQueryForNonexistentToken",
      "type": "error"
    },
    {
      "inputs": [],
      "name": "OwnershipNotInitializedForExtraData",
      "type": "error"
    },
    {
      "inputs": [],
      "name": "TransferCallerNotOwnerNorApproved",
      "type": "error"
    },
    {
      "inputs": [],
      "name": "TransferFromIncorrectOwner",
      "type": "error"
    },
    {
      "inputs": [],
      "name": "TransferToNonERC721ReceiverImplementer",
      "type": "error"
    },
    {
      "inputs": [],
      "name": "TransferToZeroAddress",
      "type": "error"
    },
    {
      "inputs": [],
      "name": "URIQueryForNonexistentToken",
      "type": "error"
    },
    {
      "anonymous": false,
      "inputs": [
        {
          "indexed": true,
          "internalType": "address",
          "name": "owner",
          "type": "address"
        },
        {
          "indexed": true,
          "internalType": "address",
          "name": "approved",
          "type": "address"
        },
        {
          "indexed": true,
          "internalType": "uint256",
          "name": "tokenId",
          "type": "uint256"
        }
      ],
      "name": "Approval",
      "type": "event"
    },
    {
      "anonymous": false,
      "inputs": [
        {
          "indexed": true,
          "internalType": "address",
          "name": "owner",
          "type": "address"
        },
        {
          "indexed": true,
          "internalType": "address",
          "name": "operator",
          "type": "address"
        },
        {
          "indexed": false,
          "internalType": "bool",
          "name": "approved",
          "type": "bool"
        }
      ],
      "name": "ApprovalForAll",
      "type": "event"
    },
    {
      "anonymous": false,
      "inputs": [
        {
          "indexed": true,
          "internalType": "uint256",
          "name": "fromTokenId",
          "type": "uint256"
        },
        {
          "indexed": false,
          "internalType": "uint256",
          "name": "toTokenId",
          "type": "uint256"
        },
        {
          "indexed": true,
          "internalType": "address",
          "name": "from",
          "type": "address"
        },
        {
          "indexed": true,
          "internalType": "address",
          "name": "to",
          "type": "address"
        }
      ],
      "name": "ConsecutiveTransfer",
      "type": "event"
    },
    {
      "anonymous": false,
      "inputs": [
        {
          "indexed": true,
          "internalType": "address",
          "name": "from",
          "type": "address"
        },
        {
          "indexed": true,
          "internalType": "address",
          "name": "to",
          "type": "address"
        },
        {
          "indexed": true,
          "internalType": "uint256",
          "name": "tokenId",
          "type": "uint256"
        }
      ],
      "name": "Transfer",
      "type": "event"
    },
    {
      "inputs": [
        {
          "internalType": "address",
          "name": "to",
          "type": "address"
        },
        {
          "internalType": "uint256",
          "name": "tokenId",
          "type": "uint256"
        }
      ],
      "name": "approve",
      "outputs": [],
      "stateMutability": "nonpayable",
      "type": "function"
    },
    {
      "inputs": [
        {
          "internalType": "address",
          "name": "owner",
          "type": "address"
        }
      ],
      "name": "balanceOf",
      "outputs": [
        {
          "internalType": "uint256",
          "name": "",
          "type": "uint256"
        }
      ],
      "stateMutability": "view",
      "type": "function"
    },
    {
      "inputs": [
        {
          "internalType": "uint256",
          "name": "tokenId",
          "type": "uint256"
        }
      ],
      "name": "burn",
      "outputs": [],
      "stateMutability": "nonpayable",
      "type": "function"
    },
    {
      "inputs": [
        {
          "internalType": "uint256",
          "name": "tokenId",
          "type": "uint256"
        }
      ],
      "name": "exists",
      "outputs": [
        {
          "internalType": "bool",
          "name": "",
          "type": "bool"
        }
      ],
      "stateMutability": "view",
      "type": "function"
    },
    {
      "inputs": [
        {
          "internalType": "uint256",
          "name": "tokenId",
          "type": "uint256"
        }
      ],
      "name": "getApproved",
      "outputs": [
        {
          "internalType": "address",
          "name": "",
          "type": "address"
        }
      ],
      "stateMutability": "view",
      "type": "function"
    },
    {
      "inputs": [
        {
          "internalType": "uint256",
          "name": "index",
          "type": "uint256"
        }
      ],
      "name": "getOwnershipAt",
      "outputs": [
        {
          "components": [
            {
              "internalType": "address",
              "name": "addr",
              "type": "address"
            },
            {
              "internalType": "uint64",
              "name": "startTimestamp",
              "type": "uint64"
            },
            {
              "internalType": "bool",
              "name": "burned",
              "type": "bool"
            },
            {
              "internalType": "uint24",
              "name": "extraData",
              "type": "uint24"
            }
          ],
          "internalType": "struct IERC721A.TokenOwnership",
          "name": "",
          "type": "tuple"
        }
      ],
      "stateMutability": "view",
      "type": "function"
    },
    {
      "inputs": [
        {
          "internalType": "address",
          "name": "owner",
          "type": "address"
        },
        {
          "internalType": "address",
          "name": "operator",
          "type": "address"
        }
      ],
      "name": "isApprovedForAll",
      "outputs": [
        {
          "internalType": "bool",
          "name": "",
          "type": "bool"
        }
      ],
      "stateMutability": "view",
      "type": "function"
    },
    {
      "inputs": [],
      "name": "name",
      "outputs": [
        {
          "internalType": "string",
          "name": "",
          "type": "string"
        }
      ],
      "stateMutability": "view",
      "type": "function"
    },
    {
      "inputs": [
        {
          "internalType": "address",
          "name": "owner",
          "type": "address"
        }
      ],
      "name": "numberBurned",
      "outputs": [
        {
          "internalType": "uint256",
          "name": "",
          "type": "uint256"
        }
      ],
      "stateMutability": "view",
      "type": "function"
    },
    {
      "inputs": [
        {
          "internalType": "uint256",
          "name": "tokenId",
          "type": "uint256"
        }
      ],
      "name": "ownerOf",
      "outputs": [
        {
          "internalType": "address",
          "name": "",
          "type": "address"
        }
      ],
      "stateMutability": "view",
      "type": "function"
    },
    {
      "inputs": [
        {
          "internalType": "address",
          "name": "to",
          "type": "address"
        },
        {
          "internalType": "uint256",
          "name": "quantity",
          "type": "uint256"
        }
      ],
      "name": "safeMint",
      "outputs": [],
      "stateMutability": "nonpayable",
      "type": "function"
    },
    {
      "inputs": [
        {
          "internalType": "address",
          "name": "from",
          "type": "address"
        },
        {
          "internalType": "address",
          "name": "to",
          "type": "address"
        },
        {
          "internalType": "uint256",
          "name": "tokenId",
          "type": "uint256"
        }
      ],
      "name": "safeTransferFrom",
      "outputs": [],
      "stateMutability": "nonpayable",
      "type": "function"
    },
    {
      "inputs": [
        {
          "internalType": "address",
          "name": "from",
          "type": "address"
        },
        {
          "internalType": "address",
          "name": "to",
          "type": "address"
        },
        {
          "internalType": "uint256",
          "name": "tokenId",
          "type": "uint256"
        },
        {
          "internalType": "bytes",
          "name": "_data",
          "type": "bytes"
        }
      ],
      "name": "safeTransferFrom",
      "outputs": [],
      "stateMutability": "nonpayable",
      "type": "function"
    },
    {
      "inputs": [
        {
          "internalType": "address",
          "name": "operator",
          "type": "address"
        },
        {
          "internalType": "bool",
          "name": "approved",
          "type": "bool"
        }
      ],
      "name": "setApprovalForAll",
      "outputs": [],
      "stateMutability": "nonpayable",
      "type": "function"
    },
    {
      "inputs": [],
      "name": "startTokenId",
      "outputs": [
        {
          "internalType": "uint256",
          "name": "",
          "type": "uint256"
        }
      ],
      "stateMutability": "view",
      "type": "function"
    },
    {
      "inputs": [
        {
          "internalType": "bytes4",
          "name": "interfaceId",
          "type": "bytes4"
        }
      ],
      "name": "supportsInterface",
      "outputs": [
        {
          "internalType": "bool",
          "name": "",
          "type": "bool"
        }
      ],
      "stateMutability": "view",
      "type": "function"
    },
    {
      "inputs": [],
      "name": "symbol",
      "outputs": [
        {
          "internalType": "string",
          "name": "",
          "type": "string"
        }
      ],
      "stateMutability": "view",
      "type": "function"
    },
    {
      "inputs": [
        {
          "internalType": "uint256",
          "name": "tokenId",
          "type": "uint256"
        }
      ],
      "name": "tokenURI",
      "outputs": [
        {
          "internalType": "string",
          "name": "",
          "type": "string"
        }
      ],
      "stateMutability": "view",
      "type": "function"
    },
    {
      "inputs": [],
      "name": "totalBurned",
      "outputs": [
        {
          "internalType": "uint256",
          "name": "",
          "type": "uint256"
        }
      ],
      "stateMutability": "view",
      "type": "function"
    },
    {
      "inputs": [],
      "name": "totalMinted",
      "outputs": [
        {
          "internalType": "uint256",
          "name": "",
          "type": "uint256"
        }
      ],
      "stateMutability": "view",
      "type": "function"
    },
    {
      "inputs": [],
      "name": "totalSupply",
      "outputs": [
        {
          "internalType": "uint256",
          "name": "",
          "type": "uint256"
        }
      ],
      "stateMutability": "view",
      "type": "function"
    },
    {
      "inputs": [
        {
          "internalType": "address",
          "name": "from",
          "type": "address"
        },
        {
          "internalType": "address",
          "name": "to",
          "type": "address"
        },
        {
          "internalType": "uint256",
          "name": "tokenId",
          "type": "uint256"
        }
      ],
      "name": "transferFrom",
      "outputs": [],
      "stateMutability": "nonpayable",
      "type": "function"
    }
  ],
  "bytecode": "0x60806040523480156200001157600080fd5b5060405162001491380380620014918339810160408190526200003491620001f4565b6000819055825183908390829082906200005690600390602085019062000081565b5080516200006c90600490602084019062000081565b5060005460015550620002a495505050505050565b8280546200008f9062000267565b90600052602060002090601f016020900481019282620000b35760008555620000fe565b82601f10620000ce57805160ff1916838001178555620000fe565b82800160010185558215620000fe579182015b82811115620000fe578251825591602001919060010190620000e1565b506200010c92915062000110565b5090565b5b808211156200010c576000815560010162000111565b634e487b7160e01b600052604160045260246000fd5b600082601f8301126200014f57600080fd5b81516001600160401b03808211156200016c576200016c62000127565b604051601f8301601f19908116603f0116810190828211818310171562000197576200019762000127565b81604052838152602092508683858801011115620001b457600080fd5b600091505b83821015620001d85785820183015181830184015290820190620001b9565b83821115620001ea5760008385830101525b9695505050505050565b6000806000606084860312156200020a57600080fd5b83516001600160401b03808211156200022257600080fd5b62000230878388016200013d565b945060208601519150808211156200024757600080fd5b5062000256868287016200013d565b925050604084015190509250925092565b600181811c908216806200027c57607f821691505b602082108114156200029e57634e487b7160e01b600052602260045260246000fd5b50919050565b6111dd80620002b46000396000f3fe608060405234801561001057600080fd5b50600436106101125760003560e01c806301ffc9a71461011757806306fdde031461013f578063081812fc14610154578063095ea7b31461017f57806318160ddd1461019457806323b872dd146101ae5780632478d639146101c157806342842e0e146101d457806342966c68146101e75780634f558e79146101fa5780636352211e1461020d57806370a082311461022057806395d89b4114610233578063a14481941461023b578063a22cb4651461024e578063a2309ff814610261578063b88d4fde1461026d578063c87b56dd14610280578063d89135cd14610293578063e6798baa1461029b578063e985e9c5146102a4578063f2523633146102e0575b600080fd5b61012a610125366004610e25565b61033f565b60405190151581526020015b60405180910390f35b610147610391565b6040516101369190610e9a565b610167610162366004610ead565b610423565b6040516001600160a01b039091168152602001610136565b61019261018d366004610ee2565b610467565b005b60005460025460015403035b604051908152602001610136565b6101926101bc366004610f0c565b610507565b6101a06101cf366004610f48565b610690565b6101926101e2366004610f0c565b6106bd565b6101926101f5366004610ead565b6106dd565b61012a610208366004610ead565b6106eb565b61016761021b366004610ead565b6106f6565b6101a061022e366004610f48565b610701565b61014761074f565b610192610249366004610ee2565b61075e565b61019261025c366004610f63565b61076c565b600054600154036101a0565b61019261027b366004610fb5565b610807565b61014761028e366004610ead565b610851565b6101a06108e3565b6101a060005481565b61012a6102b2366004611090565b6001600160a01b03918216600090815260086020908152604080832093909416825291909152205460ff1690565b6102f36102ee366004610ead565b6108ee565b604051610136919081516001600160a01b031681526020808301516001600160401b03169082015260408083015115159082015260609182015162ffffff169181019190915260800190565b60006301ffc9a760e01b6001600160e01b03198316148061037057506380ac58cd60e01b6001600160e01b03198316145b8061038b5750635b5e139f60e01b6001600160e01b03198316145b92915050565b6060600380546103a0906110c3565b80601f01602080910402602001604051908101604052809291908181526020018280546103cc906110c3565b80156104195780601f106103ee57610100808354040283529160200191610419565b820191906000526020600020905b8154815290600101906020018083116103fc57829003601f168201915b5050505050905090565b600061042e826108ff565b61044b576040516333d1c03960e21b815260040160405180910390fd5b506000908152600760205260409020546001600160a01b031690565b6000610472826106f6565b9050336001600160a01b038216146104ab5761048e81336102b2565b6104ab576040516367d9dca160e11b815260040160405180910390fd5b60008281526007602052604080822080546001600160a01b0319166001600160a01b0387811691821790925591518593918516917f8c5be1e5ebec7d5bd14f71427d1e84f3dd0314c0f7b2291e5b200ac8c7c3b92591a4505050565b60006105128261093b565b9050836001600160a01b0316816001600160a01b0316146105455760405162a1148160e81b815260040160405180910390fd5b600082815260076020526040902080546105718187335b6001600160a01b039081169116811491141790565b61059c5761057f86336102b2565b61059c57604051632ce44b5f60e11b815260040160405180910390fd5b6001600160a01b0385166105c357604051633a954ecd60e21b815260040160405180910390fd5b80156105ce57600082555b6001600160a01b0386811660009081526006602052604080822080546000190190559187168152208054600101905561060b85600160e11b6109ab565b600085815260056020526040902055600160e11b831661065957600184016000818152600560205260409020546106575760015481146106575760008181526005602052604090208490555b505b83856001600160a01b0316876001600160a01b031660008051602061118883398151915260405160405180910390a4505050505050565b600061038b826001600160a01b031660009081526006602052604090205460801c6001600160401b031690565b6106d883838360405180602001604052806000815250610807565b505050565b6106e88160016109c0565b50565b600061038b826108ff565b600061038b8261093b565b60006001600160a01b03821661072a576040516323d3ad8160e21b815260040160405180910390fd5b506001600160a01b03166000908152600660205260409020546001600160401b031690565b6060600480546103a0906110c3565b6107688282610aec565b5050565b6001600160a01b0382163314156107965760405163b06307db60e01b815260040160405180910390fd5b3360008181526008602090815260408083206001600160a01b03871680855290835292819020805460ff191686151590811790915590519081529192917f17307eab39ab6107e8899845ad3d59bd9653f200f220920489ca2b5937696c31910160405180910390a35050565b905090565b610812848484610507565b6001600160a01b0383163b1561084b5761082e84848484610b06565b61084b576040516368d2bf6b60e11b815260040160405180910390fd5b50505050565b606061085c826108ff565b61087957604051630a14c4b560e41b815260040160405180910390fd5b600061089060408051602081019091526000815290565b90508051600014156108b157604051806020016040528060008152506108dc565b806108bb84610bfd565b6040516020016108cc9291906110fe565b6040516020818303038152906040525b9392505050565b600061080260025490565b6108f6610de8565b61038b82610c4c565b60008161090b60005490565b1115801561091a575060015482105b801561038b575050600090815260056020526040902054600160e01b161590565b6000818061094860005490565b116109925760015481101561099257600081815260056020526040902054600160e01b8116610990575b806108dc575060001901600081815260056020526040902054610972565b505b604051636f96cda160e11b815260040160405180910390fd5b4260a01b176001600160a01b03919091161790565b60006109cb8361093b565b9050806000806109e986600090815260076020526040902080549091565b915091508415610a29576109fe81843361055c565b610a2957610a0c83336102b2565b610a2957604051632ce44b5f60e11b815260040160405180910390fd5b8015610a3457600082555b6001600160a01b038316600090815260066020526040902080546001600160801b03019055610a6783600360e01b6109ab565b600087815260056020526040902055600160e11b8416610ab55760018601600081815260056020526040902054610ab3576001548114610ab35760008181526005602052604090208590555b505b60405186906000906001600160a01b03861690600080516020611188833981519152908390a4505060028054600101905550505050565b610768828260405180602001604052806000815250610c6c565b604051630a85bd0160e11b81526000906001600160a01b0385169063150b7a0290610b3b90339089908890889060040161112d565b602060405180830381600087803b158015610b5557600080fd5b505af1925050508015610b85575060408051601f3d908101601f19168201909252610b829181019061116a565b60015b610be0573d808015610bb3576040519150601f19603f3d011682016040523d82523d6000602084013e610bb8565b606091505b508051610bd8576040516368d2bf6b60e11b815260040160405180910390fd5b805181602001fd5b6001600160e01b031916630a85bd0160e11b149050949350505050565b604080516080810191829052607f0190826030600a8206018353600a90045b8015610c3a57600183039250600a81066030018353600a9004610c1c565b50819003601f19909101908152919050565b610c54610de8565b60008281526005602052604090205461038b90610cd9565b610c768383610d1c565b6001600160a01b0383163b156106d8576001548281035b610ca06000868380600101945086610b06565b610cbd576040516368d2bf6b60e11b815260040160405180910390fd5b818110610c8d578160015414610cd257600080fd5b5050505050565b610ce1610de8565b6001600160a01b03821681526001600160401b0360a083901c166020820152600160e01b82161515604082015260e89190911c606082015290565b6001546001600160a01b038316610d4557604051622e076360e81b815260040160405180910390fd5b81610d635760405163b562e8dd60e01b815260040160405180910390fd5b6001600160a01b038316600090815260066020526040902080546001600160401b018402019055610d9a836001841460e11b6109ab565b600082815260056020526040902055808281015b6040516001830192906001600160a01b03871690600090600080516020611188833981519152908290a4808210610dae5760015550505050565b60408051608081018252600080825260208201819052918101829052606081019190915290565b6001600160e01b0319811681146106e857600080fd5b600060208284031215610e3757600080fd5b81356108dc81610e0f565b60005b83811015610e5d578181015183820152602001610e45565b8381111561084b5750506000910152565b60008151808452610e86816020860160208601610e42565b601f01601f19169290920160200192915050565b6020815260006108dc6020830184610e6e565b600060208284031215610ebf57600080fd5b5035919050565b80356001600160a01b0381168114610edd57600080fd5b919050565b60008060408385031215610ef557600080fd5b610efe83610ec6565b946020939093013593505050565b600080600060608486031215610f2157600080fd5b610f2a84610ec6565b9250610f3860208501610ec6565b9150604084013590509250925092565b600060208284031215610f5a57600080fd5b6108dc82610ec6565b60008060408385031215610f7657600080fd5b610f7f83610ec6565b915060208301358015158114610f9457600080fd5b809150509250929050565b634e487b7160e01b600052604160045260246000fd5b60008060008060808587031215610fcb57600080fd5b610fd485610ec6565b9350610fe260208601610ec6565b92506040850135915060608501356001600160401b038082111561100557600080fd5b818701915087601f83011261101957600080fd5b81358181111561102b5761102b610f9f565b604051601f8201601f19908116603f0116810190838211818310171561105357611053610f9f565b816040528281528a602084870101111561106c57600080fd5b82602086016020830137600060208483010152809550505050505092959194509250565b600080604083850312156110a357600080fd5b6110ac83610ec6565b91506110ba60208401610ec6565b90509250929050565b600181811c908216806110d757607f821691505b602082108114156110f857634e487b7160e01b600052602260045260246000fd5b50919050565b60008351611110818460208801610e42565b835190830190611124818360208801610e42565b01949350505050565b6001600160a01b038581168252841660208201526040810183905260806060820181905260009061116090830184610e6e565b9695505050505050565b60006020828403121561117c57600080fd5b81516108dc81610e0f56feddf252ad1be2c89b69c2b068fc378daa952ba7f163c4a11628f55a4df523b3efa26469706673582212207c43a835d94444ee3c5afcda9879a0747b564949bb37f12ef4caa3a95c83481164736f6c63430008090033",
  "linkReferences": {},
  "deployedLinkReferences": {}
}