{
  "_format": "hh-sol-artifact-1",
  "contractName": "ERC721AQueryableStartTokenIdMock",
  "sourceName": "contracts/nftERC721A/mocks/ERC721AQueryableStartTokenIdMock.sol",
  "abi": [
    {
      "inputs": [
        {
          "internalType": "string",
          "name": "name_",
          "type": "string"
        },
        {
          "internalType": "string",
          "name": "symbol_",
          "type": "string"
        },
        {
          "internalType": "uint256",
          "name": "startTokenId_",
          "type": "uint256"
        }
      ],
      "stateMutability": "nonpayable",
      "type": "constructor"
    },
    {
      "inputs": [],
      "name": "ApprovalCallerNotOwnerNorApproved",
      "type": "error"
    },
    {
      "inputs": [],
      "name": "ApprovalQueryForNonexistentToken",
      "type": "error"
    },
    {
      "inputs": [],
      "name": "ApproveToCaller",
      "type": "error"
    },
    {
      "inputs": [],
      "name": "BalanceQueryForZeroAddress",
      "type": "error"
    },
    {
      "inputs": [],
      "name": "InvalidQueryRange",
      "type": "error"
    },
    {
      "inputs": [],
      "name": "MintERC2309QuantityExceedsLimit",
      "type": "error"
    },
    {
      "inputs": [],
      "name": "MintToZeroAddress",
      "type": "error"
    },
    {
      "inputs": [],
      "name": "MintZeroQuantity",
      "type": "error"
    },
    {
      "inputs": [],
      "name": "OwnerQueryForNonexistentToken",
      "type": "error"
    },
    {
      "inputs": [],
      "name": "OwnershipNotInitializedForExtraData",
      "type": "error"
    },
    {
      "inputs": [],
      "name": "TransferCallerNotOwnerNorApproved",
      "type": "error"
    },
    {
      "inputs": [],
      "name": "TransferFromIncorrectOwner",
      "type": "error"
    },
    {
      "inputs": [],
      "name": "TransferToNonERC721ReceiverImplementer",
      "type": "error"
    },
    {
      "inputs": [],
      "name": "TransferToZeroAddress",
      "type": "error"
    },
    {
      "inputs": [],
      "name": "URIQueryForNonexistentToken",
      "type": "error"
    },
    {
      "anonymous": false,
      "inputs": [
        {
          "indexed": true,
          "internalType": "address",
          "name": "owner",
          "type": "address"
        },
        {
          "indexed": true,
          "internalType": "address",
          "name": "approved",
          "type": "address"
        },
        {
          "indexed": true,
          "internalType": "uint256",
          "name": "tokenId",
          "type": "uint256"
        }
      ],
      "name": "Approval",
      "type": "event"
    },
    {
      "anonymous": false,
      "inputs": [
        {
          "indexed": true,
          "internalType": "address",
          "name": "owner",
          "type": "address"
        },
        {
          "indexed": true,
          "internalType": "address",
          "name": "operator",
          "type": "address"
        },
        {
          "indexed": false,
          "internalType": "bool",
          "name": "approved",
          "type": "bool"
        }
      ],
      "name": "ApprovalForAll",
      "type": "event"
    },
    {
      "anonymous": false,
      "inputs": [
        {
          "indexed": true,
          "internalType": "uint256",
          "name": "fromTokenId",
          "type": "uint256"
        },
        {
          "indexed": false,
          "internalType": "uint256",
          "name": "toTokenId",
          "type": "uint256"
        },
        {
          "indexed": true,
          "internalType": "address",
          "name": "from",
          "type": "address"
        },
        {
          "indexed": true,
          "internalType": "address",
          "name": "to",
          "type": "address"
        }
      ],
      "name": "ConsecutiveTransfer",
      "type": "event"
    },
    {
      "anonymous": false,
      "inputs": [
        {
          "indexed": true,
          "internalType": "address",
          "name": "from",
          "type": "address"
        },
        {
          "indexed": true,
          "internalType": "address",
          "name": "to",
          "type": "address"
        },
        {
          "indexed": true,
          "internalType": "uint256",
          "name": "tokenId",
          "type": "uint256"
        }
      ],
      "name": "Transfer",
      "type": "event"
    },
    {
      "inputs": [
        {
          "internalType": "address",
          "name": "to",
          "type": "address"
        },
        {
          "internalType": "uint256",
          "name": "tokenId",
          "type": "uint256"
        }
      ],
      "name": "approve",
      "outputs": [],
      "stateMutability": "nonpayable",
      "type": "function"
    },
    {
      "inputs": [
        {
          "internalType": "address",
          "name": "owner",
          "type": "address"
        }
      ],
      "name": "balanceOf",
      "outputs": [
        {
          "internalType": "uint256",
          "name": "",
          "type": "uint256"
        }
      ],
      "stateMutability": "view",
      "type": "function"
    },
    {
      "inputs": [
        {
          "internalType": "uint256",
          "name": "tokenId",
          "type": "uint256"
        }
      ],
      "name": "burn",
      "outputs": [],
      "stateMutability": "nonpayable",
      "type": "function"
    },
    {
      "inputs": [
        {
          "internalType": "uint256",
          "name": "tokenId",
          "type": "uint256"
        }
      ],
      "name": "explicitOwnershipOf",
      "outputs": [
        {
          "components": [
            {
              "internalType": "address",
              "name": "addr",
              "type": "address"
            },
            {
              "internalType": "uint64",
              "name": "startTimestamp",
              "type": "uint64"
            },
            {
              "internalType": "bool",
              "name": "burned",
              "type": "bool"
            },
            {
              "internalType": "uint24",
              "name": "extraData",
              "type": "uint24"
            }
          ],
          "internalType": "struct IERC721A.TokenOwnership",
          "name": "",
          "type": "tuple"
        }
      ],
      "stateMutability": "view",
      "type": "function"
    },
    {
      "inputs": [
        {
          "internalType": "uint256[]",
          "name": "tokenIds",
          "type": "uint256[]"
        }
      ],
      "name": "explicitOwnershipsOf",
      "outputs": [
        {
          "components": [
            {
              "internalType": "address",
              "name": "addr",
              "type": "address"
            },
            {
              "internalType": "uint64",
              "name": "startTimestamp",
              "type": "uint64"
            },
            {
              "internalType": "bool",
              "name": "burned",
              "type": "bool"
            },
            {
              "internalType": "uint24",
              "name": "extraData",
              "type": "uint24"
            }
          ],
          "internalType": "struct IERC721A.TokenOwnership[]",
          "name": "",
          "type": "tuple[]"
        }
      ],
      "stateMutability": "view",
      "type": "function"
    },
    {
      "inputs": [
        {
          "internalType": "uint256",
          "name": "tokenId",
          "type": "uint256"
        }
      ],
      "name": "getApproved",
      "outputs": [
        {
          "internalType": "address",
          "name": "",
          "type": "address"
        }
      ],
      "stateMutability": "view",
      "type": "function"
    },
    {
      "inputs": [
        {
          "internalType": "address",
          "name": "owner",
          "type": "address"
        },
        {
          "internalType": "address",
          "name": "operator",
          "type": "address"
        }
      ],
      "name": "isApprovedForAll",
      "outputs": [
        {
          "internalType": "bool",
          "name": "",
          "type": "bool"
        }
      ],
      "stateMutability": "view",
      "type": "function"
    },
    {
      "inputs": [],
      "name": "name",
      "outputs": [
        {
          "internalType": "string",
          "name": "",
          "type": "string"
        }
      ],
      "stateMutability": "view",
      "type": "function"
    },
    {
      "inputs": [
        {
          "internalType": "uint256",
          "name": "tokenId",
          "type": "uint256"
        }
      ],
      "name": "ownerOf",
      "outputs": [
        {
          "internalType": "address",
          "name": "",
          "type": "address"
        }
      ],
      "stateMutability": "view",
      "type": "function"
    },
    {
      "inputs": [
        {
          "internalType": "address",
          "name": "to",
          "type": "address"
        },
        {
          "internalType": "uint256",
          "name": "quantity",
          "type": "uint256"
        }
      ],
      "name": "safeMint",
      "outputs": [],
      "stateMutability": "nonpayable",
      "type": "function"
    },
    {
      "inputs": [
        {
          "internalType": "address",
          "name": "from",
          "type": "address"
        },
        {
          "internalType": "address",
          "name": "to",
          "type": "address"
        },
        {
          "internalType": "uint256",
          "name": "tokenId",
          "type": "uint256"
        }
      ],
      "name": "safeTransferFrom",
      "outputs": [],
      "stateMutability": "nonpayable",
      "type": "function"
    },
    {
      "inputs": [
        {
          "internalType": "address",
          "name": "from",
          "type": "address"
        },
        {
          "internalType": "address",
          "name": "to",
          "type": "address"
        },
        {
          "internalType": "uint256",
          "name": "tokenId",
          "type": "uint256"
        },
        {
          "internalType": "bytes",
          "name": "_data",
          "type": "bytes"
        }
      ],
      "name": "safeTransferFrom",
      "outputs": [],
      "stateMutability": "nonpayable",
      "type": "function"
    },
    {
      "inputs": [
        {
          "internalType": "address",
          "name": "operator",
          "type": "address"
        },
        {
          "internalType": "bool",
          "name": "approved",
          "type": "bool"
        }
      ],
      "name": "setApprovalForAll",
      "outputs": [],
      "stateMutability": "nonpayable",
      "type": "function"
    },
    {
      "inputs": [],
      "name": "startTokenId",
      "outputs": [
        {
          "internalType": "uint256",
          "name": "",
          "type": "uint256"
        }
      ],
      "stateMutability": "view",
      "type": "function"
    },
    {
      "inputs": [
        {
          "internalType": "bytes4",
          "name": "interfaceId",
          "type": "bytes4"
        }
      ],
      "name": "supportsInterface",
      "outputs": [
        {
          "internalType": "bool",
          "name": "",
          "type": "bool"
        }
      ],
      "stateMutability": "view",
      "type": "function"
    },
    {
      "inputs": [],
      "name": "symbol",
      "outputs": [
        {
          "internalType": "string",
          "name": "",
          "type": "string"
        }
      ],
      "stateMutability": "view",
      "type": "function"
    },
    {
      "inputs": [
        {
          "internalType": "uint256",
          "name": "tokenId",
          "type": "uint256"
        }
      ],
      "name": "tokenURI",
      "outputs": [
        {
          "internalType": "string",
          "name": "",
          "type": "string"
        }
      ],
      "stateMutability": "view",
      "type": "function"
    },
    {
      "inputs": [
        {
          "internalType": "address",
          "name": "owner",
          "type": "address"
        }
      ],
      "name": "tokensOfOwner",
      "outputs": [
        {
          "internalType": "uint256[]",
          "name": "",
          "type": "uint256[]"
        }
      ],
      "stateMutability": "view",
      "type": "function"
    },
    {
      "inputs": [
        {
          "internalType": "address",
          "name": "owner",
          "type": "address"
        },
        {
          "internalType": "uint256",
          "name": "start",
          "type": "uint256"
        },
        {
          "internalType": "uint256",
          "name": "stop",
          "type": "uint256"
        }
      ],
      "name": "tokensOfOwnerIn",
      "outputs": [
        {
          "internalType": "uint256[]",
          "name": "",
          "type": "uint256[]"
        }
      ],
      "stateMutability": "view",
      "type": "function"
    },
    {
      "inputs": [],
      "name": "totalSupply",
      "outputs": [
        {
          "internalType": "uint256",
          "name": "",
          "type": "uint256"
        }
      ],
      "stateMutability": "view",
      "type": "function"
    },
    {
      "inputs": [
        {
          "internalType": "address",
          "name": "from",
          "type": "address"
        },
        {
          "internalType": "address",
          "name": "to",
          "type": "address"
        },
        {
          "internalType": "uint256",
          "name": "tokenId",
          "type": "uint256"
        }
      ],
      "name": "transferFrom",
      "outputs": [],
      "stateMutability": "nonpayable",
      "type": "function"
    }
  ],
  "bytecode": "0x60806040523480156200001157600080fd5b5060405162001970380380620019708339810160408190526200003491620001f4565b6000819055825183908390829082906200005690600390602085019062000081565b5080516200006c90600490602084019062000081565b5060005460015550620002a495505050505050565b8280546200008f9062000267565b90600052602060002090601f016020900481019282620000b35760008555620000fe565b82601f10620000ce57805160ff1916838001178555620000fe565b82800160010185558215620000fe579182015b82811115620000fe578251825591602001919060010190620000e1565b506200010c92915062000110565b5090565b5b808211156200010c576000815560010162000111565b634e487b7160e01b600052604160045260246000fd5b600082601f8301126200014f57600080fd5b81516001600160401b03808211156200016c576200016c62000127565b604051601f8301601f19908116603f0116810190828211818310171562000197576200019762000127565b81604052838152602092508683858801011115620001b457600080fd5b600091505b83821015620001d85785820183015181830184015290820190620001b9565b83821115620001ea5760008385830101525b9695505050505050565b6000806000606084860312156200020a57600080fd5b83516001600160401b03808211156200022257600080fd5b62000230878388016200013d565b945060208601519150808211156200024757600080fd5b5062000256868287016200013d565b925050604084015190509250925092565b600181811c908216806200027c57607f821691505b602082108114156200029e57634e487b7160e01b600052602260045260246000fd5b50919050565b6116bc80620002b46000396000f3fe608060405234801561001057600080fd5b50600436106101075760003560e01c806301ffc9a71461010c57806306fdde0314610134578063081812fc14610149578063095ea7b31461017457806318160ddd1461018957806323b872dd146101a357806342842e0e146101b657806342966c68146101c95780635bbb2177146101dc5780636352211e146101fc57806370a082311461020f5780638462151c1461022257806395d89b411461024257806399a2557a1461024a578063a14481941461025d578063a22cb46514610270578063b88d4fde14610283578063c23dc68f14610296578063c87b56dd146102b6578063e6798baa146102c9578063e985e9c5146102d2575b600080fd5b61011f61011a36600461113e565b6102e5565b60405190151581526020015b60405180910390f35b61013c610337565b60405161012b91906111b3565b61015c6101573660046111c6565b6103c9565b6040516001600160a01b03909116815260200161012b565b6101876101823660046111fb565b61040d565b005b60005460025460015403035b60405190815260200161012b565b6101876101b1366004611225565b6104ad565b6101876101c4366004611225565b610636565b6101876101d73660046111c6565b610656565b6101ef6101ea3660046112a7565b610664565b60405161012b9190611388565b61015c61020a3660046111c6565b610718565b61019561021d3660046113ca565b610723565b6102356102303660046113ca565b610771565b60405161012b91906113e5565b61013c61085f565b61023561025836600461141d565b61086e565b61018761026b3660046111fb565b610a01565b61018761027e366004611450565b610a0f565b61018761029136600461148c565b610aa5565b6102a96102a43660046111c6565b610aef565b60405161012b919061154b565b61013c6102c43660046111c6565b610b40565b61019560005481565b61011f6102e0366004611559565b610bd1565b60006301ffc9a760e01b6001600160e01b03198316148061031657506380ac58cd60e01b6001600160e01b03198316145b806103315750635b5e139f60e01b6001600160e01b03198316145b92915050565b6060600380546103469061158c565b80601f01602080910402602001604051908101604052809291908181526020018280546103729061158c565b80156103bf5780601f10610394576101008083540402835291602001916103bf565b820191906000526020600020905b8154815290600101906020018083116103a257829003601f168201915b5050505050905090565b60006103d482610bff565b6103f1576040516333d1c03960e21b815260040160405180910390fd5b506000908152600760205260409020546001600160a01b031690565b600061041882610718565b9050336001600160a01b03821614610451576104348133610bd1565b610451576040516367d9dca160e11b815260040160405180910390fd5b60008281526007602052604080822080546001600160a01b0319166001600160a01b0387811691821790925591518593918516917f8c5be1e5ebec7d5bd14f71427d1e84f3dd0314c0f7b2291e5b200ac8c7c3b92591a4505050565b60006104b882610c3b565b9050836001600160a01b0316816001600160a01b0316146104eb5760405162a1148160e81b815260040160405180910390fd5b600082815260076020526040902080546105178187335b6001600160a01b039081169116811491141790565b610542576105258633610bd1565b61054257604051632ce44b5f60e11b815260040160405180910390fd5b6001600160a01b03851661056957604051633a954ecd60e21b815260040160405180910390fd5b801561057457600082555b6001600160a01b038681166000908152600660205260408082208054600019019055918716815220805460010190556105b185600160e11b610cab565b600085815260056020526040902055600160e11b83166105ff57600184016000818152600560205260409020546105fd5760015481146105fd5760008181526005602052604090208490555b505b83856001600160a01b0316876001600160a01b031660008051602061166783398151915260405160405180910390a4505050505050565b61065183838360405180602001604052806000815250610aa5565b505050565b610661816001610cc0565b50565b80516060906000816001600160401b0381111561068357610683611261565b6040519080825280602002602001820160405280156106bc57816020015b6106a9611101565b8152602001906001900390816106a15790505b50905060005b828114610710576106eb8582815181106106de576106de6115c7565b6020026020010151610aef565b8282815181106106fd576106fd6115c7565b60209081029190910101526001016106c2565b509392505050565b600061033182610c3b565b60006001600160a01b03821661074c576040516323d3ad8160e21b815260040160405180910390fd5b506001600160a01b03166000908152600660205260409020546001600160401b031690565b6060600080600061078185610723565b90506000816001600160401b0381111561079d5761079d611261565b6040519080825280602002602001820160405280156107c6578160200160208202803683370190505b5090506107d1611101565b6000545b838614610853576107e581610dec565b91508160400151156107f65761084b565b81516001600160a01b03161561080b57815194505b876001600160a01b0316856001600160a01b0316141561084b578083878060010198508151811061083e5761083e6115c7565b6020026020010181815250505b6001016107d5565b50909695505050505050565b6060600480546103469061158c565b606081831061089057604051631960ccad60e11b815260040160405180910390fd5b60008061089c60015490565b90506108a760005490565b8510156108b45760005494505b808411156108c0578093505b60006108cb87610723565b9050848610156108ea57858503818110156108e4578091505b506108ee565b5060005b6000816001600160401b0381111561090857610908611261565b604051908082528060200260200182016040528015610931578160200160208202803683370190505b509050816109445793506109fa92505050565b600061094f88610aef565b905060008160400151610960575080515b885b8881141580156109725750848714155b156109ee5761098081610dec565b9250826040015115610991576109e6565b82516001600160a01b0316156109a657825191505b8a6001600160a01b0316826001600160a01b031614156109e657808488806001019950815181106109d9576109d96115c7565b6020026020010181815250505b600101610962565b50505092835250909150505b9392505050565b610a0b8282610e0c565b5050565b6001600160a01b038216331415610a395760405163b06307db60e01b815260040160405180910390fd5b3360008181526008602090815260408083206001600160a01b03871680855290835292819020805460ff191686151590811790915590519081529192917f17307eab39ab6107e8899845ad3d59bd9653f200f220920489ca2b5937696c31910160405180910390a35050565b610ab08484846104ad565b6001600160a01b0383163b15610ae957610acc84848484610e26565b610ae9576040516368d2bf6b60e11b815260040160405180910390fd5b50505050565b610af7611101565b610aff611101565b600054831080610b1157506001548310155b15610b1c5792915050565b610b2583610dec565b9050806040015115610b375792915050565b6109fa83610f1d565b6060610b4b82610bff565b610b6857604051630a14c4b560e41b815260040160405180910390fd5b6000610b7f60408051602081019091526000815290565b9050805160001415610ba057604051806020016040528060008152506109fa565b80610baa84610f36565b604051602001610bbb9291906115dd565b6040516020818303038152906040529392505050565b6001600160a01b03918216600090815260086020908152604080832093909416825291909152205460ff1690565b600081610c0b60005490565b11158015610c1a575060015482105b8015610331575050600090815260056020526040902054600160e01b161590565b60008180610c4860005490565b11610c9257600154811015610c9257600081815260056020526040902054600160e01b8116610c90575b806109fa575060001901600081815260056020526040902054610c72565b505b604051636f96cda160e11b815260040160405180910390fd5b4260a01b176001600160a01b03919091161790565b6000610ccb83610c3b565b905080600080610ce986600090815260076020526040902080549091565b915091508415610d2957610cfe818433610502565b610d2957610d0c8333610bd1565b610d2957604051632ce44b5f60e11b815260040160405180910390fd5b8015610d3457600082555b6001600160a01b038316600090815260066020526040902080546001600160801b03019055610d6783600360e01b610cab565b600087815260056020526040902055600160e11b8416610db55760018601600081815260056020526040902054610db3576001548114610db35760008181526005602052604090208590555b505b60405186906000906001600160a01b03861690600080516020611667833981519152908390a4505060028054600101905550505050565b610df4611101565b60008281526005602052604090205461033190610f85565b610a0b828260405180602001604052806000815250610fc8565b604051630a85bd0160e11b81526000906001600160a01b0385169063150b7a0290610e5b90339089908890889060040161160c565b602060405180830381600087803b158015610e7557600080fd5b505af1925050508015610ea5575060408051601f3d908101601f19168201909252610ea291810190611649565b60015b610f00573d808015610ed3576040519150601f19603f3d011682016040523d82523d6000602084013e610ed8565b606091505b508051610ef8576040516368d2bf6b60e11b815260040160405180910390fd5b805181602001fd5b6001600160e01b031916630a85bd0160e11b149050949350505050565b610f25611101565b610331610f3183610c3b565b610f85565b604080516080810191829052607f0190826030600a8206018353600a90045b8015610f7357600183039250600a81066030018353600a9004610f55565b50819003601f19909101908152919050565b610f8d611101565b6001600160a01b03821681526001600160401b0360a083901c166020820152600160e01b82161515604082015260e89190911c606082015290565b610fd28383611035565b6001600160a01b0383163b15610651576001548281035b610ffc6000868380600101945086610e26565b611019576040516368d2bf6b60e11b815260040160405180910390fd5b818110610fe957816001541461102e57600080fd5b5050505050565b6001546001600160a01b03831661105e57604051622e076360e81b815260040160405180910390fd5b8161107c5760405163b562e8dd60e01b815260040160405180910390fd5b6001600160a01b038316600090815260066020526040902080546001600160401b0184020190556110b3836001841460e11b610cab565b600082815260056020526040902055808281015b6040516001830192906001600160a01b03871690600090600080516020611667833981519152908290a48082106110c75760015550505050565b60408051608081018252600080825260208201819052918101829052606081019190915290565b6001600160e01b03198116811461066157600080fd5b60006020828403121561115057600080fd5b81356109fa81611128565b60005b8381101561117657818101518382015260200161115e565b83811115610ae95750506000910152565b6000815180845261119f81602086016020860161115b565b601f01601f19169290920160200192915050565b6020815260006109fa6020830184611187565b6000602082840312156111d857600080fd5b5035919050565b80356001600160a01b03811681146111f657600080fd5b919050565b6000806040838503121561120e57600080fd5b611217836111df565b946020939093013593505050565b60008060006060848603121561123a57600080fd5b611243846111df565b9250611251602085016111df565b9150604084013590509250925092565b634e487b7160e01b600052604160045260246000fd5b604051601f8201601f191681016001600160401b038111828210171561129f5761129f611261565b604052919050565b600060208083850312156112ba57600080fd5b82356001600160401b03808211156112d157600080fd5b818501915085601f8301126112e557600080fd5b8135818111156112f7576112f7611261565b8060051b9150611308848301611277565b818152918301840191848101908884111561132257600080fd5b938501935b8385101561134057843582529385019390850190611327565b98975050505050505050565b80516001600160a01b031682526020808201516001600160401b03169083015260408082015115159083015260609081015162ffffff16910152565b6020808252825182820181905260009190848201906040850190845b81811015610853576113b783855161134c565b92840192608092909201916001016113a4565b6000602082840312156113dc57600080fd5b6109fa826111df565b6020808252825182820181905260009190848201906040850190845b8181101561085357835183529284019291840191600101611401565b60008060006060848603121561143257600080fd5b61143b846111df565b95602085013595506040909401359392505050565b6000806040838503121561146357600080fd5b61146c836111df565b91506020830135801515811461148157600080fd5b809150509250929050565b600080600080608085870312156114a257600080fd5b6114ab856111df565b935060206114ba8187016111df565b93506040860135925060608601356001600160401b03808211156114dd57600080fd5b818801915088601f8301126114f157600080fd5b81358181111561150357611503611261565b611515601f8201601f19168501611277565b9150808252898482850101111561152b57600080fd5b808484018584013760008482840101525080935050505092959194509250565b60808101610331828461134c565b6000806040838503121561156c57600080fd5b611575836111df565b9150611583602084016111df565b90509250929050565b600181811c908216806115a057607f821691505b602082108114156115c157634e487b7160e01b600052602260045260246000fd5b50919050565b634e487b7160e01b600052603260045260246000fd5b600083516115ef81846020880161115b565b83519083019061160381836020880161115b565b01949350505050565b6001600160a01b038581168252841660208201526040810183905260806060820181905260009061163f90830184611187565b9695505050505050565b60006020828403121561165b57600080fd5b81516109fa8161112856feddf252ad1be2c89b69c2b068fc378daa952ba7f163c4a11628f55a4df523b3efa2646970667358221220e9fe1404fcd74f21e11b8ec4ed772170bb721da7c271e2da2a71d034047d538164736f6c63430008090033",
  "linkReferences": {},
  "deployedLinkReferences": {}
}