{
  "_format": "hh-sol-artifact-1",
  "contractName": "ERC721AStartTokenIdMock",
  "sourceName": "contracts/nftERC721A/mocks/ERC721AStartTokenIdMock.sol",
  "abi": [
    {
      "inputs": [
        {
          "internalType": "string",
          "name": "name_",
          "type": "string"
        },
        {
          "internalType": "string",
          "name": "symbol_",
          "type": "string"
        },
        {
          "internalType": "uint256",
          "name": "startTokenId_",
          "type": "uint256"
        }
      ],
      "stateMutability": "nonpayable",
      "type": "constructor"
    },
    {
      "inputs": [],
      "name": "ApprovalCallerNotOwnerNorApproved",
      "type": "error"
    },
    {
      "inputs": [],
      "name": "ApprovalQueryForNonexistentToken",
      "type": "error"
    },
    {
      "inputs": [],
      "name": "ApproveToCaller",
      "type": "error"
    },
    {
      "inputs": [],
      "name": "BalanceQueryForZeroAddress",
      "type": "error"
    },
    {
      "inputs": [],
      "name": "MintERC2309QuantityExceedsLimit",
      "type": "error"
    },
    {
      "inputs": [],
      "name": "MintToZeroAddress",
      "type": "error"
    },
    {
      "inputs": [],
      "name": "MintZeroQuantity",
      "type": "error"
    },
    {
      "inputs": [],
      "name": "OwnerQueryForNonexistentToken",
      "type": "error"
    },
    {
      "inputs": [],
      "name": "OwnershipNotInitializedForExtraData",
      "type": "error"
    },
    {
      "inputs": [],
      "name": "TransferCallerNotOwnerNorApproved",
      "type": "error"
    },
    {
      "inputs": [],
      "name": "TransferFromIncorrectOwner",
      "type": "error"
    },
    {
      "inputs": [],
      "name": "TransferToNonERC721ReceiverImplementer",
      "type": "error"
    },
    {
      "inputs": [],
      "name": "TransferToZeroAddress",
      "type": "error"
    },
    {
      "inputs": [],
      "name": "URIQueryForNonexistentToken",
      "type": "error"
    },
    {
      "anonymous": false,
      "inputs": [
        {
          "indexed": true,
          "internalType": "address",
          "name": "owner",
          "type": "address"
        },
        {
          "indexed": true,
          "internalType": "address",
          "name": "approved",
          "type": "address"
        },
        {
          "indexed": true,
          "internalType": "uint256",
          "name": "tokenId",
          "type": "uint256"
        }
      ],
      "name": "Approval",
      "type": "event"
    },
    {
      "anonymous": false,
      "inputs": [
        {
          "indexed": true,
          "internalType": "address",
          "name": "owner",
          "type": "address"
        },
        {
          "indexed": true,
          "internalType": "address",
          "name": "operator",
          "type": "address"
        },
        {
          "indexed": false,
          "internalType": "bool",
          "name": "approved",
          "type": "bool"
        }
      ],
      "name": "ApprovalForAll",
      "type": "event"
    },
    {
      "anonymous": false,
      "inputs": [
        {
          "indexed": true,
          "internalType": "uint256",
          "name": "fromTokenId",
          "type": "uint256"
        },
        {
          "indexed": false,
          "internalType": "uint256",
          "name": "toTokenId",
          "type": "uint256"
        },
        {
          "indexed": true,
          "internalType": "address",
          "name": "from",
          "type": "address"
        },
        {
          "indexed": true,
          "internalType": "address",
          "name": "to",
          "type": "address"
        }
      ],
      "name": "ConsecutiveTransfer",
      "type": "event"
    },
    {
      "anonymous": false,
      "inputs": [
        {
          "indexed": true,
          "internalType": "address",
          "name": "from",
          "type": "address"
        },
        {
          "indexed": true,
          "internalType": "address",
          "name": "to",
          "type": "address"
        },
        {
          "indexed": true,
          "internalType": "uint256",
          "name": "tokenId",
          "type": "uint256"
        }
      ],
      "name": "Transfer",
      "type": "event"
    },
    {
      "inputs": [
        {
          "internalType": "address",
          "name": "to",
          "type": "address"
        },
        {
          "internalType": "uint256",
          "name": "tokenId",
          "type": "uint256"
        }
      ],
      "name": "approve",
      "outputs": [],
      "stateMutability": "nonpayable",
      "type": "function"
    },
    {
      "inputs": [
        {
          "internalType": "address",
          "name": "owner",
          "type": "address"
        }
      ],
      "name": "balanceOf",
      "outputs": [
        {
          "internalType": "uint256",
          "name": "",
          "type": "uint256"
        }
      ],
      "stateMutability": "view",
      "type": "function"
    },
    {
      "inputs": [],
      "name": "baseURI",
      "outputs": [
        {
          "internalType": "string",
          "name": "",
          "type": "string"
        }
      ],
      "stateMutability": "view",
      "type": "function"
    },
    {
      "inputs": [
        {
          "internalType": "uint256",
          "name": "tokenId",
          "type": "uint256"
        }
      ],
      "name": "burn",
      "outputs": [],
      "stateMutability": "nonpayable",
      "type": "function"
    },
    {
      "inputs": [
        {
          "internalType": "uint256",
          "name": "tokenId",
          "type": "uint256"
        },
        {
          "internalType": "bool",
          "name": "approvalCheck",
          "type": "bool"
        }
      ],
      "name": "burn",
      "outputs": [],
      "stateMutability": "nonpayable",
      "type": "function"
    },
    {
      "inputs": [
        {
          "internalType": "uint256",
          "name": "tokenId",
          "type": "uint256"
        }
      ],
      "name": "exists",
      "outputs": [
        {
          "internalType": "bool",
          "name": "",
          "type": "bool"
        }
      ],
      "stateMutability": "view",
      "type": "function"
    },
    {
      "inputs": [
        {
          "internalType": "uint256",
          "name": "tokenId",
          "type": "uint256"
        }
      ],
      "name": "getApproved",
      "outputs": [
        {
          "internalType": "address",
          "name": "",
          "type": "address"
        }
      ],
      "stateMutability": "view",
      "type": "function"
    },
    {
      "inputs": [
        {
          "internalType": "address",
          "name": "owner",
          "type": "address"
        }
      ],
      "name": "getAux",
      "outputs": [
        {
          "internalType": "uint64",
          "name": "",
          "type": "uint64"
        }
      ],
      "stateMutability": "view",
      "type": "function"
    },
    {
      "inputs": [
        {
          "internalType": "uint256",
          "name": "index",
          "type": "uint256"
        }
      ],
      "name": "getOwnershipAt",
      "outputs": [
        {
          "components": [
            {
              "internalType": "address",
              "name": "addr",
              "type": "address"
            },
            {
              "internalType": "uint64",
              "name": "startTimestamp",
              "type": "uint64"
            },
            {
              "internalType": "bool",
              "name": "burned",
              "type": "bool"
            },
            {
              "internalType": "uint24",
              "name": "extraData",
              "type": "uint24"
            }
          ],
          "internalType": "struct IERC721A.TokenOwnership",
          "name": "",
          "type": "tuple"
        }
      ],
      "stateMutability": "view",
      "type": "function"
    },
    {
      "inputs": [
        {
          "internalType": "uint256",
          "name": "index",
          "type": "uint256"
        }
      ],
      "name": "getOwnershipOf",
      "outputs": [
        {
          "components": [
            {
              "internalType": "address",
              "name": "addr",
              "type": "address"
            },
            {
              "internalType": "uint64",
              "name": "startTimestamp",
              "type": "uint64"
            },
            {
              "internalType": "bool",
              "name": "burned",
              "type": "bool"
            },
            {
              "internalType": "uint24",
              "name": "extraData",
              "type": "uint24"
            }
          ],
          "internalType": "struct IERC721A.TokenOwnership",
          "name": "",
          "type": "tuple"
        }
      ],
      "stateMutability": "view",
      "type": "function"
    },
    {
      "inputs": [
        {
          "internalType": "uint256",
          "name": "index",
          "type": "uint256"
        }
      ],
      "name": "initializeOwnershipAt",
      "outputs": [],
      "stateMutability": "nonpayable",
      "type": "function"
    },
    {
      "inputs": [
        {
          "internalType": "address",
          "name": "owner",
          "type": "address"
        },
        {
          "internalType": "address",
          "name": "operator",
          "type": "address"
        }
      ],
      "name": "isApprovedForAll",
      "outputs": [
        {
          "internalType": "bool",
          "name": "",
          "type": "bool"
        }
      ],
      "stateMutability": "view",
      "type": "function"
    },
    {
      "inputs": [
        {
          "internalType": "address",
          "name": "to",
          "type": "address"
        },
        {
          "internalType": "uint256",
          "name": "quantity",
          "type": "uint256"
        }
      ],
      "name": "mint",
      "outputs": [],
      "stateMutability": "nonpayable",
      "type": "function"
    },
    {
      "inputs": [],
      "name": "name",
      "outputs": [
        {
          "internalType": "string",
          "name": "",
          "type": "string"
        }
      ],
      "stateMutability": "view",
      "type": "function"
    },
    {
      "inputs": [],
      "name": "nextTokenId",
      "outputs": [
        {
          "internalType": "uint256",
          "name": "",
          "type": "uint256"
        }
      ],
      "stateMutability": "view",
      "type": "function"
    },
    {
      "inputs": [
        {
          "internalType": "address",
          "name": "owner",
          "type": "address"
        }
      ],
      "name": "numberMinted",
      "outputs": [
        {
          "internalType": "uint256",
          "name": "",
          "type": "uint256"
        }
      ],
      "stateMutability": "view",
      "type": "function"
    },
    {
      "inputs": [
        {
          "internalType": "uint256",
          "name": "tokenId",
          "type": "uint256"
        }
      ],
      "name": "ownerOf",
      "outputs": [
        {
          "internalType": "address",
          "name": "",
          "type": "address"
        }
      ],
      "stateMutability": "view",
      "type": "function"
    },
    {
      "inputs": [
        {
          "internalType": "address",
          "name": "to",
          "type": "address"
        },
        {
          "internalType": "uint256",
          "name": "quantity",
          "type": "uint256"
        },
        {
          "internalType": "bytes",
          "name": "_data",
          "type": "bytes"
        }
      ],
      "name": "safeMint",
      "outputs": [],
      "stateMutability": "nonpayable",
      "type": "function"
    },
    {
      "inputs": [
        {
          "internalType": "address",
          "name": "to",
          "type": "address"
        },
        {
          "internalType": "uint256",
          "name": "quantity",
          "type": "uint256"
        }
      ],
      "name": "safeMint",
      "outputs": [],
      "stateMutability": "nonpayable",
      "type": "function"
    },
    {
      "inputs": [
        {
          "internalType": "address",
          "name": "from",
          "type": "address"
        },
        {
          "internalType": "address",
          "name": "to",
          "type": "address"
        },
        {
          "internalType": "uint256",
          "name": "tokenId",
          "type": "uint256"
        }
      ],
      "name": "safeTransferFrom",
      "outputs": [],
      "stateMutability": "nonpayable",
      "type": "function"
    },
    {
      "inputs": [
        {
          "internalType": "address",
          "name": "from",
          "type": "address"
        },
        {
          "internalType": "address",
          "name": "to",
          "type": "address"
        },
        {
          "internalType": "uint256",
          "name": "tokenId",
          "type": "uint256"
        },
        {
          "internalType": "bytes",
          "name": "_data",
          "type": "bytes"
        }
      ],
      "name": "safeTransferFrom",
      "outputs": [],
      "stateMutability": "nonpayable",
      "type": "function"
    },
    {
      "inputs": [
        {
          "internalType": "address",
          "name": "operator",
          "type": "address"
        },
        {
          "internalType": "bool",
          "name": "approved",
          "type": "bool"
        }
      ],
      "name": "setApprovalForAll",
      "outputs": [],
      "stateMutability": "nonpayable",
      "type": "function"
    },
    {
      "inputs": [
        {
          "internalType": "address",
          "name": "owner",
          "type": "address"
        },
        {
          "internalType": "uint64",
          "name": "aux",
          "type": "uint64"
        }
      ],
      "name": "setAux",
      "outputs": [],
      "stateMutability": "nonpayable",
      "type": "function"
    },
    {
      "inputs": [],
      "name": "startTokenId",
      "outputs": [
        {
          "internalType": "uint256",
          "name": "",
          "type": "uint256"
        }
      ],
      "stateMutability": "view",
      "type": "function"
    },
    {
      "inputs": [
        {
          "internalType": "bytes4",
          "name": "interfaceId",
          "type": "bytes4"
        }
      ],
      "name": "supportsInterface",
      "outputs": [
        {
          "internalType": "bool",
          "name": "",
          "type": "bool"
        }
      ],
      "stateMutability": "view",
      "type": "function"
    },
    {
      "inputs": [],
      "name": "symbol",
      "outputs": [
        {
          "internalType": "string",
          "name": "",
          "type": "string"
        }
      ],
      "stateMutability": "view",
      "type": "function"
    },
    {
      "inputs": [
        {
          "internalType": "uint256",
          "name": "x",
          "type": "uint256"
        }
      ],
      "name": "toString",
      "outputs": [
        {
          "internalType": "string",
          "name": "",
          "type": "string"
        }
      ],
      "stateMutability": "pure",
      "type": "function"
    },
    {
      "inputs": [
        {
          "internalType": "uint256",
          "name": "tokenId",
          "type": "uint256"
        }
      ],
      "name": "tokenURI",
      "outputs": [
        {
          "internalType": "string",
          "name": "",
          "type": "string"
        }
      ],
      "stateMutability": "view",
      "type": "function"
    },
    {
      "inputs": [],
      "name": "totalBurned",
      "outputs": [
        {
          "internalType": "uint256",
          "name": "",
          "type": "uint256"
        }
      ],
      "stateMutability": "view",
      "type": "function"
    },
    {
      "inputs": [],
      "name": "totalMinted",
      "outputs": [
        {
          "internalType": "uint256",
          "name": "",
          "type": "uint256"
        }
      ],
      "stateMutability": "view",
      "type": "function"
    },
    {
      "inputs": [],
      "name": "totalSupply",
      "outputs": [
        {
          "internalType": "uint256",
          "name": "",
          "type": "uint256"
        }
      ],
      "stateMutability": "view",
      "type": "function"
    },
    {
      "inputs": [
        {
          "internalType": "address",
          "name": "from",
          "type": "address"
        },
        {
          "internalType": "address",
          "name": "to",
          "type": "address"
        },
        {
          "internalType": "uint256",
          "name": "tokenId",
          "type": "uint256"
        }
      ],
      "name": "transferFrom",
      "outputs": [],
      "stateMutability": "nonpayable",
      "type": "function"
    }
  ],
  "bytecode": "0x60806040523480156200001157600080fd5b506040516200178d3803806200178d8339810160408190526200003491620001f4565b6000819055825183908390829082906200005690600390602085019062000081565b5080516200006c90600490602084019062000081565b5060005460015550620002a495505050505050565b8280546200008f9062000267565b90600052602060002090601f016020900481019282620000b35760008555620000fe565b82601f10620000ce57805160ff1916838001178555620000fe565b82800160010185558215620000fe579182015b82811115620000fe578251825591602001919060010190620000e1565b506200010c92915062000110565b5090565b5b808211156200010c576000815560010162000111565b634e487b7160e01b600052604160045260246000fd5b600082601f8301126200014f57600080fd5b81516001600160401b03808211156200016c576200016c62000127565b604051601f8301601f19908116603f0116810190828211818310171562000197576200019762000127565b81604052838152602092508683858801011115620001b457600080fd5b600091505b83821015620001d85785820183015181830184015290820190620001b9565b83821115620001ea5760008385830101525b9695505050505050565b6000806000606084860312156200020a57600080fd5b83516001600160401b03808211156200022257600080fd5b62000230878388016200013d565b945060208601519150808211156200024757600080fd5b5062000256868287016200013d565b925050604084015190509250925092565b600181811c908216806200027c57607f821691505b602082108114156200029e57634e487b7160e01b600052602260045260246000fd5b50919050565b6114d980620002b46000396000f3fe608060405234801561001057600080fd5b50600436106101805760003560e01c806301ffc9a71461018557806306fdde03146101ad578063081812fc146101c2578063095ea7b3146101ed57806318160ddd1461020257806323b872dd1461021c57806340c10f191461022f57806342842e0e1461024257806342966c6814610255578063453ab141146102685780634f558e79146102a757806352d8a4d1146102ba57806353b1233d146103195780636352211e1461032c5780636900a3ae1461033f5780636c0360eb1461035257806370a082311461035a57806375794a3c1461036d5780638832e6e31461037557806395d89b41146103885780639fac68cb14610390578063a1448194146103a3578063a22cb465146103b6578063a2309ff8146103c9578063b88d4fde146103d5578063bf0b175e146103e8578063c87b56dd14610413578063d89135cd14610426578063dc33e6811461042e578063e6798baa14610441578063e985e9c51461044a578063f252363314610486575b600080fd5b61019861019336600461104f565b610499565b60405190151581526020015b60405180910390f35b6101b56104eb565b6040516101a491906110c4565b6101d56101d03660046110d7565b61057d565b6040516001600160a01b0390911681526020016101a4565b6102006101fb36600461110c565b6105c1565b005b60005460025460015403035b6040519081526020016101a4565b61020061022a366004611136565b610661565b61020061023d36600461110c565b6107ea565b610200610250366004611136565b6107f8565b6102006102633660046110d7565b610818565b610200610276366004611172565b6001600160a01b0382166000908152600660205260409020805460c083901b6001600160c01b039091161790555050565b6101986102b53660046110d7565b610824565b6102cd6102c83660046110d7565b61082f565b6040516101a4919081516001600160a01b031681526020808301516001600160401b03169082015260408083015115159082015260609182015162ffffff169181019190915260800190565b6102006103273660046110d7565b610840565b6101d561033a3660046110d7565b610849565b6101b561034d3660046110d7565b610854565b6101b561085f565b61020e6103683660046111b5565b61087b565b61020e6108c9565b610200610383366004611272565b6108d4565b6101b56108df565b61020061039e3660046112d8565b6108ee565b6102006103b136600461110c565b6108f8565b6102006103c4366004611304565b610902565b6000546001540361020e565b6102006103e336600461132e565b610998565b6103fb6103f63660046111b5565b6109e2565b6040516001600160401b0390911681526020016101a4565b6101b56104213660046110d7565b610a03565b61020e610a95565b61020e61043c3660046111b5565b610aa0565b61020e60005481565b610198610458366004611395565b6001600160a01b03918216600090815260086020908152604080832093909416825291909152205460ff1690565b6102cd6104943660046110d7565b610aca565b60006301ffc9a760e01b6001600160e01b0319831614806104ca57506380ac58cd60e01b6001600160e01b03198316145b806104e55750635b5e139f60e01b6001600160e01b03198316145b92915050565b6060600380546104fa906113bf565b80601f0160208091040260200160405190810160405280929190818152602001828054610526906113bf565b80156105735780601f1061054857610100808354040283529160200191610573565b820191906000526020600020905b81548152906001019060200180831161055657829003601f168201915b5050505050905090565b600061058882610adb565b6105a5576040516333d1c03960e21b815260040160405180910390fd5b506000908152600760205260409020546001600160a01b031690565b60006105cc82610849565b9050336001600160a01b03821614610605576105e88133610458565b610605576040516367d9dca160e11b815260040160405180910390fd5b60008281526007602052604080822080546001600160a01b0319166001600160a01b0387811691821790925591518593918516917f8c5be1e5ebec7d5bd14f71427d1e84f3dd0314c0f7b2291e5b200ac8c7c3b92591a4505050565b600061066c82610b17565b9050836001600160a01b0316816001600160a01b03161461069f5760405162a1148160e81b815260040160405180910390fd5b600082815260076020526040902080546106cb8187335b6001600160a01b039081169116811491141790565b6106f6576106d98633610458565b6106f657604051632ce44b5f60e11b815260040160405180910390fd5b6001600160a01b03851661071d57604051633a954ecd60e21b815260040160405180910390fd5b801561072857600082555b6001600160a01b0386811660009081526006602052604080822080546000190190559187168152208054600101905561076585600160e11b610b87565b600085815260056020526040902055600160e11b83166107b357600184016000818152600560205260409020546107b15760015481146107b15760008181526005602052604090208490555b505b83856001600160a01b0316876001600160a01b031660008051602061148483398151915260405160405180910390a4505050505050565b6107f48282610b9c565b5050565b61081383838360405180602001604052806000815250610998565b505050565b61082181610c68565b50565b60006104e582610adb565b610837611012565b6104e582610c73565b61082181610c8c565b60006104e582610b17565b60606104e582610cba565b606061087660408051602081019091526000815290565b905090565b60006001600160a01b0382166108a4576040516323d3ad8160e21b815260040160405180910390fd5b506001600160a01b03166000908152600660205260409020546001600160401b031690565b600061087660015490565b610813838383610d09565b6060600480546104fa906113bf565b6107f48282610d76565b6107f48282610ea2565b6001600160a01b03821633141561092c5760405163b06307db60e01b815260040160405180910390fd5b3360008181526008602090815260408083206001600160a01b03871680855290835292819020805460ff191686151590811790915590519081529192917f17307eab39ab6107e8899845ad3d59bd9653f200f220920489ca2b5937696c31910160405180910390a35050565b6109a3848484610661565b6001600160a01b0383163b156109dc576109bf84848484610ebc565b6109dc576040516368d2bf6b60e11b815260040160405180910390fd5b50505050565b6001600160a01b03811660009081526006602052604081205460c01c6104e5565b6060610a0e82610adb565b610a2b57604051630a14c4b560e41b815260040160405180910390fd5b6000610a4260408051602081019091526000815290565b9050805160001415610a635760405180602001604052806000815250610a8e565b80610a6d84610cba565b604051602001610a7e9291906113fa565b6040516020818303038152906040525b9392505050565b600061087660025490565b6001600160a01b038116600090815260066020526040808220546001600160401b03911c166104e5565b610ad2611012565b6104e582610fb3565b600081610ae760005490565b11158015610af6575060015482105b80156104e5575050600090815260056020526040902054600160e01b161590565b60008180610b2460005490565b11610b6e57600154811015610b6e57600081815260056020526040902054600160e01b8116610b6c575b80610a8e575060001901600081815260056020526040902054610b4e565b505b604051636f96cda160e11b815260040160405180910390fd5b4260a01b176001600160a01b03919091161790565b6001546001600160a01b038316610bc557604051622e076360e81b815260040160405180910390fd5b81610be35760405163b562e8dd60e01b815260040160405180910390fd5b6001600160a01b038316600090815260066020526040902080546001600160401b018402019055610c1a836001841460e11b610b87565b600082815260056020526040902055808281015b6040516001830192906001600160a01b03871690600090600080516020611484833981519152908290a4808210610c2e5760015550505050565b610821816000610d76565b610c7b611012565b6104e5610c8783610b17565b610fcf565b60008181526005602052604090205461082157610ca881610b17565b60008281526005602052604090205550565b604080516080810191829052607f0190826030600a8206018353600a90045b8015610cf757600183039250600a81066030018353600a9004610cd9565b50819003601f19909101908152919050565b610d138383610b9c565b6001600160a01b0383163b15610813576001548281035b610d3d6000868380600101945086610ebc565b610d5a576040516368d2bf6b60e11b815260040160405180910390fd5b818110610d2a578160015414610d6f57600080fd5b5050505050565b6000610d8183610b17565b905080600080610d9f86600090815260076020526040902080549091565b915091508415610ddf57610db48184336106b6565b610ddf57610dc28333610458565b610ddf57604051632ce44b5f60e11b815260040160405180910390fd5b8015610dea57600082555b6001600160a01b038316600090815260066020526040902080546001600160801b03019055610e1d83600360e01b610b87565b600087815260056020526040902055600160e11b8416610e6b5760018601600081815260056020526040902054610e69576001548114610e695760008181526005602052604090208590555b505b60405186906000906001600160a01b03861690600080516020611484833981519152908390a4505060028054600101905550505050565b6107f4828260405180602001604052806000815250610d09565b604051630a85bd0160e11b81526000906001600160a01b0385169063150b7a0290610ef1903390899088908890600401611429565b602060405180830381600087803b158015610f0b57600080fd5b505af1925050508015610f3b575060408051601f3d908101601f19168201909252610f3891810190611466565b60015b610f96573d808015610f69576040519150601f19603f3d011682016040523d82523d6000602084013e610f6e565b606091505b508051610f8e576040516368d2bf6b60e11b815260040160405180910390fd5b805181602001fd5b6001600160e01b031916630a85bd0160e11b149050949350505050565b610fbb611012565b6000828152600560205260409020546104e5905b610fd7611012565b6001600160a01b03821681526001600160401b0360a083901c166020820152600160e01b82161515604082015260e89190911c606082015290565b60408051608081018252600080825260208201819052918101829052606081019190915290565b6001600160e01b03198116811461082157600080fd5b60006020828403121561106157600080fd5b8135610a8e81611039565b60005b8381101561108757818101518382015260200161106f565b838111156109dc5750506000910152565b600081518084526110b081602086016020860161106c565b601f01601f19169290920160200192915050565b602081526000610a8e6020830184611098565b6000602082840312156110e957600080fd5b5035919050565b80356001600160a01b038116811461110757600080fd5b919050565b6000806040838503121561111f57600080fd5b611128836110f0565b946020939093013593505050565b60008060006060848603121561114b57600080fd5b611154846110f0565b9250611162602085016110f0565b9150604084013590509250925092565b6000806040838503121561118557600080fd5b61118e836110f0565b915060208301356001600160401b03811681146111aa57600080fd5b809150509250929050565b6000602082840312156111c757600080fd5b610a8e826110f0565b634e487b7160e01b600052604160045260246000fd5b600082601f8301126111f757600080fd5b81356001600160401b0380821115611211576112116111d0565b604051601f8301601f19908116603f01168101908282118183101715611239576112396111d0565b8160405283815286602085880101111561125257600080fd5b836020870160208301376000602085830101528094505050505092915050565b60008060006060848603121561128757600080fd5b611290846110f0565b92506020840135915060408401356001600160401b038111156112b257600080fd5b6112be868287016111e6565b9150509250925092565b8035801515811461110757600080fd5b600080604083850312156112eb57600080fd5b823591506112fb602084016112c8565b90509250929050565b6000806040838503121561131757600080fd5b611320836110f0565b91506112fb602084016112c8565b6000806000806080858703121561134457600080fd5b61134d856110f0565b935061135b602086016110f0565b92506040850135915060608501356001600160401b0381111561137d57600080fd5b611389878288016111e6565b91505092959194509250565b600080604083850312156113a857600080fd5b6113b1836110f0565b91506112fb602084016110f0565b600181811c908216806113d357607f821691505b602082108114156113f457634e487b7160e01b600052602260045260246000fd5b50919050565b6000835161140c81846020880161106c565b83519083019061142081836020880161106c565b01949350505050565b6001600160a01b038581168252841660208201526040810183905260806060820181905260009061145c90830184611098565b9695505050505050565b60006020828403121561147857600080fd5b8151610a8e8161103956feddf252ad1be2c89b69c2b068fc378daa952ba7f163c4a11628f55a4df523b3efa2646970667358221220f4c2ad00cbe12b3c3fafd02b38f4ad6300c737287f1659a4666dd53f1469c4a064736f6c63430008090033",
  "linkReferences": {},
  "deployedLinkReferences": {}
}