{
  "_format": "hh-sol-artifact-1",
  "contractName": "abhipoap",
  "sourceName": "contracts/abhipoap.sol",
  "abi": [
    {
      "inputs": [],
      "stateMutability": "nonpayable",
      "type": "constructor"
    },
    {
      "inputs": [],
      "name": "ApprovalCallerNotOwnerNorApproved",
      "type": "error"
    },
    {
      "inputs": [],
      "name": "ApprovalQueryForNonexistentToken",
      "type": "error"
    },
    {
      "inputs": [],
      "name": "BalanceQueryForZeroAddress",
      "type": "error"
    },
    {
      "inputs": [],
      "name": "MintERC2309QuantityExceedsLimit",
      "type": "error"
    },
    {
      "inputs": [],
      "name": "MintToZeroAddress",
      "type": "error"
    },
    {
      "inputs": [],
      "name": "MintZeroQuantity",
      "type": "error"
    },
    {
      "inputs": [],
      "name": "OwnerQueryForNonexistentToken",
      "type": "error"
    },
    {
      "inputs": [],
      "name": "OwnershipNotInitializedForExtraData",
      "type": "error"
    },
    {
      "inputs": [],
      "name": "TransferCallerNotOwnerNorApproved",
      "type": "error"
    },
    {
      "inputs": [],
      "name": "TransferFromIncorrectOwner",
      "type": "error"
    },
    {
      "inputs": [],
      "name": "TransferToNonERC721ReceiverImplementer",
      "type": "error"
    },
    {
      "inputs": [],
      "name": "TransferToZeroAddress",
      "type": "error"
    },
    {
      "inputs": [],
      "name": "URIQueryForNonexistentToken",
      "type": "error"
    },
    {
      "anonymous": false,
      "inputs": [
        {
          "indexed": true,
          "internalType": "address",
          "name": "owner",
          "type": "address"
        },
        {
          "indexed": true,
          "internalType": "address",
          "name": "approved",
          "type": "address"
        },
        {
          "indexed": true,
          "internalType": "uint256",
          "name": "tokenId",
          "type": "uint256"
        }
      ],
      "name": "Approval",
      "type": "event"
    },
    {
      "anonymous": false,
      "inputs": [
        {
          "indexed": true,
          "internalType": "address",
          "name": "owner",
          "type": "address"
        },
        {
          "indexed": true,
          "internalType": "address",
          "name": "operator",
          "type": "address"
        },
        {
          "indexed": false,
          "internalType": "bool",
          "name": "approved",
          "type": "bool"
        }
      ],
      "name": "ApprovalForAll",
      "type": "event"
    },
    {
      "anonymous": false,
      "inputs": [
        {
          "indexed": true,
          "internalType": "address",
          "name": "to",
          "type": "address"
        },
        {
          "indexed": false,
          "internalType": "uint256",
          "name": "_tokenId",
          "type": "uint256"
        }
      ],
      "name": "Attest",
      "type": "event"
    },
    {
      "anonymous": false,
      "inputs": [
        {
          "indexed": true,
          "internalType": "uint256",
          "name": "fromTokenId",
          "type": "uint256"
        },
        {
          "indexed": false,
          "internalType": "uint256",
          "name": "toTokenId",
          "type": "uint256"
        },
        {
          "indexed": true,
          "internalType": "address",
          "name": "from",
          "type": "address"
        },
        {
          "indexed": true,
          "internalType": "address",
          "name": "to",
          "type": "address"
        }
      ],
      "name": "ConsecutiveTransfer",
      "type": "event"
    },
    {
      "anonymous": false,
      "inputs": [
        {
          "indexed": false,
          "internalType": "address",
          "name": "sender",
          "type": "address"
        },
        {
          "indexed": false,
          "internalType": "uint256",
          "name": "tokenId",
          "type": "uint256"
        },
        {
          "indexed": false,
          "internalType": "string",
          "name": "tokenURI",
          "type": "string"
        }
      ],
      "name": "NewNFTMinted",
      "type": "event"
    },
    {
      "anonymous": false,
      "inputs": [
        {
          "indexed": true,
          "internalType": "address",
          "name": "previousOwner",
          "type": "address"
        },
        {
          "indexed": true,
          "internalType": "address",
          "name": "newOwner",
          "type": "address"
        }
      ],
      "name": "OwnershipTransferred",
      "type": "event"
    },
    {
      "anonymous": false,
      "inputs": [
        {
          "indexed": true,
          "internalType": "address",
          "name": "to",
          "type": "address"
        },
        {
          "indexed": false,
          "internalType": "uint256",
          "name": "_tokenId",
          "type": "uint256"
        }
      ],
      "name": "Revoke",
      "type": "event"
    },
    {
      "anonymous": false,
      "inputs": [
        {
          "indexed": true,
          "internalType": "address",
          "name": "from",
          "type": "address"
        },
        {
          "indexed": true,
          "internalType": "address",
          "name": "to",
          "type": "address"
        },
        {
          "indexed": true,
          "internalType": "uint256",
          "name": "tokenId",
          "type": "uint256"
        }
      ],
      "name": "Transfer",
      "type": "event"
    },
    {
      "inputs": [
        {
          "internalType": "address",
          "name": "to",
          "type": "address"
        },
        {
          "internalType": "uint256",
          "name": "tokenId",
          "type": "uint256"
        }
      ],
      "name": "approve",
      "outputs": [],
      "stateMutability": "payable",
      "type": "function"
    },
    {
      "inputs": [
        {
          "internalType": "address",
          "name": "owner",
          "type": "address"
        }
      ],
      "name": "balanceOf",
      "outputs": [
        {
          "internalType": "uint256",
          "name": "",
          "type": "uint256"
        }
      ],
      "stateMutability": "view",
      "type": "function"
    },
    {
      "inputs": [],
      "name": "baseURI",
      "outputs": [
        {
          "internalType": "string",
          "name": "",
          "type": "string"
        }
      ],
      "stateMutability": "view",
      "type": "function"
    },
    {
      "inputs": [],
      "name": "burnProfileActive",
      "outputs": [
        {
          "internalType": "bool",
          "name": "",
          "type": "bool"
        }
      ],
      "stateMutability": "view",
      "type": "function"
    },
    {
      "inputs": [
        {
          "internalType": "uint256",
          "name": "tokenId",
          "type": "uint256"
        }
      ],
      "name": "burnToken",
      "outputs": [],
      "stateMutability": "nonpayable",
      "type": "function"
    },
    {
      "inputs": [],
      "name": "currentSupply",
      "outputs": [
        {
          "internalType": "uint256",
          "name": "",
          "type": "uint256"
        }
      ],
      "stateMutability": "view",
      "type": "function"
    },
    {
      "inputs": [
        {
          "internalType": "uint256",
          "name": "tokenId",
          "type": "uint256"
        }
      ],
      "name": "getApproved",
      "outputs": [
        {
          "internalType": "address",
          "name": "",
          "type": "address"
        }
      ],
      "stateMutability": "view",
      "type": "function"
    },
    {
      "inputs": [
        {
          "internalType": "address",
          "name": "owner",
          "type": "address"
        },
        {
          "internalType": "address",
          "name": "operator",
          "type": "address"
        }
      ],
      "name": "isApprovedForAll",
      "outputs": [
        {
          "internalType": "bool",
          "name": "",
          "type": "bool"
        }
      ],
      "stateMutability": "view",
      "type": "function"
    },
    {
      "inputs": [],
      "name": "maxSupply",
      "outputs": [
        {
          "internalType": "uint256",
          "name": "",
          "type": "uint256"
        }
      ],
      "stateMutability": "view",
      "type": "function"
    },
    {
      "inputs": [
        {
          "internalType": "address",
          "name": "toAddress",
          "type": "address"
        }
      ],
      "name": "mintTrutsNFT",
      "outputs": [],
      "stateMutability": "nonpayable",
      "type": "function"
    },
    {
      "inputs": [],
      "name": "name",
      "outputs": [
        {
          "internalType": "string",
          "name": "",
          "type": "string"
        }
      ],
      "stateMutability": "view",
      "type": "function"
    },
    {
      "inputs": [],
      "name": "owner",
      "outputs": [
        {
          "internalType": "address",
          "name": "",
          "type": "address"
        }
      ],
      "stateMutability": "view",
      "type": "function"
    },
    {
      "inputs": [
        {
          "internalType": "uint256",
          "name": "tokenId",
          "type": "uint256"
        }
      ],
      "name": "ownerOf",
      "outputs": [
        {
          "internalType": "address",
          "name": "",
          "type": "address"
        }
      ],
      "stateMutability": "view",
      "type": "function"
    },
    {
      "inputs": [],
      "name": "publicMintActive",
      "outputs": [
        {
          "internalType": "bool",
          "name": "",
          "type": "bool"
        }
      ],
      "stateMutability": "view",
      "type": "function"
    },
    {
      "inputs": [],
      "name": "renounceOwnership",
      "outputs": [],
      "stateMutability": "nonpayable",
      "type": "function"
    },
    {
      "inputs": [
        {
          "internalType": "address",
          "name": "from",
          "type": "address"
        },
        {
          "internalType": "address",
          "name": "to",
          "type": "address"
        },
        {
          "internalType": "uint256",
          "name": "tokenId",
          "type": "uint256"
        }
      ],
      "name": "safeTransferFrom",
      "outputs": [],
      "stateMutability": "payable",
      "type": "function"
    },
    {
      "inputs": [
        {
          "internalType": "address",
          "name": "from",
          "type": "address"
        },
        {
          "internalType": "address",
          "name": "to",
          "type": "address"
        },
        {
          "internalType": "uint256",
          "name": "tokenId",
          "type": "uint256"
        },
        {
          "internalType": "bytes",
          "name": "_data",
          "type": "bytes"
        }
      ],
      "name": "safeTransferFrom",
      "outputs": [],
      "stateMutability": "payable",
      "type": "function"
    },
    {
      "inputs": [
        {
          "internalType": "address",
          "name": "operator",
          "type": "address"
        },
        {
          "internalType": "bool",
          "name": "approved",
          "type": "bool"
        }
      ],
      "name": "setApprovalForAll",
      "outputs": [],
      "stateMutability": "nonpayable",
      "type": "function"
    },
    {
      "inputs": [
        {
          "internalType": "string",
          "name": "_newBaseURI",
          "type": "string"
        }
      ],
      "name": "setBaseURI",
      "outputs": [],
      "stateMutability": "nonpayable",
      "type": "function"
    },
    {
      "inputs": [
        {
          "internalType": "uint256",
          "name": "_maxSupply",
          "type": "uint256"
        }
      ],
      "name": "setMaxSupply",
      "outputs": [],
      "stateMutability": "nonpayable",
      "type": "function"
    },
    {
      "inputs": [
        {
          "internalType": "bool",
          "name": "_publicMintActive",
          "type": "bool"
        }
      ],
      "name": "setPublicMintActive",
      "outputs": [],
      "stateMutability": "nonpayable",
      "type": "function"
    },
    {
      "inputs": [
        {
          "internalType": "bytes4",
          "name": "interfaceId",
          "type": "bytes4"
        }
      ],
      "name": "supportsInterface",
      "outputs": [
        {
          "internalType": "bool",
          "name": "",
          "type": "bool"
        }
      ],
      "stateMutability": "view",
      "type": "function"
    },
    {
      "inputs": [],
      "name": "symbol",
      "outputs": [
        {
          "internalType": "string",
          "name": "",
          "type": "string"
        }
      ],
      "stateMutability": "view",
      "type": "function"
    },
    {
      "inputs": [
        {
          "internalType": "uint256",
          "name": "tokenId",
          "type": "uint256"
        }
      ],
      "name": "tokenURI",
      "outputs": [
        {
          "internalType": "string",
          "name": "",
          "type": "string"
        }
      ],
      "stateMutability": "view",
      "type": "function"
    },
    {
      "inputs": [],
      "name": "totalSupply",
      "outputs": [
        {
          "internalType": "uint256",
          "name": "",
          "type": "uint256"
        }
      ],
      "stateMutability": "view",
      "type": "function"
    },
    {
      "inputs": [
        {
          "internalType": "address",
          "name": "from",
          "type": "address"
        },
        {
          "internalType": "address",
          "name": "to",
          "type": "address"
        },
        {
          "internalType": "uint256",
          "name": "tokenId",
          "type": "uint256"
        }
      ],
      "name": "transferFrom",
      "outputs": [],
      "stateMutability": "payable",
      "type": "function"
    },
    {
      "inputs": [
        {
          "internalType": "address",
          "name": "newOwner",
          "type": "address"
        }
      ],
      "name": "transferOwnership",
      "outputs": [],
      "stateMutability": "nonpayable",
      "type": "function"
    }
  ],
  "bytecode": "0x60806040526001600a5560c8600b55600c805461ffff191690553480156200002657600080fd5b50604080518082018252601281527102834b63630b4902632b0b937102bb2b119960751b6020808301918252835180850190945260038452624c573360e81b9084015281519192916200007c91600291620001a2565b50805162000092906003906020840190620001a2565b50506000805550620000a433620000e1565b6001600981905550620000db60405180606001604052806037815260200162001c29603791396200013360201b62000ceb1760201c565b620002dd565b600880546001600160a01b038381166001600160a01b0319831681179093556040519116919082907f8be0079c531659141344cd1fd0a4f28419497f9722a3daafe3b4186f6b6457e090600090a35050565b6200017e816040516024016200014a919062000248565b60408051601f198184030181529190526020810180516001600160e01b0390811663104c13eb60e21b179091526200018116565b50565b80516a636f6e736f6c652e6c6f67602083016000808483855afa5050505050565b828054620001b090620002a0565b90600052602060002090601f016020900481019282620001d457600085556200021f565b82601f10620001ef57805160ff19168380011785556200021f565b828001600101855582156200021f579182015b828111156200021f57825182559160200191906001019062000202565b506200022d92915062000231565b5090565b5b808211156200022d576000815560010162000232565b600060208083528351808285015260005b81811015620002775785810183015185820160400152820162000259565b818111156200028a576000604083870101525b50601f01601f1916929092016040019392505050565b600181811c90821680620002b557607f821691505b60208210811415620002d757634e487b7160e01b600052602260045260246000fd5b50919050565b61193c80620002ed6000396000f3fe60806040526004361061013c5760003560e01c806301ffc9a71461014157806306fdde0314610176578063081812fc14610198578063095ea7b3146101d057806318160ddd146101e557806323b872dd146102085780632b707c711461021b57806342842e0e1461023b57806355f804b31461024e5780636352211e1461026e5780636c0360eb1461028e5780636f8b44b0146102a357806370a08231146102c3578063715018a6146102e3578063771282f6146102f85780637b47ec1a1461030e5780638da5cb5b1461032e57806395d89b4114610343578063a22cb46514610358578063b67c25a314610378578063b88d4fde14610392578063c87b56dd146103a5578063cac44c9a146103c5578063d3c64def146103e4578063d5abeb0114610404578063e985e9c51461041a578063f2fde38b14610463575b600080fd5b34801561014d57600080fd5b5061016161015c366004611477565b610483565b60405190151581526020015b60405180910390f35b34801561018257600080fd5b5061018b6104d5565b60405161016d91906114e1565b3480156101a457600080fd5b506101b86101b33660046114f4565b610567565b6040516001600160a01b03909116815260200161016d565b6101e36101de366004611529565b6105ab565b005b3480156101f157600080fd5b50600154600054035b60405190815260200161016d565b6101e3610216366004611553565b61064b565b34801561022757600080fd5b506101e361023636600461159f565b6107ee565b6101e3610249366004611553565b610809565b34801561025a57600080fd5b506101e3610269366004611645565b610829565b34801561027a57600080fd5b506101b86102893660046114f4565b610848565b34801561029a57600080fd5b5061018b610853565b3480156102af57600080fd5b506101e36102be3660046114f4565b6108e1565b3480156102cf57600080fd5b506101fa6102de36600461168d565b6108ee565b3480156102ef57600080fd5b506101e361093c565b34801561030457600080fd5b506101fa600a5481565b34801561031a57600080fd5b506101e36103293660046114f4565b610950565b34801561033a57600080fd5b506101b8610a38565b34801561034f57600080fd5b5061018b610a47565b34801561036457600080fd5b506101e36103733660046116a8565b610a56565b34801561038457600080fd5b50600c546101619060ff1681565b6101e36103a03660046116db565b610ac2565b3480156103b157600080fd5b5061018b6103c03660046114f4565b610b0c565b3480156103d157600080fd5b50600c5461016190610100900460ff1681565b3480156103f057600080fd5b506101e36103ff36600461168d565b610b1f565b34801561041057600080fd5b506101fa600b5481565b34801561042657600080fd5b50610161610435366004611756565b6001600160a01b03918216600090815260076020908152604080832093909416825291909152205460ff1690565b34801561046f57600080fd5b506101e361047e36600461168d565b610c75565b60006301ffc9a760e01b6001600160e01b0319831614806104b457506380ac58cd60e01b6001600160e01b03198316145b806104cf5750635b5e139f60e01b6001600160e01b03198316145b92915050565b6060600280546104e490611780565b80601f016020809104026020016040519081016040528092919081815260200182805461051090611780565b801561055d5780601f106105325761010080835404028352916020019161055d565b820191906000526020600020905b81548152906001019060200180831161054057829003601f168201915b5050505050905090565b600061057282610d2e565b61058f576040516333d1c03960e21b815260040160405180910390fd5b506000908152600660205260409020546001600160a01b031690565b60006105b682610848565b9050336001600160a01b038216146105ef576105d28133610435565b6105ef576040516367d9dca160e11b815260040160405180910390fd5b60008281526006602052604080822080546001600160a01b0319166001600160a01b0387811691821790925591518593918516917f8c5be1e5ebec7d5bd14f71427d1e84f3dd0314c0f7b2291e5b200ac8c7c3b92591a4505050565b600061065682610d55565b9050836001600160a01b0316816001600160a01b0316146106895760405162a1148160e81b815260040160405180910390fd5b600082815260066020526040902080546106b58187335b6001600160a01b039081169116811491141790565b6106e0576106c38633610435565b6106e057604051632ce44b5f60e11b815260040160405180910390fd5b6001600160a01b03851661070757604051633a954ecd60e21b815260040160405180910390fd5b6107148686866001610db6565b801561071f57600082555b6001600160a01b0386811660009081526005602052604080822080546000190190559187168152208054600101905561075c85600160e11b610e1e565b600085815260046020526040902055600160e11b83166107aa57600184016000818152600460205260409020546107a85760005481146107a85760008181526004602052604090208490555b505b83856001600160a01b0316876001600160a01b03166000805160206118e783398151915260405160405180910390a46107e68686866001610e33565b505050505050565b6107f6610edc565b600c805460ff1916911515919091179055565b61082483838360405180602001604052806000815250610ac2565b505050565b610831610edc565b805161084490600d9060208401906113c8565b5050565b60006104cf82610d55565b600d805461086090611780565b80601f016020809104026020016040519081016040528092919081815260200182805461088c90611780565b80156108d95780601f106108ae576101008083540402835291602001916108d9565b820191906000526020600020905b8154815290600101906020018083116108bc57829003601f168201915b505050505081565b6108e9610edc565b600b55565b60006001600160a01b038216610917576040516323d3ad8160e21b815260040160405180910390fd5b506001600160a01b03166000908152600560205260409020546001600160401b031690565b610944610edc565b61094e6000610f3b565b565b600c54610100900460ff166109bb5760405162461bcd60e51b815260206004820152602660248201527f5761697420666f7220796f75722070726f66696c652070726f626174696f6e206044820152651d1bc8195b9960d21b60648201526084015b60405180910390fd5b336109c582610848565b6001600160a01b031614610a2c5760405162461bcd60e51b815260206004820152602860248201527f596f6f2c20796f7520617265206e6f7420746865206f776e6572206f6620746860448201526732903a37b5b2b71760c11b60648201526084016109b2565b610a3581610f8d565b50565b6008546001600160a01b031690565b6060600380546104e490611780565b3360008181526007602090815260408083206001600160a01b03871680855290835292819020805460ff191686151590811790915590519081529192917f17307eab39ab6107e8899845ad3d59bd9653f200f220920489ca2b5937696c31910160405180910390a35050565b610acd84848461064b565b6001600160a01b0383163b15610b0657610ae984848484610f98565b610b06576040516368d2bf6b60e11b815260040160405180910390fd5b50505050565b60606000610b18611090565b9392505050565b610b27610edc565b6002610b32826108ee565b10610b7f5760405162461bcd60e51b815260206004820152601e60248201527f4d6178206c696d6974206973206f6e6c79206f6e65207065722055736572000060448201526064016109b2565b600c5460ff16610bcf5760405162461bcd60e51b815260206004820152601b60248201527a15d85a5d08199bdc881d1a19481c185c9d1e481d1bc81cdd185c9d602a1b60448201526064016109b2565b600b54600a54610be09060016117d1565b1115610beb57600080fd5b600a546001610bfa838261109f565b7f899b99f6c26ce7a463fc72a3a36ae78b414dae9cfa6e88e8580ec708e70f30b08383610c2685610b0c565b604051610c35939291906117e9565b60405180910390a1600a8054906000610c4d83611819565b91905055506108246040518060600160405280602581526020016118c26025913983856110b9565b610c7d610edc565b6001600160a01b038116610ce25760405162461bcd60e51b815260206004820152602660248201527f4f776e61626c653a206e6577206f776e657220697320746865207a65726f206160448201526564647265737360d01b60648201526084016109b2565b610a3581610f3b565b610a3581604051602401610cff91906114e1565b60408051601f198184030181529190526020810180516001600160e01b031663104c13eb60e21b1790526110fc565b60008054821080156104cf575050600090815260046020526040902054600160e01b161590565b600081600054811015610d9d57600081815260046020526040902054600160e01b8116610d9b575b80610b18575060001901600081815260046020526040902054610d7d565b505b604051636f96cda160e11b815260040160405180910390fd5b6001600160a01b0384161580610dd357506001600160a01b038316155b610b065760405162461bcd60e51b815260206004820152601c60248201527b2cb7ba9031b0b73a103a3930b739b332b9103a3434b9903a37b5b2b760211b60448201526064016109b2565b4260a01b176001600160a01b03919091161790565b6001600160a01b038416610e8557826001600160a01b03167fe9274a84b19e9428826de6bae8c48329354f8f0e73f771b97cae2d9dccd45a2783604051610e7c91815260200190565b60405180910390a25b6001600160a01b038316610b0657826001600160a01b03167fec9ab91322523c899ede7830ec9bfc992b5981cdcc27b91162fb23de5791117b83604051610ece91815260200190565b60405180910390a250505050565b33610ee5610a38565b6001600160a01b03161461094e5760405162461bcd60e51b815260206004820181905260248201527f4f776e61626c653a2063616c6c6572206973206e6f7420746865206f776e657260448201526064016109b2565b600880546001600160a01b038381166001600160a01b0319831681179093556040519116919082907f8be0079c531659141344cd1fd0a4f28419497f9722a3daafe3b4186f6b6457e090600090a35050565b610a3581600061111d565b604051630a85bd0160e11b81526000906001600160a01b0385169063150b7a0290610fcd903390899088908890600401611834565b602060405180830381600087803b158015610fe757600080fd5b505af1925050508015611017575060408051601f3d908101601f1916820190925261101491810190611871565b60015b611072573d808015611045576040519150601f19603f3d011682016040523d82523d6000602084013e61104a565b606091505b50805161106a576040516368d2bf6b60e11b815260040160405180910390fd5b805181602001fd5b6001600160e01b031916630a85bd0160e11b1490505b949350505050565b6060600d80546104e490611780565b610844828260405180602001604052806000815250611264565b6108248383836040516024016110d19392919061188e565b60408051601f198184030181529190526020810180516001600160e01b031663038fd88960e31b1790525b80516a636f6e736f6c652e6c6f67602083016000808483855afa5050505050565b600061112883610d55565b90508060008061114686600090815260066020526040902080549091565b9150915084156111865761115b8184336106a0565b611186576111698333610435565b61118657604051632ce44b5f60e11b815260040160405180910390fd5b611194836000886001610db6565b801561119f57600082555b6001600160a01b038316600090815260056020526040902080546001600160801b030190556111d283600360e01b610e1e565b600087815260046020526040902055600160e11b8416611220576001860160008181526004602052604090205461121e57600054811461121e5760008181526004602052604090208590555b505b60405186906000906001600160a01b038616906000805160206118e7833981519152908390a4611254836000886001610e33565b5050600180548101905550505050565b61126e83836112d1565b6001600160a01b0383163b15610824576000548281035b6112986000868380600101945086610f98565b6112b5576040516368d2bf6b60e11b815260040160405180910390fd5b8181106112855781600054146112ca57600080fd5b5050505050565b600054816112f25760405163b562e8dd60e01b815260040160405180910390fd5b6112ff6000848385610db6565b6001600160a01b038316600090815260056020526040902080546001600160401b018402019055611336836001841460e11b610e1e565b6000828152600460205260408120919091556001600160a01b0384169083830190839083906000805160206118e78339815191528180a4600183015b81811461139857808360006000805160206118e7833981519152600080a4600101611372565b50816113b657604051622e076360e81b815260040160405180910390fd5b60009081556108249150848385610e33565b8280546113d490611780565b90600052602060002090601f0160209004810192826113f6576000855561143c565b82601f1061140f57805160ff191683800117855561143c565b8280016001018555821561143c579182015b8281111561143c578251825591602001919060010190611421565b5061144892915061144c565b5090565b5b80821115611448576000815560010161144d565b6001600160e01b031981168114610a3557600080fd5b60006020828403121561148957600080fd5b8135610b1881611461565b6000815180845260005b818110156114ba5760208185018101518683018201520161149e565b818111156114cc576000602083870101525b50601f01601f19169290920160200192915050565b602081526000610b186020830184611494565b60006020828403121561150657600080fd5b5035919050565b80356001600160a01b038116811461152457600080fd5b919050565b6000806040838503121561153c57600080fd5b6115458361150d565b946020939093013593505050565b60008060006060848603121561156857600080fd5b6115718461150d565b925061157f6020850161150d565b9150604084013590509250925092565b8035801515811461152457600080fd5b6000602082840312156115b157600080fd5b610b188261158f565b634e487b7160e01b600052604160045260246000fd5b60006001600160401b03808411156115ea576115ea6115ba565b604051601f8501601f19908116603f01168101908282118183101715611612576116126115ba565b8160405280935085815286868601111561162b57600080fd5b858560208301376000602087830101525050509392505050565b60006020828403121561165757600080fd5b81356001600160401b0381111561166d57600080fd5b8201601f8101841361167e57600080fd5b611088848235602084016115d0565b60006020828403121561169f57600080fd5b610b188261150d565b600080604083850312156116bb57600080fd5b6116c48361150d565b91506116d26020840161158f565b90509250929050565b600080600080608085870312156116f157600080fd5b6116fa8561150d565b93506117086020860161150d565b92506040850135915060608501356001600160401b0381111561172a57600080fd5b8501601f8101871361173b57600080fd5b61174a878235602084016115d0565b91505092959194509250565b6000806040838503121561176957600080fd5b6117728361150d565b91506116d26020840161150d565b600181811c9082168061179457607f821691505b602082108114156117b557634e487b7160e01b600052602260045260246000fd5b50919050565b634e487b7160e01b600052601160045260246000fd5b600082198211156117e4576117e46117bb565b500190565b60018060a01b03841681528260208201526060604082015260006118106060830184611494565b95945050505050565b600060001982141561182d5761182d6117bb565b5060010190565b6001600160a01b038581168252841660208201526040810183905260806060820181905260009061186790830184611494565b9695505050505050565b60006020828403121561188357600080fd5b8151610b1881611461565b6060815260006118a16060830186611494565b6020830194909452506001600160a01b039190911660409091015291905056fe416e204e465420772f20494420257320686173206265656e206d696e74656420746f202573ddf252ad1be2c89b69c2b068fc378daa952ba7f163c4a11628f55a4df523b3efa26469706673582212201e132eed600d8b7d04b5009c1add0f1af13e9f4fc446eb299656b3f7509cbfeb64736f6c63430008090033546869732069732050726f6f66206f6620417474656e64656e636520666f722050696c6c6169204c6561726e2057656233206576656e74",
  "linkReferences": {},
  "deployedLinkReferences": {}
}