{
  "_format": "hh-sol-artifact-1",
  "contractName": "ERC721AGasReporterMock",
  "sourceName": "contracts/nftERC721A/mocks/ERC721AGasReporterMock.sol",
  "abi": [
    {
      "inputs": [
        {
          "internalType": "string",
          "name": "name_",
          "type": "string"
        },
        {
          "internalType": "string",
          "name": "symbol_",
          "type": "string"
        }
      ],
      "stateMutability": "nonpayable",
      "type": "constructor"
    },
    {
      "inputs": [],
      "name": "ApprovalCallerNotOwnerNorApproved",
      "type": "error"
    },
    {
      "inputs": [],
      "name": "ApprovalQueryForNonexistentToken",
      "type": "error"
    },
    {
      "inputs": [],
      "name": "ApproveToCaller",
      "type": "error"
    },
    {
      "inputs": [],
      "name": "BalanceQueryForZeroAddress",
      "type": "error"
    },
    {
      "inputs": [],
      "name": "MintERC2309QuantityExceedsLimit",
      "type": "error"
    },
    {
      "inputs": [],
      "name": "MintToZeroAddress",
      "type": "error"
    },
    {
      "inputs": [],
      "name": "MintZeroQuantity",
      "type": "error"
    },
    {
      "inputs": [],
      "name": "OwnerQueryForNonexistentToken",
      "type": "error"
    },
    {
      "inputs": [],
      "name": "OwnershipNotInitializedForExtraData",
      "type": "error"
    },
    {
      "inputs": [],
      "name": "TransferCallerNotOwnerNorApproved",
      "type": "error"
    },
    {
      "inputs": [],
      "name": "TransferFromIncorrectOwner",
      "type": "error"
    },
    {
      "inputs": [],
      "name": "TransferToNonERC721ReceiverImplementer",
      "type": "error"
    },
    {
      "inputs": [],
      "name": "TransferToZeroAddress",
      "type": "error"
    },
    {
      "inputs": [],
      "name": "URIQueryForNonexistentToken",
      "type": "error"
    },
    {
      "anonymous": false,
      "inputs": [
        {
          "indexed": true,
          "internalType": "address",
          "name": "owner",
          "type": "address"
        },
        {
          "indexed": true,
          "internalType": "address",
          "name": "approved",
          "type": "address"
        },
        {
          "indexed": true,
          "internalType": "uint256",
          "name": "tokenId",
          "type": "uint256"
        }
      ],
      "name": "Approval",
      "type": "event"
    },
    {
      "anonymous": false,
      "inputs": [
        {
          "indexed": true,
          "internalType": "address",
          "name": "owner",
          "type": "address"
        },
        {
          "indexed": true,
          "internalType": "address",
          "name": "operator",
          "type": "address"
        },
        {
          "indexed": false,
          "internalType": "bool",
          "name": "approved",
          "type": "bool"
        }
      ],
      "name": "ApprovalForAll",
      "type": "event"
    },
    {
      "anonymous": false,
      "inputs": [
        {
          "indexed": true,
          "internalType": "uint256",
          "name": "fromTokenId",
          "type": "uint256"
        },
        {
          "indexed": false,
          "internalType": "uint256",
          "name": "toTokenId",
          "type": "uint256"
        },
        {
          "indexed": true,
          "internalType": "address",
          "name": "from",
          "type": "address"
        },
        {
          "indexed": true,
          "internalType": "address",
          "name": "to",
          "type": "address"
        }
      ],
      "name": "ConsecutiveTransfer",
      "type": "event"
    },
    {
      "anonymous": false,
      "inputs": [
        {
          "indexed": true,
          "internalType": "address",
          "name": "from",
          "type": "address"
        },
        {
          "indexed": true,
          "internalType": "address",
          "name": "to",
          "type": "address"
        },
        {
          "indexed": true,
          "internalType": "uint256",
          "name": "tokenId",
          "type": "uint256"
        }
      ],
      "name": "Transfer",
      "type": "event"
    },
    {
      "inputs": [
        {
          "internalType": "address",
          "name": "to",
          "type": "address"
        },
        {
          "internalType": "uint256",
          "name": "tokenId",
          "type": "uint256"
        }
      ],
      "name": "approve",
      "outputs": [],
      "stateMutability": "nonpayable",
      "type": "function"
    },
    {
      "inputs": [
        {
          "internalType": "address",
          "name": "owner",
          "type": "address"
        }
      ],
      "name": "balanceOf",
      "outputs": [
        {
          "internalType": "uint256",
          "name": "",
          "type": "uint256"
        }
      ],
      "stateMutability": "view",
      "type": "function"
    },
    {
      "inputs": [
        {
          "internalType": "uint256",
          "name": "tokenId",
          "type": "uint256"
        }
      ],
      "name": "getApproved",
      "outputs": [
        {
          "internalType": "address",
          "name": "",
          "type": "address"
        }
      ],
      "stateMutability": "view",
      "type": "function"
    },
    {
      "inputs": [
        {
          "internalType": "address",
          "name": "owner",
          "type": "address"
        },
        {
          "internalType": "address",
          "name": "operator",
          "type": "address"
        }
      ],
      "name": "isApprovedForAll",
      "outputs": [
        {
          "internalType": "bool",
          "name": "",
          "type": "bool"
        }
      ],
      "stateMutability": "view",
      "type": "function"
    },
    {
      "inputs": [
        {
          "internalType": "address",
          "name": "to",
          "type": "address"
        }
      ],
      "name": "mintOne",
      "outputs": [],
      "stateMutability": "nonpayable",
      "type": "function"
    },
    {
      "inputs": [
        {
          "internalType": "address",
          "name": "to",
          "type": "address"
        }
      ],
      "name": "mintTen",
      "outputs": [],
      "stateMutability": "nonpayable",
      "type": "function"
    },
    {
      "inputs": [],
      "name": "name",
      "outputs": [
        {
          "internalType": "string",
          "name": "",
          "type": "string"
        }
      ],
      "stateMutability": "view",
      "type": "function"
    },
    {
      "inputs": [
        {
          "internalType": "uint256",
          "name": "tokenId",
          "type": "uint256"
        }
      ],
      "name": "ownerOf",
      "outputs": [
        {
          "internalType": "address",
          "name": "",
          "type": "address"
        }
      ],
      "stateMutability": "view",
      "type": "function"
    },
    {
      "inputs": [
        {
          "internalType": "address",
          "name": "to",
          "type": "address"
        }
      ],
      "name": "safeMintOne",
      "outputs": [],
      "stateMutability": "nonpayable",
      "type": "function"
    },
    {
      "inputs": [
        {
          "internalType": "address",
          "name": "to",
          "type": "address"
        }
      ],
      "name": "safeMintTen",
      "outputs": [],
      "stateMutability": "nonpayable",
      "type": "function"
    },
    {
      "inputs": [
        {
          "internalType": "address",
          "name": "from",
          "type": "address"
        },
        {
          "internalType": "address",
          "name": "to",
          "type": "address"
        },
        {
          "internalType": "uint256",
          "name": "tokenId",
          "type": "uint256"
        }
      ],
      "name": "safeTransferFrom",
      "outputs": [],
      "stateMutability": "nonpayable",
      "type": "function"
    },
    {
      "inputs": [
        {
          "internalType": "address",
          "name": "from",
          "type": "address"
        },
        {
          "internalType": "address",
          "name": "to",
          "type": "address"
        },
        {
          "internalType": "uint256",
          "name": "tokenId",
          "type": "uint256"
        },
        {
          "internalType": "bytes",
          "name": "_data",
          "type": "bytes"
        }
      ],
      "name": "safeTransferFrom",
      "outputs": [],
      "stateMutability": "nonpayable",
      "type": "function"
    },
    {
      "inputs": [
        {
          "internalType": "address",
          "name": "operator",
          "type": "address"
        },
        {
          "internalType": "bool",
          "name": "approved",
          "type": "bool"
        }
      ],
      "name": "setApprovalForAll",
      "outputs": [],
      "stateMutability": "nonpayable",
      "type": "function"
    },
    {
      "inputs": [
        {
          "internalType": "bytes4",
          "name": "interfaceId",
          "type": "bytes4"
        }
      ],
      "name": "supportsInterface",
      "outputs": [
        {
          "internalType": "bool",
          "name": "",
          "type": "bool"
        }
      ],
      "stateMutability": "view",
      "type": "function"
    },
    {
      "inputs": [],
      "name": "symbol",
      "outputs": [
        {
          "internalType": "string",
          "name": "",
          "type": "string"
        }
      ],
      "stateMutability": "view",
      "type": "function"
    },
    {
      "inputs": [
        {
          "internalType": "uint256",
          "name": "tokenId",
          "type": "uint256"
        }
      ],
      "name": "tokenURI",
      "outputs": [
        {
          "internalType": "string",
          "name": "",
          "type": "string"
        }
      ],
      "stateMutability": "view",
      "type": "function"
    },
    {
      "inputs": [],
      "name": "totalSupply",
      "outputs": [
        {
          "internalType": "uint256",
          "name": "",
          "type": "uint256"
        }
      ],
      "stateMutability": "view",
      "type": "function"
    },
    {
      "inputs": [
        {
          "internalType": "address",
          "name": "from",
          "type": "address"
        },
        {
          "internalType": "address",
          "name": "to",
          "type": "address"
        },
        {
          "internalType": "uint256",
          "name": "tokenId",
          "type": "uint256"
        }
      ],
      "name": "transferFrom",
      "outputs": [],
      "stateMutability": "nonpayable",
      "type": "function"
    },
    {
      "inputs": [
        {
          "internalType": "address",
          "name": "to",
          "type": "address"
        }
      ],
      "name": "transferTenAsc",
      "outputs": [],
      "stateMutability": "nonpayable",
      "type": "function"
    },
    {
      "inputs": [
        {
          "internalType": "address",
          "name": "to",
          "type": "address"
        }
      ],
      "name": "transferTenAvg",
      "outputs": [],
      "stateMutability": "nonpayable",
      "type": "function"
    },
    {
      "inputs": [
        {
          "internalType": "address",
          "name": "to",
          "type": "address"
        }
      ],
      "name": "transferTenDesc",
      "outputs": [],
      "stateMutability": "nonpayable",
      "type": "function"
    }
  ],
  "bytecode": "0x60806040523480156200001157600080fd5b506040516200135e3803806200135e8339810160408190526200003491620001e6565b8151829082906200004d90600290602085019062000073565b5080516200006390600390602084019062000073565b5060008055506200028d92505050565b828054620000819062000250565b90600052602060002090601f016020900481019282620000a55760008555620000f0565b82601f10620000c057805160ff1916838001178555620000f0565b82800160010185558215620000f0579182015b82811115620000f0578251825591602001919060010190620000d3565b50620000fe92915062000102565b5090565b5b80821115620000fe576000815560010162000103565b634e487b7160e01b600052604160045260246000fd5b600082601f8301126200014157600080fd5b81516001600160401b03808211156200015e576200015e62000119565b604051601f8301601f19908116603f0116810190828211818310171562000189576200018962000119565b81604052838152602092508683858801011115620001a657600080fd5b600091505b83821015620001ca5785820183015181830184015290820190620001ab565b83821115620001dc5760008385830101525b9695505050505050565b60008060408385031215620001fa57600080fd5b82516001600160401b03808211156200021257600080fd5b62000220868387016200012f565b935060208501519150808211156200023757600080fd5b5062000246858286016200012f565b9150509250929050565b600181811c908216806200026557607f821691505b602082108114156200028757634e487b7160e01b600052602260045260246000fd5b50919050565b6110c1806200029d6000396000f3fe608060405234801561001057600080fd5b50600436106101075760003560e01c806301ffc9a71461010c57806306fdde0314610134578063081812fc14610149578063095ea7b3146101745780630ff4ba631461018957806318160ddd1461019c57806323b872dd146101b257806342842e0e146101c55780634da42e58146101d85780636352211e146101eb57806370a08231146101fe57806381861f841461021157806395d89b4114610224578063a22cb4651461022c578063b88d4fde1461023f578063bcd9bbbc14610252578063c87b56dd14610265578063db6745f814610278578063e985e9c51461028b578063ef9c0bec146102c7578063fa695a97146102da575b600080fd5b61011f61011a366004610d09565b6102ed565b60405190151581526020015b60405180910390f35b61013c61033f565b60405161012b9190610d7e565b61015c610157366004610d91565b6103d1565b6040516001600160a01b03909116815260200161012b565b610187610182366004610dc6565b610415565b005b610187610197366004610df0565b6104b5565b600154600054035b60405190815260200161012b565b6101876101c0366004610e0b565b610530565b6101876101d3366004610e0b565b6106af565b6101876101e6366004610df0565b6106cf565b61015c6101f9366004610d91565b610747565b6101a461020c366004610df0565b610752565b61018761021f366004610df0565b6107a0565b61013c6107ab565b61018761023a366004610e47565b6107ba565b61018761024d366004610e99565b610850565b610187610260366004610df0565b61089a565b61013c610273366004610d91565b610906565b610187610286366004610df0565b610998565b61011f610299366004610f74565b6001600160a01b03918216600090815260076020908152604080832093909416825291909152205460ff1690565b6101876102d5366004610df0565b6109a3565b6101876102e8366004610df0565b6109ae565b60006301ffc9a760e01b6001600160e01b03198316148061031e57506380ac58cd60e01b6001600160e01b03198316145b806103395750635b5e139f60e01b6001600160e01b03198316145b92915050565b60606002805461034e90610fa7565b80601f016020809104026020016040519081016040528092919081815260200182805461037a90610fa7565b80156103c75780601f1061039c576101008083540402835291602001916103c7565b820191906000526020600020905b8154815290600101906020018083116103aa57829003601f168201915b5050505050905090565b60006103dc826109b9565b6103f9576040516333d1c03960e21b815260040160405180910390fd5b506000908152600660205260409020546001600160a01b031690565b600061042082610747565b9050336001600160a01b038216146104595761043c8133610299565b610459576040516367d9dca160e11b815260040160405180910390fd5b60008281526006602052604080822080546001600160a01b0319166001600160a01b0387811691821790925591518593918516917f8c5be1e5ebec7d5bd14f71427d1e84f3dd0314c0f7b2291e5b200ac8c7c3b92591a4505050565b6104c133826000610530565b6104cd33826001610530565b6104d933826002610530565b6104e533826003610530565b6104f133826004610530565b6104fd33826005610530565b61050933826006610530565b61051533826007610530565b61052133826008610530565b61052d33826009610530565b50565b600061053b826109e0565b9050836001600160a01b0316816001600160a01b03161461056e5760405162a1148160e81b815260040160405180910390fd5b60008281526006602052604090208054338082146001600160a01b038816909114176105bb5761059e8633610299565b6105bb57604051632ce44b5f60e11b815260040160405180910390fd5b6001600160a01b0385166105e257604051633a954ecd60e21b815260040160405180910390fd5b80156105ed57600082555b6001600160a01b0386811660009081526005602052604080822080546000190190559187168152208054600101905561062a85600160e11b610a41565b600085815260046020526040902055600160e11b831661067857600184016000818152600460205260409020546106765760005481146106765760008181526004602052604090208490555b505b83856001600160a01b0316876001600160a01b031660008051602061106c83398151915260405160405180910390a4505050505050565b6106ca83838360405180602001604052806000815250610850565b505050565b6106db33826009610530565b6106e733826008610530565b6106f333826007610530565b6106ff33826006610530565b61070b33826005610530565b61071733826004610530565b61072333826003610530565b61072f33826002610530565b61073b33826001610530565b61052d33826000610530565b6000610339826109e0565b60006001600160a01b03821661077b576040516323d3ad8160e21b815260040160405180910390fd5b506001600160a01b03166000908152600560205260409020546001600160401b031690565b61052d81600a610a56565b60606003805461034e90610fa7565b6001600160a01b0382163314156107e45760405163b06307db60e01b815260040160405180910390fd5b3360008181526007602090815260408083206001600160a01b03871680855290835292819020805460ff191686151590811790915590519081529192917f17307eab39ab6107e8899845ad3d59bd9653f200f220920489ca2b5937696c31910160405180910390a35050565b61085b848484610530565b6001600160a01b0383163b156108945761087784848484610a74565b610894576040516368d2bf6b60e11b815260040160405180910390fd5b50505050565b6108a633826004610530565b6108b233826005610530565b6108be33826003610530565b6108ca33826006610530565b6108d633826002610530565b6108e233826007610530565b6108ee33826001610530565b6108fa33826008610530565b61052133826000610530565b6060610911826109b9565b61092e57604051630a14c4b560e41b815260040160405180910390fd5b600061094560408051602081019091526000815290565b90508051600014156109665760405180602001604052806000815250610991565b8061097084610b6b565b604051602001610981929190610fe2565b6040516020818303038152906040525b9392505050565b61052d816001610a56565b61052d81600a610bba565b61052d816001610bba565b6000805482108015610339575050600090815260046020526040902054600160e01b161590565b600081600054811015610a2857600081815260046020526040902054600160e01b8116610a26575b80610991575060001901600081815260046020526040902054610a08565b505b604051636f96cda160e11b815260040160405180910390fd5b4260a01b176001600160a01b03919091161790565b610a70828260405180602001604052806000815250610c86565b5050565b604051630a85bd0160e11b81526000906001600160a01b0385169063150b7a0290610aa9903390899088908890600401611011565b602060405180830381600087803b158015610ac357600080fd5b505af1925050508015610af3575060408051601f3d908101601f19168201909252610af09181019061104e565b60015b610b4e573d808015610b21576040519150601f19603f3d011682016040523d82523d6000602084013e610b26565b606091505b508051610b46576040516368d2bf6b60e11b815260040160405180910390fd5b805181602001fd5b6001600160e01b031916630a85bd0160e11b149050949350505050565b604080516080810191829052607f0190826030600a8206018353600a90045b8015610ba857600183039250600a81066030018353600a9004610b8a565b50819003601f19909101908152919050565b6000546001600160a01b038316610be357604051622e076360e81b815260040160405180910390fd5b81610c015760405163b562e8dd60e01b815260040160405180910390fd5b6001600160a01b038316600090815260056020526040902080546001600160401b018402019055610c38836001841460e11b610a41565b600082815260046020526040902055808281015b6040516001830192906001600160a01b0387169060009060008051602061106c833981519152908290a4808210610c4c5760005550505050565b610c908383610bba565b6001600160a01b0383163b156106ca576000548281035b610cba6000868380600101945086610a74565b610cd7576040516368d2bf6b60e11b815260040160405180910390fd5b818110610ca7578160005414610cec57600080fd5b5050505050565b6001600160e01b03198116811461052d57600080fd5b600060208284031215610d1b57600080fd5b813561099181610cf3565b60005b83811015610d41578181015183820152602001610d29565b838111156108945750506000910152565b60008151808452610d6a816020860160208601610d26565b601f01601f19169290920160200192915050565b6020815260006109916020830184610d52565b600060208284031215610da357600080fd5b5035919050565b80356001600160a01b0381168114610dc157600080fd5b919050565b60008060408385031215610dd957600080fd5b610de283610daa565b946020939093013593505050565b600060208284031215610e0257600080fd5b61099182610daa565b600080600060608486031215610e2057600080fd5b610e2984610daa565b9250610e3760208501610daa565b9150604084013590509250925092565b60008060408385031215610e5a57600080fd5b610e6383610daa565b915060208301358015158114610e7857600080fd5b809150509250929050565b634e487b7160e01b600052604160045260246000fd5b60008060008060808587031215610eaf57600080fd5b610eb885610daa565b9350610ec660208601610daa565b92506040850135915060608501356001600160401b0380821115610ee957600080fd5b818701915087601f830112610efd57600080fd5b813581811115610f0f57610f0f610e83565b604051601f8201601f19908116603f01168101908382118183101715610f3757610f37610e83565b816040528281528a6020848701011115610f5057600080fd5b82602086016020830137600060208483010152809550505050505092959194509250565b60008060408385031215610f8757600080fd5b610f9083610daa565b9150610f9e60208401610daa565b90509250929050565b600181811c90821680610fbb57607f821691505b60208210811415610fdc57634e487b7160e01b600052602260045260246000fd5b50919050565b60008351610ff4818460208801610d26565b835190830190611008818360208801610d26565b01949350505050565b6001600160a01b038581168252841660208201526040810183905260806060820181905260009061104490830184610d52565b9695505050505050565b60006020828403121561106057600080fd5b815161099181610cf356feddf252ad1be2c89b69c2b068fc378daa952ba7f163c4a11628f55a4df523b3efa264697066735822122095c1c919197908908e6725f3afae05863efde0ff71b45c331d7cdb47134fcddf64736f6c63430008090033",
  "linkReferences": {},
  "deployedLinkReferences": {}
}